{
  "address": "0x5FbDB2315678afecb367f032d93F642f64180aa3",
  "abi": [
    {
      "inputs": [
        {
          "internalType": "uint256",
          "name": "_totalTicket",
          "type": "uint256"
        },
        {
          "internalType": "string",
          "name": "_ticketName",
          "type": "string"
        },
        {
          "internalType": "string",
          "name": "_ticketSymbol",
          "type": "string"
        }
      ],
      "stateMutability": "nonpayable",
      "type": "constructor"
    },
    {
      "anonymous": false,
      "inputs": [
        {
          "indexed": true,
          "internalType": "address",
          "name": "owner",
          "type": "address"
        },
        {
          "indexed": true,
          "internalType": "address",
          "name": "spender",
          "type": "address"
        },
        {
          "indexed": false,
          "internalType": "uint256",
          "name": "value",
          "type": "uint256"
        }
      ],
      "name": "Approval",
      "type": "event"
    },
    {
      "anonymous": false,
      "inputs": [
        {
          "indexed": true,
          "internalType": "address",
          "name": "from",
          "type": "address"
        },
        {
          "indexed": true,
          "internalType": "address",
          "name": "to",
          "type": "address"
        },
        {
          "indexed": false,
          "internalType": "uint256",
          "name": "value",
          "type": "uint256"
        }
      ],
      "name": "Transfer",
      "type": "event"
    },
    {
      "inputs": [
        {
          "internalType": "address",
          "name": "owner",
          "type": "address"
        },
        {
          "internalType": "address",
          "name": "spender",
          "type": "address"
        }
      ],
      "name": "allowance",
      "outputs": [
        {
          "internalType": "uint256",
          "name": "",
          "type": "uint256"
        }
      ],
      "stateMutability": "view",
      "type": "function"
    },
    {
      "inputs": [
        {
          "internalType": "address",
          "name": "spender",
          "type": "address"
        },
        {
          "internalType": "uint256",
          "name": "amount",
          "type": "uint256"
        }
      ],
      "name": "approve",
      "outputs": [
        {
          "internalType": "bool",
          "name": "",
          "type": "bool"
        }
      ],
      "stateMutability": "nonpayable",
      "type": "function"
    },
    {
      "inputs": [
        {
          "internalType": "address",
          "name": "spender",
          "type": "address"
        },
        {
          "internalType": "uint256",
          "name": "amount",
          "type": "uint256"
        }
      ],
      "name": "approveToken",
      "outputs": [],
      "stateMutability": "nonpayable",
      "type": "function"
    },
    {
      "inputs": [
        {
          "internalType": "address",
          "name": "account",
          "type": "address"
        }
      ],
      "name": "balanceOf",
      "outputs": [
        {
          "internalType": "uint256",
          "name": "",
          "type": "uint256"
        }
      ],
      "stateMutability": "view",
      "type": "function"
    },
    {
      "inputs": [],
      "name": "decimals",
      "outputs": [
        {
          "internalType": "uint8",
          "name": "",
          "type": "uint8"
        }
      ],
      "stateMutability": "view",
      "type": "function"
    },
    {
      "inputs": [
        {
          "internalType": "address",
          "name": "spender",
          "type": "address"
        },
        {
          "internalType": "uint256",
          "name": "subtractedValue",
          "type": "uint256"
        }
      ],
      "name": "decreaseAllowance",
      "outputs": [
        {
          "internalType": "bool",
          "name": "",
          "type": "bool"
        }
      ],
      "stateMutability": "nonpayable",
      "type": "function"
    },
    {
      "inputs": [
        {
          "internalType": "address",
          "name": "spender",
          "type": "address"
        },
        {
          "internalType": "uint256",
          "name": "addedValue",
          "type": "uint256"
        }
      ],
      "name": "increaseAllowance",
      "outputs": [
        {
          "internalType": "bool",
          "name": "",
          "type": "bool"
        }
      ],
      "stateMutability": "nonpayable",
      "type": "function"
    },
    {
      "inputs": [],
      "name": "name",
      "outputs": [
        {
          "internalType": "string",
          "name": "",
          "type": "string"
        }
      ],
      "stateMutability": "view",
      "type": "function"
    },
    {
      "inputs": [],
      "name": "owner",
      "outputs": [
        {
          "internalType": "address",
          "name": "",
          "type": "address"
        }
      ],
      "stateMutability": "view",
      "type": "function"
    },
    {
      "inputs": [
        {
          "internalType": "address",
          "name": "spender",
          "type": "address"
        }
      ],
      "name": "setTokenAllowance",
      "outputs": [],
      "stateMutability": "nonpayable",
      "type": "function"
    },
    {
      "inputs": [],
      "name": "symbol",
      "outputs": [
        {
          "internalType": "string",
          "name": "",
          "type": "string"
        }
      ],
      "stateMutability": "view",
      "type": "function"
    },
    {
      "inputs": [],
      "name": "totalSupply",
      "outputs": [
        {
          "internalType": "uint256",
          "name": "",
          "type": "uint256"
        }
      ],
      "stateMutability": "view",
      "type": "function"
    },
    {
      "inputs": [
        {
          "internalType": "address",
          "name": "to",
          "type": "address"
        },
        {
          "internalType": "uint256",
          "name": "amount",
          "type": "uint256"
        }
      ],
      "name": "transfer",
      "outputs": [
        {
          "internalType": "bool",
          "name": "",
          "type": "bool"
        }
      ],
      "stateMutability": "nonpayable",
      "type": "function"
    },
    {
      "inputs": [
        {
          "internalType": "address",
          "name": "from",
          "type": "address"
        },
        {
          "internalType": "address",
          "name": "to",
          "type": "address"
        },
        {
          "internalType": "uint256",
          "name": "amount",
          "type": "uint256"
        }
      ],
      "name": "transferFrom",
      "outputs": [
        {
          "internalType": "bool",
          "name": "",
          "type": "bool"
        }
      ],
      "stateMutability": "nonpayable",
      "type": "function"
    }
  ],
  "transactionHash": "0x17727bdf49dbf08206068cce8c81ec014f80fe63f27a40451f191c2c7bdc21b7",
  "args": [
    1000,
    "FestivalCurrencyTicket",
    "FCT"
  ],
  "numDeployments": 1,
  "solcInputHash": "62a73941b6b6ff7e87ef22c0612b7614",
  "bytecode": "0x608060405233600560006101000a81548173ffffffffffffffffffffffffffffffffffffffff021916908373ffffffffffffffffffffffffffffffffffffffff1602179055503480156200005257600080fd5b5060405162001ba338038062001ba383398181016040528101906200007891906200038d565b818181600390805190602001906200009292919062000248565b508060049080519060200190620000ab92919062000248565b505050620000c03384620000d060201b60201c565b826006819055505050506200070c565b600073ffffffffffffffffffffffffffffffffffffffff168273ffffffffffffffffffffffffffffffffffffffff16141562000143576040517f08c379a00000000000000000000000000000000000000000000000000000000081526004016200013a906200045f565b60405180910390fd5b62000157600083836200023e60201b60201c565b80600260008282546200016b91906200050e565b92505081905550806000808473ffffffffffffffffffffffffffffffffffffffff1673ffffffffffffffffffffffffffffffffffffffff168152602001908152602001600020600082825401925050819055508173ffffffffffffffffffffffffffffffffffffffff16600073ffffffffffffffffffffffffffffffffffffffff167fddf252ad1be2c89b69c2b068fc378daa952ba7f163c4a11628f55a4df523b3ef836040516200021e919062000481565b60405180910390a36200023a600083836200024360201b60201c565b5050565b505050565b505050565b8280546200025690620005ab565b90600052602060002090601f0160209004810192826200027a5760008555620002c6565b82601f106200029557805160ff1916838001178555620002c6565b82800160010185558215620002c6579182015b82811115620002c5578251825591602001919060010190620002a8565b5b509050620002d59190620002d9565b5090565b5b80821115620002f4576000816000905550600101620002da565b5090565b60006200030f6200030984620004c7565b6200049e565b9050828152602081018484840111156200032e576200032d620006a9565b5b6200033b84828562000575565b509392505050565b600082601f8301126200035b576200035a620006a4565b5b81516200036d848260208601620002f8565b91505092915050565b6000815190506200038781620006f2565b92915050565b600080600060608486031215620003a957620003a8620006b3565b5b6000620003b98682870162000376565b935050602084015167ffffffffffffffff811115620003dd57620003dc620006ae565b5b620003eb8682870162000343565b925050604084015167ffffffffffffffff8111156200040f576200040e620006ae565b5b6200041d8682870162000343565b9150509250925092565b600062000436601f83620004fd565b91506200044382620006c9565b602082019050919050565b62000459816200056b565b82525050565b600060208201905081810360008301526200047a8162000427565b9050919050565b60006020820190506200049860008301846200044e565b92915050565b6000620004aa620004bd565b9050620004b88282620005e1565b919050565b6000604051905090565b600067ffffffffffffffff821115620004e557620004e462000675565b5b620004f082620006b8565b9050602081019050919050565b600082825260208201905092915050565b60006200051b826200056b565b915062000528836200056b565b9250827fffffffffffffffffffffffffffffffffffffffffffffffffffffffffffffffff0382111562000560576200055f62000617565b5b828201905092915050565b6000819050919050565b60005b838110156200059557808201518184015260208101905062000578565b83811115620005a5576000848401525b50505050565b60006002820490506001821680620005c457607f821691505b60208210811415620005db57620005da62000646565b5b50919050565b620005ec82620006b8565b810181811067ffffffffffffffff821117156200060e576200060d62000675565b5b80604052505050565b7f4e487b7100000000000000000000000000000000000000000000000000000000600052601160045260246000fd5b7f4e487b7100000000000000000000000000000000000000000000000000000000600052602260045260246000fd5b7f4e487b7100000000000000000000000000000000000000000000000000000000600052604160045260246000fd5b600080fd5b600080fd5b600080fd5b600080fd5b6000601f19601f8301169050919050565b7f45524332303a206d696e7420746f20746865207a65726f206164647265737300600082015250565b620006fd816200056b565b81146200070957600080fd5b50565b611487806200071c6000396000f3fe608060405234801561001057600080fd5b50600436106100ea5760003560e01c8063395093511161008c57806395d89b411161006657806395d89b411461025f578063a457c2d71461027d578063a9059cbb146102ad578063dd62ed3e146102dd576100ea565b806339509351146101e157806370a08231146102115780638da5cb5b14610241576100ea565b8063096cb2ce116100c8578063096cb2ce1461015957806318160ddd1461017557806323b872dd14610193578063313ce567146101c3576100ea565b8063022fc88b146100ef57806306fdde031461010b578063095ea7b314610129575b600080fd5b61010960048036038101906101049190610cd6565b61030d565b005b61011361031c565b6040516101209190610ed9565b60405180910390f35b610143600480360381019061013e9190610cd6565b6103ae565b6040516101509190610ebe565b60405180910390f35b610173600480360381019061016e9190610c16565b6103d1565b005b61017d610471565b60405161018a9190610ffb565b60405180910390f35b6101ad60048036038101906101a89190610c83565b61047b565b6040516101ba9190610ebe565b60405180910390f35b6101cb6104aa565b6040516101d89190611016565b60405180910390f35b6101fb60048036038101906101f69190610cd6565b6104b3565b6040516102089190610ebe565b60405180910390f35b61022b60048036038101906102269190610c16565b6104ea565b6040516102389190610ffb565b60405180910390f35b610249610532565b6040516102569190610ea3565b60405180910390f35b610267610558565b6040516102749190610ed9565b60405180910390f35b61029760048036038101906102929190610cd6565b6105ea565b6040516102a49190610ebe565b60405180910390f35b6102c760048036038101906102c29190610cd6565b610661565b6040516102d49190610ebe565b60405180910390f35b6102f760048036038101906102f29190610c43565b610684565b6040516103049190610ffb565b60405180910390f35b61031833838361070b565b5050565b60606003805461032b9061112b565b80601f01602080910402602001604051908101604052809291908181526020018280546103579061112b565b80156103a45780601f10610379576101008083540402835291602001916103a4565b820191906000526020600020905b81548152906001019060200180831161038757829003601f168201915b5050505050905090565b6000806103b96108d6565b90506103c681858561070b565b600191505092915050565b600560009054906101000a900473ffffffffffffffffffffffffffffffffffffffff1673ffffffffffffffffffffffffffffffffffffffff163373ffffffffffffffffffffffffffffffffffffffff1614610461576040517f08c379a000000000000000000000000000000000000000000000000000000000815260040161045890610f1b565b60405180910390fd5b61046e338260065461070b565b50565b6000600254905090565b6000806104866108d6565b90506104938582856108de565b61049e85858561096a565b60019150509392505050565b60006012905090565b6000806104be6108d6565b90506104df8185856104d08589610684565b6104da919061104d565b61070b565b600191505092915050565b60008060008373ffffffffffffffffffffffffffffffffffffffff1673ffffffffffffffffffffffffffffffffffffffff168152602001908152602001600020549050919050565b600560009054906101000a900473ffffffffffffffffffffffffffffffffffffffff1681565b6060600480546105679061112b565b80601f01602080910402602001604051908101604052809291908181526020018280546105939061112b565b80156105e05780601f106105b5576101008083540402835291602001916105e0565b820191906000526020600020905b8154815290600101906020018083116105c357829003601f168201915b5050505050905090565b6000806105f56108d6565b905060006106038286610684565b905083811015610648576040517f08c379a000000000000000000000000000000000000000000000000000000000815260040161063f90610fdb565b60405180910390fd5b610655828686840361070b565b60019250505092915050565b60008061066c6108d6565b905061067981858561096a565b600191505092915050565b6000600160008473ffffffffffffffffffffffffffffffffffffffff1673ffffffffffffffffffffffffffffffffffffffff16815260200190815260200160002060008373ffffffffffffffffffffffffffffffffffffffff1673ffffffffffffffffffffffffffffffffffffffff16815260200190815260200160002054905092915050565b600073ffffffffffffffffffffffffffffffffffffffff168373ffffffffffffffffffffffffffffffffffffffff16141561077b576040517f08c379a000000000000000000000000000000000000000000000000000000000815260040161077290610fbb565b60405180910390fd5b600073ffffffffffffffffffffffffffffffffffffffff168273ffffffffffffffffffffffffffffffffffffffff1614156107eb576040517f08c379a00000000000000000000000000000000000000000000000000000000081526004016107e290610f3b565b60405180910390fd5b80600160008573ffffffffffffffffffffffffffffffffffffffff1673ffffffffffffffffffffffffffffffffffffffff16815260200190815260200160002060008473ffffffffffffffffffffffffffffffffffffffff1673ffffffffffffffffffffffffffffffffffffffff168152602001908152602001600020819055508173ffffffffffffffffffffffffffffffffffffffff168373ffffffffffffffffffffffffffffffffffffffff167f8c5be1e5ebec7d5bd14f71427d1e84f3dd0314c0f7b2291e5b200ac8c7c3b925836040516108c99190610ffb565b60405180910390a3505050565b600033905090565b60006108ea8484610684565b90507fffffffffffffffffffffffffffffffffffffffffffffffffffffffffffffffff81146109645781811015610956576040517f08c379a000000000000000000000000000000000000000000000000000000000815260040161094d90610f5b565b60405180910390fd5b610963848484840361070b565b5b50505050565b600073ffffffffffffffffffffffffffffffffffffffff168373ffffffffffffffffffffffffffffffffffffffff1614156109da576040517f08c379a00000000000000000000000000000000000000000000000000000000081526004016109d190610f9b565b60405180910390fd5b600073ffffffffffffffffffffffffffffffffffffffff168273ffffffffffffffffffffffffffffffffffffffff161415610a4a576040517f08c379a0000000000000000000000000000000000000000000000000000000008152600401610a4190610efb565b60405180910390fd5b610a55838383610be2565b60008060008573ffffffffffffffffffffffffffffffffffffffff1673ffffffffffffffffffffffffffffffffffffffff16815260200190815260200160002054905081811015610adb576040517f08c379a0000000000000000000000000000000000000000000000000000000008152600401610ad290610f7b565b60405180910390fd5b8181036000808673ffffffffffffffffffffffffffffffffffffffff1673ffffffffffffffffffffffffffffffffffffffff16815260200190815260200160002081905550816000808573ffffffffffffffffffffffffffffffffffffffff1673ffffffffffffffffffffffffffffffffffffffff168152602001908152602001600020600082825401925050819055508273ffffffffffffffffffffffffffffffffffffffff168473ffffffffffffffffffffffffffffffffffffffff167fddf252ad1be2c89b69c2b068fc378daa952ba7f163c4a11628f55a4df523b3ef84604051610bc99190610ffb565b60405180910390a3610bdc848484610be7565b50505050565b505050565b505050565b600081359050610bfb81611423565b92915050565b600081359050610c108161143a565b92915050565b600060208284031215610c2c57610c2b6111bb565b5b6000610c3a84828501610bec565b91505092915050565b60008060408385031215610c5a57610c596111bb565b5b6000610c6885828601610bec565b9250506020610c7985828601610bec565b9150509250929050565b600080600060608486031215610c9c57610c9b6111bb565b5b6000610caa86828701610bec565b9350506020610cbb86828701610bec565b9250506040610ccc86828701610c01565b9150509250925092565b60008060408385031215610ced57610cec6111bb565b5b6000610cfb85828601610bec565b9250506020610d0c85828601610c01565b9150509250929050565b610d1f816110a3565b82525050565b610d2e816110b5565b82525050565b6000610d3f82611031565b610d49818561103c565b9350610d598185602086016110f8565b610d62816111c0565b840191505092915050565b6000610d7a60238361103c565b9150610d85826111d1565b604082019050919050565b6000610d9d60228361103c565b9150610da882611220565b604082019050919050565b6000610dc060228361103c565b9150610dcb8261126f565b604082019050919050565b6000610de3601d8361103c565b9150610dee826112be565b602082019050919050565b6000610e0660268361103c565b9150610e11826112e7565b604082019050919050565b6000610e2960258361103c565b9150610e3482611336565b604082019050919050565b6000610e4c60248361103c565b9150610e5782611385565b604082019050919050565b6000610e6f60258361103c565b9150610e7a826113d4565b604082019050919050565b610e8e816110e1565b82525050565b610e9d816110eb565b82525050565b6000602082019050610eb86000830184610d16565b92915050565b6000602082019050610ed36000830184610d25565b92915050565b60006020820190508181036000830152610ef38184610d34565b905092915050565b60006020820190508181036000830152610f1481610d6d565b9050919050565b60006020820190508181036000830152610f3481610d90565b9050919050565b60006020820190508181036000830152610f5481610db3565b9050919050565b60006020820190508181036000830152610f7481610dd6565b9050919050565b60006020820190508181036000830152610f9481610df9565b9050919050565b60006020820190508181036000830152610fb481610e1c565b9050919050565b60006020820190508181036000830152610fd481610e3f565b9050919050565b60006020820190508181036000830152610ff481610e62565b9050919050565b60006020820190506110106000830184610e85565b92915050565b600060208201905061102b6000830184610e94565b92915050565b600081519050919050565b600082825260208201905092915050565b6000611058826110e1565b9150611063836110e1565b9250827fffffffffffffffffffffffffffffffffffffffffffffffffffffffffffffffff038211156110985761109761115d565b5b828201905092915050565b60006110ae826110c1565b9050919050565b60008115159050919050565b600073ffffffffffffffffffffffffffffffffffffffff82169050919050565b6000819050919050565b600060ff82169050919050565b60005b838110156111165780820151818401526020810190506110fb565b83811115611125576000848401525b50505050565b6000600282049050600182168061114357607f821691505b602082108114156111575761115661118c565b5b50919050565b7f4e487b7100000000000000000000000000000000000000000000000000000000600052601160045260246000fd5b7f4e487b7100000000000000000000000000000000000000000000000000000000600052602260045260246000fd5b600080fd5b6000601f19601f8301169050919050565b7f45524332303a207472616e7366657220746f20746865207a65726f206164647260008201527f6573730000000000000000000000000000000000000000000000000000000000602082015250565b7f4f6e6c79206f776e65722063616e2063616c6c20746869732066756e6374696f60008201527f6e2e000000000000000000000000000000000000000000000000000000000000602082015250565b7f45524332303a20617070726f766520746f20746865207a65726f20616464726560008201527f7373000000000000000000000000000000000000000000000000000000000000602082015250565b7f45524332303a20696e73756666696369656e7420616c6c6f77616e6365000000600082015250565b7f45524332303a207472616e7366657220616d6f756e742065786365656473206260008201527f616c616e63650000000000000000000000000000000000000000000000000000602082015250565b7f45524332303a207472616e736665722066726f6d20746865207a65726f20616460008201527f6472657373000000000000000000000000000000000000000000000000000000602082015250565b7f45524332303a20617070726f76652066726f6d20746865207a65726f2061646460008201527f7265737300000000000000000000000000000000000000000000000000000000602082015250565b7f45524332303a2064656372656173656420616c6c6f77616e63652062656c6f7760008201527f207a65726f000000000000000000000000000000000000000000000000000000602082015250565b61142c816110a3565b811461143757600080fd5b50565b611443816110e1565b811461144e57600080fd5b5056fea2646970667358221220c5f480eded909baeefd60589413f8a13ed28f628ac10758bef60e125b578e0f664736f6c63430008070033",
  "devdoc": {
    "kind": "dev",
    "methods": {
      "allowance(address,address)": {
        "details": "See {IERC20-allowance}."
      },
      "approve(address,uint256)": {
        "details": "See {IERC20-approve}. NOTE: If `amount` is the maximum `uint256`, the allowance is not updated on `transferFrom`. This is semantically equivalent to an infinite approval. Requirements: - `spender` cannot be the zero address."
      },
      "balanceOf(address)": {
        "details": "See {IERC20-balanceOf}."
      },
      "decimals()": {
        "details": "Returns the number of decimals used to get its user representation. For example, if `decimals` equals `2`, a balance of `505` tokens should be displayed to a user as `5.05` (`505 / 10 ** 2`). Tokens usually opt for a value of 18, imitating the relationship between Ether and Wei. This is the default value returned by this function, unless it's overridden. NOTE: This information is only used for _display_ purposes: it in no way affects any of the arithmetic of the contract, including {IERC20-balanceOf} and {IERC20-transfer}."
      },
      "decreaseAllowance(address,uint256)": {
        "details": "Atomically decreases the allowance granted to `spender` by the caller. This is an alternative to {approve} that can be used as a mitigation for problems described in {IERC20-approve}. Emits an {Approval} event indicating the updated allowance. Requirements: - `spender` cannot be the zero address. - `spender` must have allowance for the caller of at least `subtractedValue`."
      },
      "increaseAllowance(address,uint256)": {
        "details": "Atomically increases the allowance granted to `spender` by the caller. This is an alternative to {approve} that can be used as a mitigation for problems described in {IERC20-approve}. Emits an {Approval} event indicating the updated allowance. Requirements: - `spender` cannot be the zero address."
      },
      "name()": {
        "details": "Returns the name of the token."
      },
      "symbol()": {
        "details": "Returns the symbol of the token, usually a shorter version of the name."
      },
      "totalSupply()": {
        "details": "See {IERC20-totalSupply}."
      },
      "transfer(address,uint256)": {
        "details": "See {IERC20-transfer}. Requirements: - `to` cannot be the zero address. - the caller must have a balance of at least `amount`."
      },
      "transferFrom(address,address,uint256)": {
        "details": "See {IERC20-transferFrom}. Emits an {Approval} event indicating the updated allowance. This is not required by the EIP. See the note at the beginning of {ERC20}. NOTE: Does not update the allowance if the current allowance is the maximum `uint256`. Requirements: - `from` and `to` cannot be the zero address. - `from` must have a balance of at least `amount`. - the caller must have allowance for ``from``'s tokens of at least `amount`."
      }
    },
    "version": 1
  },
  "userdoc": {
    "kind": "user",
    "methods": {},
    "version": 1
  },
  "storageLayout": {
    "storage": [
      {
        "astId": 193,
        "contract": "contracts/FestivalCurrencyTicket.sol:FestivalCurrencyTicket",
        "label": "_balances",
        "offset": 0,
        "slot": "0",
        "type": "t_mapping(t_address,t_uint256)"
      },
      {
        "astId": 199,
        "contract": "contracts/FestivalCurrencyTicket.sol:FestivalCurrencyTicket",
        "label": "_allowances",
        "offset": 0,
        "slot": "1",
        "type": "t_mapping(t_address,t_mapping(t_address,t_uint256))"
      },
      {
        "astId": 201,
        "contract": "contracts/FestivalCurrencyTicket.sol:FestivalCurrencyTicket",
        "label": "_totalSupply",
        "offset": 0,
        "slot": "2",
        "type": "t_uint256"
      },
      {
        "astId": 203,
        "contract": "contracts/FestivalCurrencyTicket.sol:FestivalCurrencyTicket",
        "label": "_name",
        "offset": 0,
        "slot": "3",
        "type": "t_string_storage"
      },
      {
        "astId": 205,
        "contract": "contracts/FestivalCurrencyTicket.sol:FestivalCurrencyTicket",
        "label": "_symbol",
        "offset": 0,
        "slot": "4",
        "type": "t_string_storage"
      },
      {
        "astId": 3553,
        "contract": "contracts/FestivalCurrencyTicket.sol:FestivalCurrencyTicket",
        "label": "owner",
        "offset": 0,
        "slot": "5",
        "type": "t_address"
      },
      {
        "astId": 3555,
        "contract": "contracts/FestivalCurrencyTicket.sol:FestivalCurrencyTicket",
        "label": "totalTicket",
        "offset": 0,
        "slot": "6",
        "type": "t_uint256"
      }
    ],
    "types": {
      "t_address": {
        "encoding": "inplace",
        "label": "address",
        "numberOfBytes": "20"
      },
      "t_mapping(t_address,t_mapping(t_address,t_uint256))": {
        "encoding": "mapping",
        "key": "t_address",
        "label": "mapping(address => mapping(address => uint256))",
        "numberOfBytes": "32",
        "value": "t_mapping(t_address,t_uint256)"
      },
      "t_mapping(t_address,t_uint256)": {
        "encoding": "mapping",
        "key": "t_address",
        "label": "mapping(address => uint256)",
        "numberOfBytes": "32",
        "value": "t_uint256"
      },
      "t_string_storage": {
        "encoding": "bytes",
        "label": "string",
        "numberOfBytes": "32"
      },
      "t_uint256": {
        "encoding": "inplace",
        "label": "uint256",
        "numberOfBytes": "32"
      }
    }
  }
}