{
  "address": "0xb214d8b6c8Dd9E9952fC6169Ce288Bc053600a62",
  "abi": [
    {
      "inputs": [
        {
          "internalType": "uint256",
          "name": "_ticketPrice",
          "type": "uint256"
        },
        {
          "internalType": "string",
          "name": "_ticketName",
          "type": "string"
        },
        {
          "internalType": "string",
          "name": "_ticketSymbol",
          "type": "string"
        },
        {
          "internalType": "uint256",
          "name": "_totalTicket",
          "type": "uint256"
        }
      ],
      "stateMutability": "nonpayable",
      "type": "constructor"
    },
    {
      "inputs": [
        {
          "internalType": "uint256",
          "name": "tokenId",
          "type": "uint256"
        }
      ],
      "name": "FestivalTicketMarketPlace__AlreadyTicketOwner",
      "type": "error"
    },
    {
      "inputs": [],
      "name": "FestivalTicketMarketPlace__NewPriceNotMoreThan10Percent",
      "type": "error"
    },
    {
      "inputs": [],
      "name": "FestivalTicketMarketPlace__NftNotApprovedForMarketPlace",
      "type": "error"
    },
    {
      "inputs": [],
      "name": "FestivalTicketMarketPlace__NoMoreTicketsAvailable",
      "type": "error"
    },
    {
      "inputs": [
        {
          "internalType": "address",
          "name": "seller",
          "type": "address"
        }
      ],
      "name": "FestivalTicketMarketPlace__NotHaveSufficientAmount",
      "type": "error"
    },
    {
      "inputs": [],
      "name": "FestivalTicketMarketPlace__NotSufficientAmount",
      "type": "error"
    },
    {
      "inputs": [
        {
          "internalType": "uint256",
          "name": "tokenId",
          "type": "uint256"
        }
      ],
      "name": "FestivalTicketMarketPlace__NotTicketNFTOwner",
      "type": "error"
    },
    {
      "inputs": [],
      "name": "FestivalTicketMarketPlace__PriceCannotBeZero",
      "type": "error"
    },
    {
      "inputs": [
        {
          "internalType": "uint256",
          "name": "tokenId",
          "type": "uint256"
        }
      ],
      "name": "FestivalTicketMarketPlace__TicketAlreadyListed",
      "type": "error"
    },
    {
      "inputs": [],
      "name": "FestivalTicketMarketPlace__TicketNotListedToSale",
      "type": "error"
    },
    {
      "inputs": [],
      "name": "FestivalTicketMarketPlace__TokenTransferFailed",
      "type": "error"
    },
    {
      "inputs": [
        {
          "internalType": "address",
          "name": "seller",
          "type": "address"
        },
        {
          "internalType": "uint256",
          "name": "amount",
          "type": "uint256"
        }
      ],
      "name": "FestivalTicketMarketPlace__WithDrawFailed",
      "type": "error"
    },
    {
      "anonymous": false,
      "inputs": [
        {
          "indexed": true,
          "internalType": "address",
          "name": "seller",
          "type": "address"
        },
        {
          "indexed": false,
          "internalType": "uint256",
          "name": "amount",
          "type": "uint256"
        }
      ],
      "name": "AmountWithDrawn",
      "type": "event"
    },
    {
      "anonymous": false,
      "inputs": [
        {
          "indexed": true,
          "internalType": "address",
          "name": "owner",
          "type": "address"
        },
        {
          "indexed": true,
          "internalType": "address",
          "name": "approved",
          "type": "address"
        },
        {
          "indexed": true,
          "internalType": "uint256",
          "name": "tokenId",
          "type": "uint256"
        }
      ],
      "name": "Approval",
      "type": "event"
    },
    {
      "anonymous": false,
      "inputs": [
        {
          "indexed": true,
          "internalType": "address",
          "name": "owner",
          "type": "address"
        },
        {
          "indexed": true,
          "internalType": "address",
          "name": "operator",
          "type": "address"
        },
        {
          "indexed": false,
          "internalType": "bool",
          "name": "approved",
          "type": "bool"
        }
      ],
      "name": "ApprovalForAll",
      "type": "event"
    },
    {
      "anonymous": false,
      "inputs": [
        {
          "indexed": true,
          "internalType": "address",
          "name": "previousOwner",
          "type": "address"
        },
        {
          "indexed": true,
          "internalType": "address",
          "name": "newOwner",
          "type": "address"
        }
      ],
      "name": "OwnershipTransferred",
      "type": "event"
    },
    {
      "anonymous": false,
      "inputs": [
        {
          "indexed": true,
          "internalType": "address",
          "name": "buyer",
          "type": "address"
        },
        {
          "indexed": true,
          "internalType": "uint256",
          "name": "ticketId",
          "type": "uint256"
        }
      ],
      "name": "TicketBought",
      "type": "event"
    },
    {
      "anonymous": false,
      "inputs": [
        {
          "indexed": true,
          "internalType": "uint256",
          "name": "ticketId",
          "type": "uint256"
        },
        {
          "indexed": true,
          "internalType": "address",
          "name": "seller",
          "type": "address"
        },
        {
          "indexed": false,
          "internalType": "uint256",
          "name": "price",
          "type": "uint256"
        }
      ],
      "name": "TicketListed",
      "type": "event"
    },
    {
      "anonymous": false,
      "inputs": [
        {
          "indexed": true,
          "internalType": "uint256",
          "name": "ticketId",
          "type": "uint256"
        },
        {
          "indexed": true,
          "internalType": "address",
          "name": "seller",
          "type": "address"
        },
        {
          "indexed": false,
          "internalType": "uint256",
          "name": "price",
          "type": "uint256"
        }
      ],
      "name": "TicketRemoved",
      "type": "event"
    },
    {
      "anonymous": false,
      "inputs": [
        {
          "indexed": true,
          "internalType": "uint256",
          "name": "ticketId",
          "type": "uint256"
        },
        {
          "indexed": true,
          "internalType": "address",
          "name": "seller",
          "type": "address"
        },
        {
          "indexed": false,
          "internalType": "uint256",
          "name": "price",
          "type": "uint256"
        }
      ],
      "name": "TicketUpdated",
      "type": "event"
    },
    {
      "anonymous": false,
      "inputs": [
        {
          "indexed": true,
          "internalType": "address",
          "name": "from",
          "type": "address"
        },
        {
          "indexed": true,
          "internalType": "address",
          "name": "to",
          "type": "address"
        },
        {
          "indexed": true,
          "internalType": "uint256",
          "name": "tokenId",
          "type": "uint256"
        }
      ],
      "name": "Transfer",
      "type": "event"
    },
    {
      "inputs": [
        {
          "internalType": "address",
          "name": "to",
          "type": "address"
        },
        {
          "internalType": "uint256",
          "name": "tokenId",
          "type": "uint256"
        }
      ],
      "name": "approve",
      "outputs": [],
      "stateMutability": "nonpayable",
      "type": "function"
    },
    {
      "inputs": [
        {
          "internalType": "address",
          "name": "owner",
          "type": "address"
        }
      ],
      "name": "balanceOf",
      "outputs": [
        {
          "internalType": "uint256",
          "name": "",
          "type": "uint256"
        }
      ],
      "stateMutability": "view",
      "type": "function"
    },
    {
      "inputs": [],
      "name": "buyTicket",
      "outputs": [
        {
          "internalType": "uint256",
          "name": "ticketId",
          "type": "uint256"
        }
      ],
      "stateMutability": "payable",
      "type": "function"
    },
    {
      "inputs": [
        {
          "internalType": "uint256",
          "name": "_ticketId",
          "type": "uint256"
        }
      ],
      "name": "buyTicketFromListing",
      "outputs": [],
      "stateMutability": "payable",
      "type": "function"
    },
    {
      "inputs": [
        {
          "internalType": "uint256",
          "name": "_ticketId",
          "type": "uint256"
        }
      ],
      "name": "cancelTicketListing",
      "outputs": [],
      "stateMutability": "nonpayable",
      "type": "function"
    },
    {
      "inputs": [],
      "name": "festivalCurrencyTicket",
      "outputs": [
        {
          "internalType": "contract FestivalCurrencyTicket",
          "name": "",
          "type": "address"
        }
      ],
      "stateMutability": "view",
      "type": "function"
    },
    {
      "inputs": [
        {
          "internalType": "uint256",
          "name": "tokenId",
          "type": "uint256"
        }
      ],
      "name": "getApproved",
      "outputs": [
        {
          "internalType": "address",
          "name": "",
          "type": "address"
        }
      ],
      "stateMutability": "view",
      "type": "function"
    },
    {
      "inputs": [],
      "name": "getBalanceOfContract",
      "outputs": [
        {
          "internalType": "uint256",
          "name": "",
          "type": "uint256"
        }
      ],
      "stateMutability": "view",
      "type": "function"
    },
    {
      "inputs": [
        {
          "internalType": "address",
          "name": "seller",
          "type": "address"
        }
      ],
      "name": "getBalanceOfSeller",
      "outputs": [
        {
          "internalType": "uint256",
          "name": "",
          "type": "uint256"
        }
      ],
      "stateMutability": "view",
      "type": "function"
    },
    {
      "inputs": [],
      "name": "getFestivalCurrencyTicketAddress",
      "outputs": [
        {
          "internalType": "address",
          "name": "",
          "type": "address"
        }
      ],
      "stateMutability": "view",
      "type": "function"
    },
    {
      "inputs": [],
      "name": "getFestivalMarketPlaceAddress",
      "outputs": [
        {
          "internalType": "address",
          "name": "",
          "type": "address"
        }
      ],
      "stateMutability": "view",
      "type": "function"
    },
    {
      "inputs": [],
      "name": "getFestivalTicketNFTName",
      "outputs": [
        {
          "internalType": "string",
          "name": "",
          "type": "string"
        }
      ],
      "stateMutability": "view",
      "type": "function"
    },
    {
      "inputs": [
        {
          "internalType": "uint256",
          "name": "_ticketId",
          "type": "uint256"
        }
      ],
      "name": "getFestivalTicketNFTOwnerByTicketId",
      "outputs": [
        {
          "internalType": "address",
          "name": "",
          "type": "address"
        }
      ],
      "stateMutability": "view",
      "type": "function"
    },
    {
      "inputs": [
        {
          "internalType": "uint256",
          "name": "_ticketId",
          "type": "uint256"
        }
      ],
      "name": "getFestivalTicketNFTPrice",
      "outputs": [
        {
          "internalType": "uint256",
          "name": "",
          "type": "uint256"
        }
      ],
      "stateMutability": "view",
      "type": "function"
    },
    {
      "inputs": [],
      "name": "getFestivalTicketNFTSymbol",
      "outputs": [
        {
          "internalType": "string",
          "name": "",
          "type": "string"
        }
      ],
      "stateMutability": "view",
      "type": "function"
    },
    {
      "inputs": [],
      "name": "getOwner",
      "outputs": [
        {
          "internalType": "address",
          "name": "",
          "type": "address"
        }
      ],
      "stateMutability": "view",
      "type": "function"
    },
    {
      "inputs": [
        {
          "internalType": "address",
          "name": "user",
          "type": "address"
        }
      ],
      "name": "getTicketBalanceOfUser",
      "outputs": [
        {
          "internalType": "uint256",
          "name": "",
          "type": "uint256"
        }
      ],
      "stateMutability": "view",
      "type": "function"
    },
    {
      "inputs": [],
      "name": "getTicketListing",
      "outputs": [
        {
          "components": [
            {
              "internalType": "uint256",
              "name": "ticketId",
              "type": "uint256"
            },
            {
              "internalType": "address",
              "name": "seller",
              "type": "address"
            },
            {
              "internalType": "uint256",
              "name": "price",
              "type": "uint256"
            }
          ],
          "internalType": "struct FestivalTicketMarketPlace.TicketListing[]",
          "name": "",
          "type": "tuple[]"
        }
      ],
      "stateMutability": "view",
      "type": "function"
    },
    {
      "inputs": [],
      "name": "getTicketPrice",
      "outputs": [
        {
          "internalType": "uint256",
          "name": "",
          "type": "uint256"
        }
      ],
      "stateMutability": "view",
      "type": "function"
    },
    {
      "inputs": [
        {
          "internalType": "uint256",
          "name": "_ticketId",
          "type": "uint256"
        }
      ],
      "name": "getTicketPriceByTicketId",
      "outputs": [
        {
          "internalType": "uint256",
          "name": "",
          "type": "uint256"
        }
      ],
      "stateMutability": "view",
      "type": "function"
    },
    {
      "inputs": [],
      "name": "getTotalSoldTickets",
      "outputs": [
        {
          "internalType": "uint256",
          "name": "",
          "type": "uint256"
        }
      ],
      "stateMutability": "view",
      "type": "function"
    },
    {
      "inputs": [],
      "name": "getTotalTickets",
      "outputs": [
        {
          "internalType": "uint256",
          "name": "",
          "type": "uint256"
        }
      ],
      "stateMutability": "view",
      "type": "function"
    },
    {
      "inputs": [
        {
          "internalType": "address",
          "name": "owner",
          "type": "address"
        },
        {
          "internalType": "address",
          "name": "operator",
          "type": "address"
        }
      ],
      "name": "isApprovedForAll",
      "outputs": [
        {
          "internalType": "bool",
          "name": "",
          "type": "bool"
        }
      ],
      "stateMutability": "view",
      "type": "function"
    },
    {
      "inputs": [
        {
          "internalType": "uint256",
          "name": "_ticketId",
          "type": "uint256"
        },
        {
          "internalType": "uint256",
          "name": "_price",
          "type": "uint256"
        }
      ],
      "name": "listTicketForSale",
      "outputs": [],
      "stateMutability": "nonpayable",
      "type": "function"
    },
    {
      "inputs": [],
      "name": "name",
      "outputs": [
        {
          "internalType": "string",
          "name": "",
          "type": "string"
        }
      ],
      "stateMutability": "view",
      "type": "function"
    },
    {
      "inputs": [],
      "name": "owner",
      "outputs": [
        {
          "internalType": "address",
          "name": "",
          "type": "address"
        }
      ],
      "stateMutability": "view",
      "type": "function"
    },
    {
      "inputs": [
        {
          "internalType": "uint256",
          "name": "tokenId",
          "type": "uint256"
        }
      ],
      "name": "ownerOf",
      "outputs": [
        {
          "internalType": "address",
          "name": "",
          "type": "address"
        }
      ],
      "stateMutability": "view",
      "type": "function"
    },
    {
      "inputs": [],
      "name": "renounceOwnership",
      "outputs": [],
      "stateMutability": "nonpayable",
      "type": "function"
    },
    {
      "inputs": [
        {
          "internalType": "address",
          "name": "from",
          "type": "address"
        },
        {
          "internalType": "address",
          "name": "to",
          "type": "address"
        },
        {
          "internalType": "uint256",
          "name": "tokenId",
          "type": "uint256"
        }
      ],
      "name": "safeTransferFrom",
      "outputs": [],
      "stateMutability": "nonpayable",
      "type": "function"
    },
    {
      "inputs": [
        {
          "internalType": "address",
          "name": "from",
          "type": "address"
        },
        {
          "internalType": "address",
          "name": "to",
          "type": "address"
        },
        {
          "internalType": "uint256",
          "name": "tokenId",
          "type": "uint256"
        },
        {
          "internalType": "bytes",
          "name": "data",
          "type": "bytes"
        }
      ],
      "name": "safeTransferFrom",
      "outputs": [],
      "stateMutability": "nonpayable",
      "type": "function"
    },
    {
      "inputs": [
        {
          "internalType": "address",
          "name": "operator",
          "type": "address"
        },
        {
          "internalType": "bool",
          "name": "approved",
          "type": "bool"
        }
      ],
      "name": "setApprovalForAll",
      "outputs": [],
      "stateMutability": "nonpayable",
      "type": "function"
    },
    {
      "inputs": [
        {
          "internalType": "bytes4",
          "name": "interfaceId",
          "type": "bytes4"
        }
      ],
      "name": "supportsInterface",
      "outputs": [
        {
          "internalType": "bool",
          "name": "",
          "type": "bool"
        }
      ],
      "stateMutability": "view",
      "type": "function"
    },
    {
      "inputs": [],
      "name": "symbol",
      "outputs": [
        {
          "internalType": "string",
          "name": "",
          "type": "string"
        }
      ],
      "stateMutability": "view",
      "type": "function"
    },
    {
      "inputs": [
        {
          "internalType": "uint256",
          "name": "",
          "type": "uint256"
        }
      ],
      "name": "ticketListings",
      "outputs": [
        {
          "internalType": "uint256",
          "name": "ticketId",
          "type": "uint256"
        },
        {
          "internalType": "address",
          "name": "seller",
          "type": "address"
        },
        {
          "internalType": "uint256",
          "name": "price",
          "type": "uint256"
        }
      ],
      "stateMutability": "view",
      "type": "function"
    },
    {
      "inputs": [],
      "name": "ticketPrice",
      "outputs": [
        {
          "internalType": "uint256",
          "name": "",
          "type": "uint256"
        }
      ],
      "stateMutability": "view",
      "type": "function"
    },
    {
      "inputs": [],
      "name": "ticketSold",
      "outputs": [
        {
          "internalType": "uint256",
          "name": "",
          "type": "uint256"
        }
      ],
      "stateMutability": "view",
      "type": "function"
    },
    {
      "inputs": [
        {
          "internalType": "uint256",
          "name": "tokenId",
          "type": "uint256"
        }
      ],
      "name": "tokenURI",
      "outputs": [
        {
          "internalType": "string",
          "name": "",
          "type": "string"
        }
      ],
      "stateMutability": "view",
      "type": "function"
    },
    {
      "inputs": [
        {
          "internalType": "address",
          "name": "from",
          "type": "address"
        },
        {
          "internalType": "address",
          "name": "to",
          "type": "address"
        },
        {
          "internalType": "uint256",
          "name": "tokenId",
          "type": "uint256"
        }
      ],
      "name": "transferFrom",
      "outputs": [],
      "stateMutability": "nonpayable",
      "type": "function"
    },
    {
      "inputs": [
        {
          "internalType": "address",
          "name": "newOwner",
          "type": "address"
        }
      ],
      "name": "transferOwnership",
      "outputs": [],
      "stateMutability": "nonpayable",
      "type": "function"
    },
    {
      "inputs": [
        {
          "internalType": "uint256",
          "name": "_ticketId",
          "type": "uint256"
        },
        {
          "internalType": "uint256",
          "name": "_newPrice",
          "type": "uint256"
        }
      ],
      "name": "updateTicketPrice",
      "outputs": [],
      "stateMutability": "nonpayable",
      "type": "function"
    },
    {
      "inputs": [],
      "name": "withdrawBalance",
      "outputs": [
        {
          "internalType": "bool",
          "name": "",
          "type": "bool"
        }
      ],
      "stateMutability": "nonpayable",
      "type": "function"
    }
  ],
  "transactionHash": "0x2544b993b4862ba675fd009f40efba07464e815e9a194e41e409a6c0d78f8d71",
  "args": [
    "100000000000000000",
    "FestivalCurrencyTicket",
    "FCT",
    1000
  ],
  "numDeployments": 2,
  "solcInputHash": "420aa8b8ebe5a95a25000d0f67afebb5",
  "bytecode": "0x60a06040526000600a553480156200001657600080fd5b5060405162006e8d38038062006e8d83398181016040528101906200003c919062000455565b828281600090805190602001906200005692919062000302565b5080600190805190602001906200006f92919062000302565b50505062000092620000866200023460201b60201c565b6200023c60201b60201c565b6001600781905550808383604051620000ab9062000393565b620000b99392919062000585565b604051809103906000f080158015620000d6573d6000803e3d6000fd5b50600860006101000a81548173ffffffffffffffffffffffffffffffffffffffff021916908373ffffffffffffffffffffffffffffffffffffffff16021790555083600981905550806080818152505082600b90805190602001906200013e92919062000302565b5081600c90805190602001906200015792919062000302565b5033600e60006101000a81548173ffffffffffffffffffffffffffffffffffffffff021916908373ffffffffffffffffffffffffffffffffffffffff160217905550600860009054906101000a900473ffffffffffffffffffffffffffffffffffffffff1673ffffffffffffffffffffffffffffffffffffffff1663096cb2ce306040518263ffffffff1660e01b8152600401620001f6919062000568565b600060405180830381600087803b1580156200021157600080fd5b505af115801562000226573d6000803e3d6000fd5b5050505050505050620007c8565b600033905090565b6000600660009054906101000a900473ffffffffffffffffffffffffffffffffffffffff16905081600660006101000a81548173ffffffffffffffffffffffffffffffffffffffff021916908373ffffffffffffffffffffffffffffffffffffffff1602179055508173ffffffffffffffffffffffffffffffffffffffff168173ffffffffffffffffffffffffffffffffffffffff167f8be0079c531659141344cd1fd0a4f28419497f9722a3daafe3b4186f6b6457e060405160405180910390a35050565b8280546200031090620006bf565b90600052602060002090601f01602090048101928262000334576000855562000380565b82601f106200034f57805160ff191683800117855562000380565b8280016001018555821562000380579182015b828111156200037f57825182559160200191906001019062000362565b5b5090506200038f9190620003a1565b5090565b611ba380620052ea83390190565b5b80821115620003bc576000816000905550600101620003a2565b5090565b6000620003d7620003d184620005f9565b620005d0565b905082815260208101848484011115620003f657620003f56200078e565b5b6200040384828562000689565b509392505050565b600082601f83011262000423576200042262000789565b5b815162000435848260208601620003c0565b91505092915050565b6000815190506200044f81620007ae565b92915050565b6000806000806080858703121562000472576200047162000798565b5b600062000482878288016200043e565b945050602085015167ffffffffffffffff811115620004a657620004a562000793565b5b620004b4878288016200040b565b935050604085015167ffffffffffffffff811115620004d857620004d762000793565b5b620004e6878288016200040b565b9250506060620004f9878288016200043e565b91505092959194509250565b62000510816200064b565b82525050565b600062000523826200062f565b6200052f81856200063a565b93506200054181856020860162000689565b6200054c816200079d565b840191505092915050565b62000562816200067f565b82525050565b60006020820190506200057f600083018462000505565b92915050565b60006060820190506200059c600083018662000557565b8181036020830152620005b0818562000516565b90508181036040830152620005c6818462000516565b9050949350505050565b6000620005dc620005ef565b9050620005ea8282620006f5565b919050565b6000604051905090565b600067ffffffffffffffff8211156200061757620006166200075a565b5b62000622826200079d565b9050602081019050919050565b600081519050919050565b600082825260208201905092915050565b600062000658826200065f565b9050919050565b600073ffffffffffffffffffffffffffffffffffffffff82169050919050565b6000819050919050565b60005b83811015620006a95780820151818401526020810190506200068c565b83811115620006b9576000848401525b50505050565b60006002820490506001821680620006d857607f821691505b60208210811415620006ef57620006ee6200072b565b5b50919050565b62000700826200079d565b810181811067ffffffffffffffff821117156200072257620007216200075a565b5b80604052505050565b7f4e487b7100000000000000000000000000000000000000000000000000000000600052602260045260246000fd5b7f4e487b7100000000000000000000000000000000000000000000000000000000600052604160045260246000fd5b600080fd5b600080fd5b600080fd5b600080fd5b6000601f19601f8301169050919050565b620007b9816200067f565b8114620007c557600080fd5b50565b608051614aff620007eb60003960008181610aac01526124e80152614aff6000f3fe6080604052600436106102465760003560e01c806370a0823111610139578063a46453b6116100b6578063d524d32d1161007a578063d524d32d146108c0578063e6fc76b9146108e9578063e97b43b614610926578063e985e9c514610942578063edca914c1461097f578063f2fde38b1461099d57610246565b8063a46453b6146107d9578063a9f0962c14610804578063b88d4fde1461082f578063c87b56dd14610858578063c8aaf8ab1461089557610246565b8063893d20e8116100fd578063893d20e8146106f25780638da5cb5b1461071d57806394611c371461074857806395d89b4114610785578063a22cb465146107b057610246565b806370a082311461061d578063715018a61461065a5780637aa5e2fc14610671578063849a5a3c1461069c57806387bb7ae0146106c757610246565b80632c49f35e116101c75780635fd8c7101161018b5780635fd8c710146104fe5780636084e59c146105295780636352211e1461056657806368eed16c146105a357806370143079146105e057610246565b80632c49f35e1461042b57806342842e0e146104545780634667073d1461047d578063485cc439146104a857806352b3ead0146104d357610246565b8063095ea7b31161020e578063095ea7b31461035a5780631209b1f61461038357806313c8c359146103ae57806322968885146103d757806323b872dd1461040257610246565b806301ffc9a71461024b57806306e8337f1461028857806306fdde03146102b3578063081812fc146102de5780630884f6591461031b575b600080fd5b34801561025757600080fd5b50610272600480360381019061026d9190613a86565b6109c6565b60405161027f9190614090565b60405180910390f35b34801561029457600080fd5b5061029d610aa8565b6040516102aa91906142a3565b60405180910390f35b3480156102bf57600080fd5b506102c8610ad0565b6040516102d591906140e1565b60405180910390f35b3480156102ea57600080fd5b5061030560048036038101906103009190613ae0565b610b62565b6040516103129190613f70565b60405180910390f35b34801561032757600080fd5b50610342600480360381019061033d9190613ae0565b610ba8565b604051610351939291906142be565b60405180910390f35b34801561036657600080fd5b50610381600480360381019061037c9190613a19565b610c02565b005b34801561038f57600080fd5b50610398610d1a565b6040516103a591906142a3565b60405180910390f35b3480156103ba57600080fd5b506103d560048036038101906103d09190613ae0565b610d20565b005b3480156103e357600080fd5b506103ec610f5a565b6040516103f991906142a3565b60405180910390f35b34801561040e57600080fd5b5061042960048036038101906104249190613903565b610f62565b005b34801561043757600080fd5b50610452600480360381019061044d9190613b3a565b610fc2565b005b34801561046057600080fd5b5061047b60048036038101906104769190613903565b61127e565b005b34801561048957600080fd5b5061049261129e565b60405161049f91906140e1565b60405180910390f35b3480156104b457600080fd5b506104bd611330565b6040516104ca91906142a3565b60405180910390f35b3480156104df57600080fd5b506104e8611336565b6040516104f59190613f70565b60405180910390f35b34801561050a57600080fd5b50610513611360565b6040516105209190614090565b60405180910390f35b34801561053557600080fd5b50610550600480360381019061054b9190613ae0565b611536565b60405161055d9190613f70565b60405180910390f35b34801561057257600080fd5b5061058d60048036038101906105889190613ae0565b611548565b60405161059a9190613f70565b60405180910390f35b3480156105af57600080fd5b506105ca60048036038101906105c59190613869565b6115cf565b6040516105d791906142a3565b60405180910390f35b3480156105ec57600080fd5b5061060760048036038101906106029190613ae0565b611683565b60405161061491906142a3565b60405180910390f35b34801561062957600080fd5b50610644600480360381019061063f9190613869565b61171e565b60405161065191906142a3565b60405180910390f35b34801561066657600080fd5b5061066f6117d6565b005b34801561067d57600080fd5b506106866117ea565b60405161069391906140e1565b60405180910390f35b3480156106a857600080fd5b506106b161187c565b6040516106be91906142a3565b60405180910390f35b3480156106d357600080fd5b506106dc611886565b6040516106e991906142a3565b60405180910390f35b3480156106fe57600080fd5b50610707611890565b6040516107149190613f70565b60405180910390f35b34801561072957600080fd5b506107326118ba565b60405161073f9190613f70565b60405180910390f35b34801561075457600080fd5b5061076f600480360381019061076a9190613869565b6118e4565b60405161077c91906142a3565b60405180910390f35b34801561079157600080fd5b5061079a61192d565b6040516107a791906140e1565b60405180910390f35b3480156107bc57600080fd5b506107d760048036038101906107d291906139d9565b6119bf565b005b3480156107e557600080fd5b506107ee6119d5565b6040516107fb91906140ab565b60405180910390f35b34801561081057600080fd5b506108196119fb565b6040516108269190613f70565b60405180910390f35b34801561083b57600080fd5b5061085660048036038101906108519190613956565b611a03565b005b34801561086457600080fd5b5061087f600480360381019061087a9190613ae0565b611a65565b60405161088c91906140e1565b60405180910390f35b3480156108a157600080fd5b506108aa611acd565b6040516108b7919061406e565b60405180910390f35b3480156108cc57600080fd5b506108e760048036038101906108e29190613b3a565b611b96565b005b3480156108f557600080fd5b50610910600480360381019061090b9190613ae0565b611f9a565b60405161091d91906142a3565b60405180910390f35b610940600480360381019061093b9190613ae0565b611fb7565b005b34801561094e57600080fd5b50610969600480360381019061096491906138c3565b612450565b6040516109769190614090565b60405180910390f35b6109876124e4565b60405161099491906142a3565b60405180910390f35b3480156109a957600080fd5b506109c460048036038101906109bf9190613869565b612704565b005b60007f80ac58cd000000000000000000000000000000000000000000000000000000007bffffffffffffffffffffffffffffffffffffffffffffffffffffffff1916827bffffffffffffffffffffffffffffffffffffffffffffffffffffffff19161480610a9157507f5b5e139f000000000000000000000000000000000000000000000000000000007bffffffffffffffffffffffffffffffffffffffffffffffffffffffff1916827bffffffffffffffffffffffffffffffffffffffffffffffffffffffff1916145b80610aa15750610aa082612788565b5b9050919050565b60007f0000000000000000000000000000000000000000000000000000000000000000905090565b606060008054610adf90614569565b80601f0160208091040260200160405190810160405280929190818152602001828054610b0b90614569565b8015610b585780601f10610b2d57610100808354040283529160200191610b58565b820191906000526020600020905b815481529060010190602001808311610b3b57829003601f168201915b5050505050905090565b6000610b6d826127f2565b6004600083815260200190815260200160002060009054906101000a900473ffffffffffffffffffffffffffffffffffffffff169050919050565b600d8181548110610bb857600080fd5b90600052602060002090600302016000915090508060000154908060010160009054906101000a900473ffffffffffffffffffffffffffffffffffffffff16908060020154905083565b6000610c0d82611548565b90508073ffffffffffffffffffffffffffffffffffffffff168373ffffffffffffffffffffffffffffffffffffffff161415610c7e576040517f08c379a0000000000000000000000000000000000000000000000000000000008152600401610c7590614263565b60405180910390fd5b8073ffffffffffffffffffffffffffffffffffffffff16610c9d61283d565b73ffffffffffffffffffffffffffffffffffffffff161480610ccc5750610ccb81610cc661283d565b612450565b5b610d0b576040517f08c379a0000000000000000000000000000000000000000000000000000000008152600401610d0290614283565b60405180910390fd5b610d158383612845565b505050565b60095481565b803373ffffffffffffffffffffffffffffffffffffffff16610d4182611548565b73ffffffffffffffffffffffffffffffffffffffff1614610d9957806040517f86168db9000000000000000000000000000000000000000000000000000000008152600401610d9091906142a3565b60405180910390fd5b81338073ffffffffffffffffffffffffffffffffffffffff16610dbb83611548565b73ffffffffffffffffffffffffffffffffffffffff1614610e1357816040517f86168db9000000000000000000000000000000000000000000000000000000008152600401610e0a91906142a3565b60405180910390fd5b610e1c846128fe565b610e52576040517f102d993a00000000000000000000000000000000000000000000000000000000815260040160405180910390fd5b60005b600d80549050811015610f035784600d8281548110610e7757610e766146a2565b5b9060005260206000209060030201600001541415610ef057600d8181548110610ea357610ea26146a2565b5b90600052602060002090600302016000808201600090556001820160006101000a81549073ffffffffffffffffffffffffffffffffffffffff021916905560028201600090555050610f03565b8080610efb906145cc565b915050610e55565b503373ffffffffffffffffffffffffffffffffffffffff16847ffe5eaede61dc828c5725b380b313912335bfd41aabe5bc86114139f2bbc7ab9e6000604051610f4c91906140c6565b60405180910390a350505050565b600047905090565b610f73610f6d61283d565b82612998565b610fb2576040517f08c379a0000000000000000000000000000000000000000000000000000000008152600401610fa990614103565b60405180910390fd5b610fbd838383612a2d565b505050565b813373ffffffffffffffffffffffffffffffffffffffff16610fe382611548565b73ffffffffffffffffffffffffffffffffffffffff161461103b57806040517f86168db900000000000000000000000000000000000000000000000000000000815260040161103291906142a3565b60405180910390fd5b82338073ffffffffffffffffffffffffffffffffffffffff1661105d83611548565b73ffffffffffffffffffffffffffffffffffffffff16146110b557816040517f86168db90000000000000000000000000000000000000000000000000000000081526004016110ac91906142a3565b60405180910390fd5b84846000600f60008481526020019081526020016000205490506000600a826110de9190614428565b9050600081836110ee91906143d2565b90508084111561112a576040517fd14c838200000000000000000000000000000000000000000000000000000000815260040160405180910390fd5b60008911611164576040517f2db9b9aa00000000000000000000000000000000000000000000000000000000815260040160405180910390fd5b61116d8a6128fe565b6111a3576040517f102d993a00000000000000000000000000000000000000000000000000000000815260040160405180910390fd5b60005b600d80549050811015611222578a600d82815481106111c8576111c76146a2565b5b906000526020600020906003020160000154141561120f5789600d82815481106111f5576111f46146a2565b5b906000526020600020906003020160020181905550611222565b808061121a906145cc565b9150506111a6565b503373ffffffffffffffffffffffffffffffffffffffff168a7f032c557b7e578309200abcf182dfdd87766f7ef0a71891b34a11a3f3918f54a98b60405161126a91906142a3565b60405180910390a350505050505050505050565b61129983838360405180602001604052806000815250611a03565b505050565b6060600c80546112ad90614569565b80601f01602080910402602001604051908101604052809291908181526020018280546112d990614569565b80156113265780601f106112fb57610100808354040283529160200191611326565b820191906000526020600020905b81548152906001019060200180831161130957829003601f168201915b5050505050905090565b600a5481565b6000600860009054906101000a900473ffffffffffffffffffffffffffffffffffffffff16905090565b600080601060003373ffffffffffffffffffffffffffffffffffffffff1673ffffffffffffffffffffffffffffffffffffffff168152602001908152602001600020549050600081116113ea57336040517f4fd967560000000000000000000000000000000000000000000000000000000081526004016113e19190613f70565b60405180910390fd5b6000601060003373ffffffffffffffffffffffffffffffffffffffff1673ffffffffffffffffffffffffffffffffffffffff1681526020019081526020016000208190555060003373ffffffffffffffffffffffffffffffffffffffff168260405161145590613f5b565b60006040518083038185875af1925050503d8060008114611492576040519150601f19603f3d011682016040523d82523d6000602084013e611497565b606091505b50509050806114df5733826040517f21e614b30000000000000000000000000000000000000000000000000000000081526004016114d6929190614045565b60405180910390fd5b3373ffffffffffffffffffffffffffffffffffffffff167f5969688dc383c65fbe5c8b103cb414fb54bff02dd6f9309c49a8f265d78b321b8360405161152591906142a3565b60405180910390a260019250505090565b600061154182611548565b9050919050565b60008061155483612d27565b9050600073ffffffffffffffffffffffffffffffffffffffff168173ffffffffffffffffffffffffffffffffffffffff1614156115c6576040517f08c379a00000000000000000000000000000000000000000000000000000000081526004016115bd90614243565b60405180910390fd5b80915050919050565b6000600860009054906101000a900473ffffffffffffffffffffffffffffffffffffffff1673ffffffffffffffffffffffffffffffffffffffff166370a08231836040518263ffffffff1660e01b815260040161162c9190613f70565b60206040518083038186803b15801561164457600080fd5b505afa158015611658573d6000803e3d6000fd5b505050506040513d601f19601f8201168201806040525081019061167c9190613b0d565b9050919050565b60008060005b600d805490508110156116ff5783600d82815481106116ab576116aa6146a2565b5b90600052602060002090600302016000015414156116ec57600d81815481106116d7576116d66146a2565b5b90600052602060002090600302016002015491505b80806116f7906145cc565b915050611689565b50600081141561171457600954915050611719565b809150505b919050565b60008073ffffffffffffffffffffffffffffffffffffffff168273ffffffffffffffffffffffffffffffffffffffff16141561178f576040517f08c379a0000000000000000000000000000000000000000000000000000000008152600401611786906141e3565b60405180910390fd5b600360008373ffffffffffffffffffffffffffffffffffffffff1673ffffffffffffffffffffffffffffffffffffffff168152602001908152602001600020549050919050565b6117de612d64565b6117e86000612de2565b565b6060600b80546117f990614569565b80601f016020809104026020016040519081016040528092919081815260200182805461182590614569565b80156118725780601f1061184757610100808354040283529160200191611872565b820191906000526020600020905b81548152906001019060200180831161185557829003601f168201915b5050505050905090565b6000600a54905090565b6000600954905090565b6000600e60009054906101000a900473ffffffffffffffffffffffffffffffffffffffff16905090565b6000600660009054906101000a900473ffffffffffffffffffffffffffffffffffffffff16905090565b6000601060008373ffffffffffffffffffffffffffffffffffffffff1673ffffffffffffffffffffffffffffffffffffffff168152602001908152602001600020549050919050565b60606001805461193c90614569565b80601f016020809104026020016040519081016040528092919081815260200182805461196890614569565b80156119b55780601f1061198a576101008083540402835291602001916119b5565b820191906000526020600020905b81548152906001019060200180831161199857829003601f168201915b5050505050905090565b6119d16119ca61283d565b8383612ea8565b5050565b600860009054906101000a900473ffffffffffffffffffffffffffffffffffffffff1681565b600030905090565b611a14611a0e61283d565b83612998565b611a53576040517f08c379a0000000000000000000000000000000000000000000000000000000008152600401611a4a90614103565b60405180910390fd5b611a5f84848484613015565b50505050565b6060611a70826127f2565b6000611a7a613071565b90506000815111611a9a5760405180602001604052806000815250611ac5565b80611aa484613088565b604051602001611ab5929190613f37565b6040516020818303038152906040525b915050919050565b6060600d805480602002602001604051908101604052809291908181526020016000905b82821015611b8d5783829060005260206000209060030201604051806060016040529081600082015481526020016001820160009054906101000a900473ffffffffffffffffffffffffffffffffffffffff1673ffffffffffffffffffffffffffffffffffffffff1673ffffffffffffffffffffffffffffffffffffffff16815260200160028201548152505081526020019060010190611af1565b50505050905090565b813373ffffffffffffffffffffffffffffffffffffffff16611bb782611548565b73ffffffffffffffffffffffffffffffffffffffff1614611c0f57806040517f86168db9000000000000000000000000000000000000000000000000000000008152600401611c0691906142a3565b60405180910390fd5b82338073ffffffffffffffffffffffffffffffffffffffff16611c3183611548565b73ffffffffffffffffffffffffffffffffffffffff1614611c8957816040517f86168db9000000000000000000000000000000000000000000000000000000008152600401611c8091906142a3565b60405180910390fd5b84846000600f60008481526020019081526020016000205490506000600a82611cb29190614428565b905060008183611cc291906143d2565b905080841115611cfe576040517fd14c838200000000000000000000000000000000000000000000000000000000815260040160405180910390fd5b60008911611d38576040517f2db9b9aa00000000000000000000000000000000000000000000000000000000815260040160405180910390fd5b611d418a6128fe565b15611d8357896040517fa0ba24a5000000000000000000000000000000000000000000000000000000008152600401611d7a91906142a3565b60405180910390fd5b611d8d308b610c02565b60003090503073ffffffffffffffffffffffffffffffffffffffff168173ffffffffffffffffffffffffffffffffffffffff1663081812fc8d6040518263ffffffff1660e01b8152600401611de291906142a3565b60206040518083038186803b158015611dfa57600080fd5b505afa158015611e0e573d6000803e3d6000fd5b505050506040513d601f19601f82011682018060405250810190611e329190613896565b73ffffffffffffffffffffffffffffffffffffffff1614611e7f576040517f57df683d00000000000000000000000000000000000000000000000000000000815260040160405180910390fd5b600060405180606001604052808d81526020013373ffffffffffffffffffffffffffffffffffffffff1681526020018c8152509050600d8190806001815401808255809150506001900390600052602060002090600302016000909190919091506000820151816000015560208201518160010160006101000a81548173ffffffffffffffffffffffffffffffffffffffff021916908373ffffffffffffffffffffffffffffffffffffffff1602179055506040820151816002015550503373ffffffffffffffffffffffffffffffffffffffff168c7f22968ec3be3687b180f3544163a034b88d57b48159d9a7e9a1b610fdb2d05f808d604051611f8491906142a3565b60405180910390a3505050505050505050505050565b6000600f6000838152602001908152602001600020549050919050565b6000341415611ff2576040517f57d0e34f00000000000000000000000000000000000000000000000000000000815260040160405180910390fd5b60008060005b600d805490508110156120b65783600d828154811061201a576120196146a2565b5b90600052602060002090600302016000015414156120a357600d8181548110612046576120456146a2565b5b9060005260206000209060030201600201549250600d818154811061206e5761206d6146a2565b5b906000526020600020906003020160010160009054906101000a900473ffffffffffffffffffffffffffffffffffffffff1691505b80806120ae906145cc565b915050611ff8565b5060008214156120f2576040517f102d993a00000000000000000000000000000000000000000000000000000000815260040160405180910390fd5b3373ffffffffffffffffffffffffffffffffffffffff168173ffffffffffffffffffffffffffffffffffffffff16141561216357826040517f14e41f3600000000000000000000000000000000000000000000000000000000815260040161215a91906142a3565b60405180910390fd5b81341461219c576040517f57d0e34f00000000000000000000000000000000000000000000000000000000815260040160405180910390fd5b6000600860009054906101000a900473ffffffffffffffffffffffffffffffffffffffff1673ffffffffffffffffffffffffffffffffffffffff166323b872dd833360016040518463ffffffff1660e01b81526004016121fe93929190613f8b565b602060405180830381600087803b15801561221857600080fd5b505af115801561222c573d6000803e3d6000fd5b505050506040513d601f19601f820116820180604052508101906122509190613a59565b905080612289576040517fc09aff6600000000000000000000000000000000000000000000000000000000815260040160405180910390fd5b60003090508073ffffffffffffffffffffffffffffffffffffffff166342842e0e8433886040518463ffffffff1660e01b81526004016122cb93929190613fc2565b600060405180830381600087803b1580156122e557600080fd5b505af11580156122f9573d6000803e3d6000fd5b5050505060005b600d805490508110156123ae5785600d8281548110612322576123216146a2565b5b906000526020600020906003020160000154141561239b57600d818154811061234e5761234d6146a2565b5b90600052602060002090600302016000808201600090556001820160006101000a81549073ffffffffffffffffffffffffffffffffffffffff0219169055600282016000905550506123ae565b80806123a6906145cc565b915050612300565b5083601060008573ffffffffffffffffffffffffffffffffffffffff1673ffffffffffffffffffffffffffffffffffffffff16815260200190815260200160002060008282546123fe91906143d2565b92505081905550843373ffffffffffffffffffffffffffffffffffffffff167f985d112c54c7518a49841fc37640d9ded60112ea7370ca9129c8ed33c3607bc760405160405180910390a35050505050565b6000600560008473ffffffffffffffffffffffffffffffffffffffff1673ffffffffffffffffffffffffffffffffffffffff16815260200190815260200160002060008373ffffffffffffffffffffffffffffffffffffffff1673ffffffffffffffffffffffffffffffffffffffff16815260200190815260200160002060009054906101000a900460ff16905092915050565b60007f0000000000000000000000000000000000000000000000000000000000000000600a5410612541576040517f8d1b6bfb00000000000000000000000000000000000000000000000000000000815260040160405180910390fd5b600954341461257c576040517f57d0e34f00000000000000000000000000000000000000000000000000000000815260040160405180910390fd5b6000600190506000600860009054906101000a900473ffffffffffffffffffffffffffffffffffffffff1673ffffffffffffffffffffffffffffffffffffffff166323b872dd3033856040518463ffffffff1660e01b81526004016125e393929190613fc2565b602060405180830381600087803b1580156125fd57600080fd5b505af1158015612611573d6000803e3d6000fd5b505050506040513d601f19601f820116820180604052508101906126359190613a59565b90508061266e576040517fc09aff6600000000000000000000000000000000000000000000000000000000815260040160405180910390fd5b6001600a5461267d91906143d2565b9250600a6000815480929190612692906145cc565b9190505550600954600f6000858152602001908152602001600020819055506126bb3384613160565b823373ffffffffffffffffffffffffffffffffffffffff167f985d112c54c7518a49841fc37640d9ded60112ea7370ca9129c8ed33c3607bc760405160405180910390a3505090565b61270c612d64565b600073ffffffffffffffffffffffffffffffffffffffff168173ffffffffffffffffffffffffffffffffffffffff16141561277c576040517f08c379a000000000000000000000000000000000000000000000000000000000815260040161277390614143565b60405180910390fd5b61278581612de2565b50565b60007f01ffc9a7000000000000000000000000000000000000000000000000000000007bffffffffffffffffffffffffffffffffffffffffffffffffffffffff1916827bffffffffffffffffffffffffffffffffffffffffffffffffffffffff1916149050919050565b6127fb8161317e565b61283a576040517f08c379a000000000000000000000000000000000000000000000000000000000815260040161283190614243565b60405180910390fd5b50565b600033905090565b816004600083815260200190815260200160002060006101000a81548173ffffffffffffffffffffffffffffffffffffffff021916908373ffffffffffffffffffffffffffffffffffffffff160217905550808273ffffffffffffffffffffffffffffffffffffffff166128b883611548565b73ffffffffffffffffffffffffffffffffffffffff167f8c5be1e5ebec7d5bd14f71427d1e84f3dd0314c0f7b2291e5b200ac8c7c3b92560405160405180910390a45050565b60008060005b600d8054905081101561297a5783600d8281548110612926576129256146a2565b5b906000526020600020906003020160000154141561296757600d8181548110612952576129516146a2565b5b90600052602060002090600302016000015491505b8080612972906145cc565b915050612904565b506000811461298d576001915050612993565b60009150505b919050565b6000806129a483611548565b90508073ffffffffffffffffffffffffffffffffffffffff168473ffffffffffffffffffffffffffffffffffffffff1614806129e657506129e58185612450565b5b80612a2457508373ffffffffffffffffffffffffffffffffffffffff16612a0c84610b62565b73ffffffffffffffffffffffffffffffffffffffff16145b91505092915050565b8273ffffffffffffffffffffffffffffffffffffffff16612a4d82611548565b73ffffffffffffffffffffffffffffffffffffffff1614612aa3576040517f08c379a0000000000000000000000000000000000000000000000000000000008152600401612a9a90614163565b60405180910390fd5b600073ffffffffffffffffffffffffffffffffffffffff168273ffffffffffffffffffffffffffffffffffffffff161415612b13576040517f08c379a0000000000000000000000000000000000000000000000000000000008152600401612b0a906141a3565b60405180910390fd5b612b2083838360016131bf565b8273ffffffffffffffffffffffffffffffffffffffff16612b4082611548565b73ffffffffffffffffffffffffffffffffffffffff1614612b96576040517f08c379a0000000000000000000000000000000000000000000000000000000008152600401612b8d90614163565b60405180910390fd5b6004600082815260200190815260200160002060006101000a81549073ffffffffffffffffffffffffffffffffffffffff02191690556001600360008573ffffffffffffffffffffffffffffffffffffffff1673ffffffffffffffffffffffffffffffffffffffff168152602001908152602001600020600082825403925050819055506001600360008473ffffffffffffffffffffffffffffffffffffffff1673ffffffffffffffffffffffffffffffffffffffff16815260200190815260200160002060008282540192505081905550816002600083815260200190815260200160002060006101000a81548173ffffffffffffffffffffffffffffffffffffffff021916908373ffffffffffffffffffffffffffffffffffffffff160217905550808273ffffffffffffffffffffffffffffffffffffffff168473ffffffffffffffffffffffffffffffffffffffff167fddf252ad1be2c89b69c2b068fc378daa952ba7f163c4a11628f55a4df523b3ef60405160405180910390a4612d2283838360016131c5565b505050565b60006002600083815260200190815260200160002060009054906101000a900473ffffffffffffffffffffffffffffffffffffffff169050919050565b612d6c61283d565b73ffffffffffffffffffffffffffffffffffffffff16612d8a6118ba565b73ffffffffffffffffffffffffffffffffffffffff1614612de0576040517f08c379a0000000000000000000000000000000000000000000000000000000008152600401612dd790614223565b60405180910390fd5b565b6000600660009054906101000a900473ffffffffffffffffffffffffffffffffffffffff16905081600660006101000a81548173ffffffffffffffffffffffffffffffffffffffff021916908373ffffffffffffffffffffffffffffffffffffffff1602179055508173ffffffffffffffffffffffffffffffffffffffff168173ffffffffffffffffffffffffffffffffffffffff167f8be0079c531659141344cd1fd0a4f28419497f9722a3daafe3b4186f6b6457e060405160405180910390a35050565b8173ffffffffffffffffffffffffffffffffffffffff168373ffffffffffffffffffffffffffffffffffffffff161415612f17576040517f08c379a0000000000000000000000000000000000000000000000000000000008152600401612f0e906141c3565b60405180910390fd5b80600560008573ffffffffffffffffffffffffffffffffffffffff1673ffffffffffffffffffffffffffffffffffffffff16815260200190815260200160002060008473ffffffffffffffffffffffffffffffffffffffff1673ffffffffffffffffffffffffffffffffffffffff16815260200190815260200160002060006101000a81548160ff0219169083151502179055508173ffffffffffffffffffffffffffffffffffffffff168373ffffffffffffffffffffffffffffffffffffffff167f17307eab39ab6107e8899845ad3d59bd9653f200f220920489ca2b5937696c31836040516130089190614090565b60405180910390a3505050565b613020848484612a2d565b61302c848484846131cb565b61306b576040517f08c379a000000000000000000000000000000000000000000000000000000000815260040161306290614123565b60405180910390fd5b50505050565b606060405180602001604052806000815250905090565b60606000600161309784613362565b01905060008167ffffffffffffffff8111156130b6576130b56146d1565b5b6040519080825280601f01601f1916602001820160405280156130e85781602001600182028036833780820191505090505b509050600082602001820190505b600115613155578080600190039150507f3031323334353637383961626364656600000000000000000000000000000000600a86061a8153600a858161313f5761313e614644565b5b049450600085141561315057613155565b6130f6565b819350505050919050565b61317a8282604051806020016040528060008152506134b5565b5050565b60008073ffffffffffffffffffffffffffffffffffffffff166131a083612d27565b73ffffffffffffffffffffffffffffffffffffffff1614159050919050565b50505050565b50505050565b60006131ec8473ffffffffffffffffffffffffffffffffffffffff16613510565b15613355578373ffffffffffffffffffffffffffffffffffffffff1663150b7a0261321561283d565b8786866040518563ffffffff1660e01b81526004016132379493929190613ff9565b602060405180830381600087803b15801561325157600080fd5b505af192505050801561328257506040513d601f19601f8201168201806040525081019061327f9190613ab3565b60015b613305573d80600081146132b2576040519150601f19603f3d011682016040523d82523d6000602084013e6132b7565b606091505b506000815114156132fd576040517f08c379a00000000000000000000000000000000000000000000000000000000081526004016132f490614123565b60405180910390fd5b805181602001fd5b63150b7a0260e01b7bffffffffffffffffffffffffffffffffffffffffffffffffffffffff1916817bffffffffffffffffffffffffffffffffffffffffffffffffffffffff19161491505061335a565b600190505b949350505050565b600080600090507a184f03e93ff9f4daa797ed6e38ed64bf6a1f01000000000000000083106133c0577a184f03e93ff9f4daa797ed6e38ed64bf6a1f01000000000000000083816133b6576133b5614644565b5b0492506040810190505b6d04ee2d6d415b85acef810000000083106133fd576d04ee2d6d415b85acef810000000083816133f3576133f2614644565b5b0492506020810190505b662386f26fc10000831061342c57662386f26fc10000838161342257613421614644565b5b0492506010810190505b6305f5e1008310613455576305f5e100838161344b5761344a614644565b5b0492506008810190505b612710831061347a5761271083816134705761346f614644565b5b0492506004810190505b6064831061349d576064838161349357613492614644565b5b0492506002810190505b600a83106134ac576001810190505b80915050919050565b6134bf8383613533565b6134cc60008484846131cb565b61350b576040517f08c379a000000000000000000000000000000000000000000000000000000000815260040161350290614123565b60405180910390fd5b505050565b6000808273ffffffffffffffffffffffffffffffffffffffff163b119050919050565b600073ffffffffffffffffffffffffffffffffffffffff168273ffffffffffffffffffffffffffffffffffffffff1614156135a3576040517f08c379a000000000000000000000000000000000000000000000000000000000815260040161359a90614203565b60405180910390fd5b6135ac8161317e565b156135ec576040517f08c379a00000000000000000000000000000000000000000000000000000000081526004016135e390614183565b60405180910390fd5b6135fa6000838360016131bf565b6136038161317e565b15613643576040517f08c379a000000000000000000000000000000000000000000000000000000000815260040161363a90614183565b60405180910390fd5b6001600360008473ffffffffffffffffffffffffffffffffffffffff1673ffffffffffffffffffffffffffffffffffffffff16815260200190815260200160002060008282540192505081905550816002600083815260200190815260200160002060006101000a81548173ffffffffffffffffffffffffffffffffffffffff021916908373ffffffffffffffffffffffffffffffffffffffff160217905550808273ffffffffffffffffffffffffffffffffffffffff16600073ffffffffffffffffffffffffffffffffffffffff167fddf252ad1be2c89b69c2b068fc378daa952ba7f163c4a11628f55a4df523b3ef60405160405180910390a461374d6000838360016131c5565b5050565b600061376461375f8461431a565b6142f5565b9050828152602081018484840111156137805761377f614705565b5b61378b848285614527565b509392505050565b6000813590506137a281614a6d565b92915050565b6000815190506137b781614a6d565b92915050565b6000813590506137cc81614a84565b92915050565b6000815190506137e181614a84565b92915050565b6000813590506137f681614a9b565b92915050565b60008151905061380b81614a9b565b92915050565b600082601f83011261382657613825614700565b5b8135613836848260208601613751565b91505092915050565b60008135905061384e81614ab2565b92915050565b60008151905061386381614ab2565b92915050565b60006020828403121561387f5761387e61470f565b5b600061388d84828501613793565b91505092915050565b6000602082840312156138ac576138ab61470f565b5b60006138ba848285016137a8565b91505092915050565b600080604083850312156138da576138d961470f565b5b60006138e885828601613793565b92505060206138f985828601613793565b9150509250929050565b60008060006060848603121561391c5761391b61470f565b5b600061392a86828701613793565b935050602061393b86828701613793565b925050604061394c8682870161383f565b9150509250925092565b600080600080608085870312156139705761396f61470f565b5b600061397e87828801613793565b945050602061398f87828801613793565b93505060406139a08782880161383f565b925050606085013567ffffffffffffffff8111156139c1576139c061470a565b5b6139cd87828801613811565b91505092959194509250565b600080604083850312156139f0576139ef61470f565b5b60006139fe85828601613793565b9250506020613a0f858286016137bd565b9150509250929050565b60008060408385031215613a3057613a2f61470f565b5b6000613a3e85828601613793565b9250506020613a4f8582860161383f565b9150509250929050565b600060208284031215613a6f57613a6e61470f565b5b6000613a7d848285016137d2565b91505092915050565b600060208284031215613a9c57613a9b61470f565b5b6000613aaa848285016137e7565b91505092915050565b600060208284031215613ac957613ac861470f565b5b6000613ad7848285016137fc565b91505092915050565b600060208284031215613af657613af561470f565b5b6000613b048482850161383f565b91505092915050565b600060208284031215613b2357613b2261470f565b5b6000613b3184828501613854565b91505092915050565b60008060408385031215613b5157613b5061470f565b5b6000613b5f8582860161383f565b9250506020613b708582860161383f565b9150509250929050565b6000613b868383613ed7565b60608301905092915050565b613b9b81614459565b82525050565b613baa81614459565b82525050565b6000613bbb8261435b565b613bc58185614389565b9350613bd08361434b565b8060005b83811015613c01578151613be88882613b7a565b9750613bf38361437c565b925050600181019050613bd4565b5085935050505092915050565b613c178161446b565b82525050565b6000613c2882614366565b613c32818561439a565b9350613c42818560208601614536565b613c4b81614714565b840191505092915050565b613c5f816144cd565b82525050565b613c6e816144df565b82525050565b613c7d816144f1565b82525050565b6000613c8e82614371565b613c9881856143b6565b9350613ca8818560208601614536565b613cb181614714565b840191505092915050565b6000613cc782614371565b613cd181856143c7565b9350613ce1818560208601614536565b80840191505092915050565b6000613cfa602d836143b6565b9150613d0582614725565b604082019050919050565b6000613d1d6032836143b6565b9150613d2882614774565b604082019050919050565b6000613d406026836143b6565b9150613d4b826147c3565b604082019050919050565b6000613d636025836143b6565b9150613d6e82614812565b604082019050919050565b6000613d86601c836143b6565b9150613d9182614861565b602082019050919050565b6000613da96024836143b6565b9150613db48261488a565b604082019050919050565b6000613dcc6019836143b6565b9150613dd7826148d9565b602082019050919050565b6000613def6029836143b6565b9150613dfa82614902565b604082019050919050565b6000613e126020836143b6565b9150613e1d82614951565b602082019050919050565b6000613e356020836143b6565b9150613e408261497a565b602082019050919050565b6000613e586018836143b6565b9150613e63826149a3565b602082019050919050565b6000613e7b6021836143b6565b9150613e86826149cc565b604082019050919050565b6000613e9e6000836143ab565b9150613ea982614a1b565b600082019050919050565b6000613ec1603d836143b6565b9150613ecc82614a1e565b604082019050919050565b606082016000820151613eed6000850182613f19565b506020820151613f006020850182613b92565b506040820151613f136040850182613f19565b50505050565b613f22816144c3565b82525050565b613f31816144c3565b82525050565b6000613f438285613cbc565b9150613f4f8284613cbc565b91508190509392505050565b6000613f6682613e91565b9150819050919050565b6000602082019050613f856000830184613ba1565b92915050565b6000606082019050613fa06000830186613ba1565b613fad6020830185613ba1565b613fba6040830184613c74565b949350505050565b6000606082019050613fd76000830186613ba1565b613fe46020830185613ba1565b613ff16040830184613f28565b949350505050565b600060808201905061400e6000830187613ba1565b61401b6020830186613ba1565b6140286040830185613f28565b818103606083015261403a8184613c1d565b905095945050505050565b600060408201905061405a6000830185613ba1565b6140676020830184613f28565b9392505050565b600060208201905081810360008301526140888184613bb0565b905092915050565b60006020820190506140a56000830184613c0e565b92915050565b60006020820190506140c06000830184613c56565b92915050565b60006020820190506140db6000830184613c65565b92915050565b600060208201905081810360008301526140fb8184613c83565b905092915050565b6000602082019050818103600083015261411c81613ced565b9050919050565b6000602082019050818103600083015261413c81613d10565b9050919050565b6000602082019050818103600083015261415c81613d33565b9050919050565b6000602082019050818103600083015261417c81613d56565b9050919050565b6000602082019050818103600083015261419c81613d79565b9050919050565b600060208201905081810360008301526141bc81613d9c565b9050919050565b600060208201905081810360008301526141dc81613dbf565b9050919050565b600060208201905081810360008301526141fc81613de2565b9050919050565b6000602082019050818103600083015261421c81613e05565b9050919050565b6000602082019050818103600083015261423c81613e28565b9050919050565b6000602082019050818103600083015261425c81613e4b565b9050919050565b6000602082019050818103600083015261427c81613e6e565b9050919050565b6000602082019050818103600083015261429c81613eb4565b9050919050565b60006020820190506142b86000830184613f28565b92915050565b60006060820190506142d36000830186613f28565b6142e06020830185613ba1565b6142ed6040830184613f28565b949350505050565b60006142ff614310565b905061430b828261459b565b919050565b6000604051905090565b600067ffffffffffffffff821115614335576143346146d1565b5b61433e82614714565b9050602081019050919050565b6000819050602082019050919050565b600081519050919050565b600081519050919050565b600081519050919050565b6000602082019050919050565b600082825260208201905092915050565b600082825260208201905092915050565b600081905092915050565b600082825260208201905092915050565b600081905092915050565b60006143dd826144c3565b91506143e8836144c3565b9250827fffffffffffffffffffffffffffffffffffffffffffffffffffffffffffffffff0382111561441d5761441c614615565b5b828201905092915050565b6000614433826144c3565b915061443e836144c3565b92508261444e5761444d614644565b5b828204905092915050565b6000614464826144a3565b9050919050565b60008115159050919050565b60007fffffffff0000000000000000000000000000000000000000000000000000000082169050919050565b600073ffffffffffffffffffffffffffffffffffffffff82169050919050565b6000819050919050565b60006144d882614503565b9050919050565b60006144ea826144c3565b9050919050565b60006144fc826144c3565b9050919050565b600061450e82614515565b9050919050565b6000614520826144a3565b9050919050565b82818337600083830152505050565b60005b83811015614554578082015181840152602081019050614539565b83811115614563576000848401525b50505050565b6000600282049050600182168061458157607f821691505b6020821081141561459557614594614673565b5b50919050565b6145a482614714565b810181811067ffffffffffffffff821117156145c3576145c26146d1565b5b80604052505050565b60006145d7826144c3565b91507fffffffffffffffffffffffffffffffffffffffffffffffffffffffffffffffff82141561460a57614609614615565b5b600182019050919050565b7f4e487b7100000000000000000000000000000000000000000000000000000000600052601160045260246000fd5b7f4e487b7100000000000000000000000000000000000000000000000000000000600052601260045260246000fd5b7f4e487b7100000000000000000000000000000000000000000000000000000000600052602260045260246000fd5b7f4e487b7100000000000000000000000000000000000000000000000000000000600052603260045260246000fd5b7f4e487b7100000000000000000000000000000000000000000000000000000000600052604160045260246000fd5b600080fd5b600080fd5b600080fd5b600080fd5b6000601f19601f8301169050919050565b7f4552433732313a2063616c6c6572206973206e6f7420746f6b656e206f776e6560008201527f72206f7220617070726f76656400000000000000000000000000000000000000602082015250565b7f4552433732313a207472616e7366657220746f206e6f6e20455243373231526560008201527f63656976657220696d706c656d656e7465720000000000000000000000000000602082015250565b7f4f776e61626c653a206e6577206f776e657220697320746865207a65726f206160008201527f6464726573730000000000000000000000000000000000000000000000000000602082015250565b7f4552433732313a207472616e736665722066726f6d20696e636f72726563742060008201527f6f776e6572000000000000000000000000000000000000000000000000000000602082015250565b7f4552433732313a20746f6b656e20616c7265616479206d696e74656400000000600082015250565b7f4552433732313a207472616e7366657220746f20746865207a65726f2061646460008201527f7265737300000000000000000000000000000000000000000000000000000000602082015250565b7f4552433732313a20617070726f766520746f2063616c6c657200000000000000600082015250565b7f4552433732313a2061646472657373207a65726f206973206e6f74206120766160008201527f6c6964206f776e65720000000000000000000000000000000000000000000000602082015250565b7f4552433732313a206d696e7420746f20746865207a65726f2061646472657373600082015250565b7f4f776e61626c653a2063616c6c6572206973206e6f7420746865206f776e6572600082015250565b7f4552433732313a20696e76616c696420746f6b656e2049440000000000000000600082015250565b7f4552433732313a20617070726f76616c20746f2063757272656e74206f776e6560008201527f7200000000000000000000000000000000000000000000000000000000000000602082015250565b50565b7f4552433732313a20617070726f76652063616c6c6572206973206e6f7420746f60008201527f6b656e206f776e6572206f7220617070726f76656420666f7220616c6c000000602082015250565b614a7681614459565b8114614a8157600080fd5b50565b614a8d8161446b565b8114614a9857600080fd5b50565b614aa481614477565b8114614aaf57600080fd5b50565b614abb816144c3565b8114614ac657600080fd5b5056fea26469706673582212202ac406520072159093cf6d40800e09fef1ca640293b79f1096e7b2e3d4d1695464736f6c63430008070033608060405233600560006101000a81548173ffffffffffffffffffffffffffffffffffffffff021916908373ffffffffffffffffffffffffffffffffffffffff1602179055503480156200005257600080fd5b5060405162001ba338038062001ba383398181016040528101906200007891906200038d565b818181600390805190602001906200009292919062000248565b508060049080519060200190620000ab92919062000248565b505050620000c03384620000d060201b60201c565b826006819055505050506200070c565b600073ffffffffffffffffffffffffffffffffffffffff168273ffffffffffffffffffffffffffffffffffffffff16141562000143576040517f08c379a00000000000000000000000000000000000000000000000000000000081526004016200013a906200045f565b60405180910390fd5b62000157600083836200023e60201b60201c565b80600260008282546200016b91906200050e565b92505081905550806000808473ffffffffffffffffffffffffffffffffffffffff1673ffffffffffffffffffffffffffffffffffffffff168152602001908152602001600020600082825401925050819055508173ffffffffffffffffffffffffffffffffffffffff16600073ffffffffffffffffffffffffffffffffffffffff167fddf252ad1be2c89b69c2b068fc378daa952ba7f163c4a11628f55a4df523b3ef836040516200021e919062000481565b60405180910390a36200023a600083836200024360201b60201c565b5050565b505050565b505050565b8280546200025690620005ab565b90600052602060002090601f0160209004810192826200027a5760008555620002c6565b82601f106200029557805160ff1916838001178555620002c6565b82800160010185558215620002c6579182015b82811115620002c5578251825591602001919060010190620002a8565b5b509050620002d59190620002d9565b5090565b5b80821115620002f4576000816000905550600101620002da565b5090565b60006200030f6200030984620004c7565b6200049e565b9050828152602081018484840111156200032e576200032d620006a9565b5b6200033b84828562000575565b509392505050565b600082601f8301126200035b576200035a620006a4565b5b81516200036d848260208601620002f8565b91505092915050565b6000815190506200038781620006f2565b92915050565b600080600060608486031215620003a957620003a8620006b3565b5b6000620003b98682870162000376565b935050602084015167ffffffffffffffff811115620003dd57620003dc620006ae565b5b620003eb8682870162000343565b925050604084015167ffffffffffffffff8111156200040f576200040e620006ae565b5b6200041d8682870162000343565b9150509250925092565b600062000436601f83620004fd565b91506200044382620006c9565b602082019050919050565b62000459816200056b565b82525050565b600060208201905081810360008301526200047a8162000427565b9050919050565b60006020820190506200049860008301846200044e565b92915050565b6000620004aa620004bd565b9050620004b88282620005e1565b919050565b6000604051905090565b600067ffffffffffffffff821115620004e557620004e462000675565b5b620004f082620006b8565b9050602081019050919050565b600082825260208201905092915050565b60006200051b826200056b565b915062000528836200056b565b9250827fffffffffffffffffffffffffffffffffffffffffffffffffffffffffffffffff0382111562000560576200055f62000617565b5b828201905092915050565b6000819050919050565b60005b838110156200059557808201518184015260208101905062000578565b83811115620005a5576000848401525b50505050565b60006002820490506001821680620005c457607f821691505b60208210811415620005db57620005da62000646565b5b50919050565b620005ec82620006b8565b810181811067ffffffffffffffff821117156200060e576200060d62000675565b5b80604052505050565b7f4e487b7100000000000000000000000000000000000000000000000000000000600052601160045260246000fd5b7f4e487b7100000000000000000000000000000000000000000000000000000000600052602260045260246000fd5b7f4e487b7100000000000000000000000000000000000000000000000000000000600052604160045260246000fd5b600080fd5b600080fd5b600080fd5b600080fd5b6000601f19601f8301169050919050565b7f45524332303a206d696e7420746f20746865207a65726f206164647265737300600082015250565b620006fd816200056b565b81146200070957600080fd5b50565b611487806200071c6000396000f3fe608060405234801561001057600080fd5b50600436106100ea5760003560e01c8063395093511161008c57806395d89b411161006657806395d89b411461025f578063a457c2d71461027d578063a9059cbb146102ad578063dd62ed3e146102dd576100ea565b806339509351146101e157806370a08231146102115780638da5cb5b14610241576100ea565b8063096cb2ce116100c8578063096cb2ce1461015957806318160ddd1461017557806323b872dd14610193578063313ce567146101c3576100ea565b8063022fc88b146100ef57806306fdde031461010b578063095ea7b314610129575b600080fd5b61010960048036038101906101049190610cd6565b61030d565b005b61011361031c565b6040516101209190610ed9565b60405180910390f35b610143600480360381019061013e9190610cd6565b6103ae565b6040516101509190610ebe565b60405180910390f35b610173600480360381019061016e9190610c16565b6103d1565b005b61017d610471565b60405161018a9190610ffb565b60405180910390f35b6101ad60048036038101906101a89190610c83565b61047b565b6040516101ba9190610ebe565b60405180910390f35b6101cb6104aa565b6040516101d89190611016565b60405180910390f35b6101fb60048036038101906101f69190610cd6565b6104b3565b6040516102089190610ebe565b60405180910390f35b61022b60048036038101906102269190610c16565b6104ea565b6040516102389190610ffb565b60405180910390f35b610249610532565b6040516102569190610ea3565b60405180910390f35b610267610558565b6040516102749190610ed9565b60405180910390f35b61029760048036038101906102929190610cd6565b6105ea565b6040516102a49190610ebe565b60405180910390f35b6102c760048036038101906102c29190610cd6565b610661565b6040516102d49190610ebe565b60405180910390f35b6102f760048036038101906102f29190610c43565b610684565b6040516103049190610ffb565b60405180910390f35b61031833838361070b565b5050565b60606003805461032b9061112b565b80601f01602080910402602001604051908101604052809291908181526020018280546103579061112b565b80156103a45780601f10610379576101008083540402835291602001916103a4565b820191906000526020600020905b81548152906001019060200180831161038757829003601f168201915b5050505050905090565b6000806103b96108d6565b90506103c681858561070b565b600191505092915050565b600560009054906101000a900473ffffffffffffffffffffffffffffffffffffffff1673ffffffffffffffffffffffffffffffffffffffff163373ffffffffffffffffffffffffffffffffffffffff1614610461576040517f08c379a000000000000000000000000000000000000000000000000000000000815260040161045890610f1b565b60405180910390fd5b61046e338260065461070b565b50565b6000600254905090565b6000806104866108d6565b90506104938582856108de565b61049e85858561096a565b60019150509392505050565b60006012905090565b6000806104be6108d6565b90506104df8185856104d08589610684565b6104da919061104d565b61070b565b600191505092915050565b60008060008373ffffffffffffffffffffffffffffffffffffffff1673ffffffffffffffffffffffffffffffffffffffff168152602001908152602001600020549050919050565b600560009054906101000a900473ffffffffffffffffffffffffffffffffffffffff1681565b6060600480546105679061112b565b80601f01602080910402602001604051908101604052809291908181526020018280546105939061112b565b80156105e05780601f106105b5576101008083540402835291602001916105e0565b820191906000526020600020905b8154815290600101906020018083116105c357829003601f168201915b5050505050905090565b6000806105f56108d6565b905060006106038286610684565b905083811015610648576040517f08c379a000000000000000000000000000000000000000000000000000000000815260040161063f90610fdb565b60405180910390fd5b610655828686840361070b565b60019250505092915050565b60008061066c6108d6565b905061067981858561096a565b600191505092915050565b6000600160008473ffffffffffffffffffffffffffffffffffffffff1673ffffffffffffffffffffffffffffffffffffffff16815260200190815260200160002060008373ffffffffffffffffffffffffffffffffffffffff1673ffffffffffffffffffffffffffffffffffffffff16815260200190815260200160002054905092915050565b600073ffffffffffffffffffffffffffffffffffffffff168373ffffffffffffffffffffffffffffffffffffffff16141561077b576040517f08c379a000000000000000000000000000000000000000000000000000000000815260040161077290610fbb565b60405180910390fd5b600073ffffffffffffffffffffffffffffffffffffffff168273ffffffffffffffffffffffffffffffffffffffff1614156107eb576040517f08c379a00000000000000000000000000000000000000000000000000000000081526004016107e290610f3b565b60405180910390fd5b80600160008573ffffffffffffffffffffffffffffffffffffffff1673ffffffffffffffffffffffffffffffffffffffff16815260200190815260200160002060008473ffffffffffffffffffffffffffffffffffffffff1673ffffffffffffffffffffffffffffffffffffffff168152602001908152602001600020819055508173ffffffffffffffffffffffffffffffffffffffff168373ffffffffffffffffffffffffffffffffffffffff167f8c5be1e5ebec7d5bd14f71427d1e84f3dd0314c0f7b2291e5b200ac8c7c3b925836040516108c99190610ffb565b60405180910390a3505050565b600033905090565b60006108ea8484610684565b90507fffffffffffffffffffffffffffffffffffffffffffffffffffffffffffffffff81146109645781811015610956576040517f08c379a000000000000000000000000000000000000000000000000000000000815260040161094d90610f5b565b60405180910390fd5b610963848484840361070b565b5b50505050565b600073ffffffffffffffffffffffffffffffffffffffff168373ffffffffffffffffffffffffffffffffffffffff1614156109da576040517f08c379a00000000000000000000000000000000000000000000000000000000081526004016109d190610f9b565b60405180910390fd5b600073ffffffffffffffffffffffffffffffffffffffff168273ffffffffffffffffffffffffffffffffffffffff161415610a4a576040517f08c379a0000000000000000000000000000000000000000000000000000000008152600401610a4190610efb565b60405180910390fd5b610a55838383610be2565b60008060008573ffffffffffffffffffffffffffffffffffffffff1673ffffffffffffffffffffffffffffffffffffffff16815260200190815260200160002054905081811015610adb576040517f08c379a0000000000000000000000000000000000000000000000000000000008152600401610ad290610f7b565b60405180910390fd5b8181036000808673ffffffffffffffffffffffffffffffffffffffff1673ffffffffffffffffffffffffffffffffffffffff16815260200190815260200160002081905550816000808573ffffffffffffffffffffffffffffffffffffffff1673ffffffffffffffffffffffffffffffffffffffff168152602001908152602001600020600082825401925050819055508273ffffffffffffffffffffffffffffffffffffffff168473ffffffffffffffffffffffffffffffffffffffff167fddf252ad1be2c89b69c2b068fc378daa952ba7f163c4a11628f55a4df523b3ef84604051610bc99190610ffb565b60405180910390a3610bdc848484610be7565b50505050565b505050565b505050565b600081359050610bfb81611423565b92915050565b600081359050610c108161143a565b92915050565b600060208284031215610c2c57610c2b6111bb565b5b6000610c3a84828501610bec565b91505092915050565b60008060408385031215610c5a57610c596111bb565b5b6000610c6885828601610bec565b9250506020610c7985828601610bec565b9150509250929050565b600080600060608486031215610c9c57610c9b6111bb565b5b6000610caa86828701610bec565b9350506020610cbb86828701610bec565b9250506040610ccc86828701610c01565b9150509250925092565b60008060408385031215610ced57610cec6111bb565b5b6000610cfb85828601610bec565b9250506020610d0c85828601610c01565b9150509250929050565b610d1f816110a3565b82525050565b610d2e816110b5565b82525050565b6000610d3f82611031565b610d49818561103c565b9350610d598185602086016110f8565b610d62816111c0565b840191505092915050565b6000610d7a60238361103c565b9150610d85826111d1565b604082019050919050565b6000610d9d60228361103c565b9150610da882611220565b604082019050919050565b6000610dc060228361103c565b9150610dcb8261126f565b604082019050919050565b6000610de3601d8361103c565b9150610dee826112be565b602082019050919050565b6000610e0660268361103c565b9150610e11826112e7565b604082019050919050565b6000610e2960258361103c565b9150610e3482611336565b604082019050919050565b6000610e4c60248361103c565b9150610e5782611385565b604082019050919050565b6000610e6f60258361103c565b9150610e7a826113d4565b604082019050919050565b610e8e816110e1565b82525050565b610e9d816110eb565b82525050565b6000602082019050610eb86000830184610d16565b92915050565b6000602082019050610ed36000830184610d25565b92915050565b60006020820190508181036000830152610ef38184610d34565b905092915050565b60006020820190508181036000830152610f1481610d6d565b9050919050565b60006020820190508181036000830152610f3481610d90565b9050919050565b60006020820190508181036000830152610f5481610db3565b9050919050565b60006020820190508181036000830152610f7481610dd6565b9050919050565b60006020820190508181036000830152610f9481610df9565b9050919050565b60006020820190508181036000830152610fb481610e1c565b9050919050565b60006020820190508181036000830152610fd481610e3f565b9050919050565b60006020820190508181036000830152610ff481610e62565b9050919050565b60006020820190506110106000830184610e85565b92915050565b600060208201905061102b6000830184610e94565b92915050565b600081519050919050565b600082825260208201905092915050565b6000611058826110e1565b9150611063836110e1565b9250827fffffffffffffffffffffffffffffffffffffffffffffffffffffffffffffffff038211156110985761109761115d565b5b828201905092915050565b60006110ae826110c1565b9050919050565b60008115159050919050565b600073ffffffffffffffffffffffffffffffffffffffff82169050919050565b6000819050919050565b600060ff82169050919050565b60005b838110156111165780820151818401526020810190506110fb565b83811115611125576000848401525b50505050565b6000600282049050600182168061114357607f821691505b602082108114156111575761115661118c565b5b50919050565b7f4e487b7100000000000000000000000000000000000000000000000000000000600052601160045260246000fd5b7f4e487b7100000000000000000000000000000000000000000000000000000000600052602260045260246000fd5b600080fd5b6000601f19601f8301169050919050565b7f45524332303a207472616e7366657220746f20746865207a65726f206164647260008201527f6573730000000000000000000000000000000000000000000000000000000000602082015250565b7f4f6e6c79206f776e65722063616e2063616c6c20746869732066756e6374696f60008201527f6e2e000000000000000000000000000000000000000000000000000000000000602082015250565b7f45524332303a20617070726f766520746f20746865207a65726f20616464726560008201527f7373000000000000000000000000000000000000000000000000000000000000602082015250565b7f45524332303a20696e73756666696369656e7420616c6c6f77616e6365000000600082015250565b7f45524332303a207472616e7366657220616d6f756e742065786365656473206260008201527f616c616e63650000000000000000000000000000000000000000000000000000602082015250565b7f45524332303a207472616e736665722066726f6d20746865207a65726f20616460008201527f6472657373000000000000000000000000000000000000000000000000000000602082015250565b7f45524332303a20617070726f76652066726f6d20746865207a65726f2061646460008201527f7265737300000000000000000000000000000000000000000000000000000000602082015250565b7f45524332303a2064656372656173656420616c6c6f77616e63652062656c6f7760008201527f207a65726f000000000000000000000000000000000000000000000000000000602082015250565b61142c816110a3565b811461143757600080fd5b50565b611443816110e1565b811461144e57600080fd5b5056fea2646970667358221220c5f480eded909baeefd60589413f8a13ed28f628ac10758bef60e125b578e0f664736f6c63430008070033",
  "devdoc": {
    "kind": "dev",
    "methods": {
      "approve(address,uint256)": {
        "details": "See {IERC721-approve}."
      },
      "balanceOf(address)": {
        "details": "See {IERC721-balanceOf}."
      },
      "getApproved(uint256)": {
        "details": "See {IERC721-getApproved}."
      },
      "isApprovedForAll(address,address)": {
        "details": "See {IERC721-isApprovedForAll}."
      },
      "name()": {
        "details": "See {IERC721Metadata-name}."
      },
      "owner()": {
        "details": "Returns the address of the current owner."
      },
      "ownerOf(uint256)": {
        "details": "See {IERC721-ownerOf}."
      },
      "renounceOwnership()": {
        "details": "Leaves the contract without owner. It will not be possible to call `onlyOwner` functions. Can only be called by the current owner. NOTE: Renouncing ownership will leave the contract without an owner, thereby disabling any functionality that is only available to the owner."
      },
      "safeTransferFrom(address,address,uint256)": {
        "details": "See {IERC721-safeTransferFrom}."
      },
      "safeTransferFrom(address,address,uint256,bytes)": {
        "details": "See {IERC721-safeTransferFrom}."
      },
      "setApprovalForAll(address,bool)": {
        "details": "See {IERC721-setApprovalForAll}."
      },
      "supportsInterface(bytes4)": {
        "details": "See {IERC165-supportsInterface}."
      },
      "symbol()": {
        "details": "See {IERC721Metadata-symbol}."
      },
      "tokenURI(uint256)": {
        "details": "See {IERC721Metadata-tokenURI}."
      },
      "transferFrom(address,address,uint256)": {
        "details": "See {IERC721-transferFrom}."
      },
      "transferOwnership(address)": {
        "details": "Transfers ownership of the contract to a new account (`newOwner`). Can only be called by the current owner."
      }
    },
    "version": 1
  },
  "userdoc": {
    "kind": "user",
    "methods": {},
    "version": 1
  },
  "storageLayout": {
    "storage": [
      {
        "astId": 893,
        "contract": "contracts/FestivalTicketMarketPlace.sol:FestivalTicketMarketPlace",
        "label": "_name",
        "offset": 0,
        "slot": "0",
        "type": "t_string_storage"
      },
      {
        "astId": 895,
        "contract": "contracts/FestivalTicketMarketPlace.sol:FestivalTicketMarketPlace",
        "label": "_symbol",
        "offset": 0,
        "slot": "1",
        "type": "t_string_storage"
      },
      {
        "astId": 899,
        "contract": "contracts/FestivalTicketMarketPlace.sol:FestivalTicketMarketPlace",
        "label": "_owners",
        "offset": 0,
        "slot": "2",
        "type": "t_mapping(t_uint256,t_address)"
      },
      {
        "astId": 903,
        "contract": "contracts/FestivalTicketMarketPlace.sol:FestivalTicketMarketPlace",
        "label": "_balances",
        "offset": 0,
        "slot": "3",
        "type": "t_mapping(t_address,t_uint256)"
      },
      {
        "astId": 907,
        "contract": "contracts/FestivalTicketMarketPlace.sol:FestivalTicketMarketPlace",
        "label": "_tokenApprovals",
        "offset": 0,
        "slot": "4",
        "type": "t_mapping(t_uint256,t_address)"
      },
      {
        "astId": 913,
        "contract": "contracts/FestivalTicketMarketPlace.sol:FestivalTicketMarketPlace",
        "label": "_operatorApprovals",
        "offset": 0,
        "slot": "5",
        "type": "t_mapping(t_address,t_mapping(t_address,t_bool))"
      },
      {
        "astId": 7,
        "contract": "contracts/FestivalTicketMarketPlace.sol:FestivalTicketMarketPlace",
        "label": "_owner",
        "offset": 0,
        "slot": "6",
        "type": "t_address"
      },
      {
        "astId": 123,
        "contract": "contracts/FestivalTicketMarketPlace.sol:FestivalTicketMarketPlace",
        "label": "_status",
        "offset": 0,
        "slot": "7",
        "type": "t_uint256"
      },
      {
        "astId": 3647,
        "contract": "contracts/FestivalTicketMarketPlace.sol:FestivalTicketMarketPlace",
        "label": "festivalCurrencyTicket",
        "offset": 0,
        "slot": "8",
        "type": "t_contract(FestivalCurrencyTicket)3622"
      },
      {
        "astId": 3649,
        "contract": "contracts/FestivalTicketMarketPlace.sol:FestivalTicketMarketPlace",
        "label": "ticketPrice",
        "offset": 0,
        "slot": "9",
        "type": "t_uint256"
      },
      {
        "astId": 3652,
        "contract": "contracts/FestivalTicketMarketPlace.sol:FestivalTicketMarketPlace",
        "label": "ticketSold",
        "offset": 0,
        "slot": "10",
        "type": "t_uint256"
      },
      {
        "astId": 3656,
        "contract": "contracts/FestivalTicketMarketPlace.sol:FestivalTicketMarketPlace",
        "label": "ticketName",
        "offset": 0,
        "slot": "11",
        "type": "t_string_storage"
      },
      {
        "astId": 3658,
        "contract": "contracts/FestivalTicketMarketPlace.sol:FestivalTicketMarketPlace",
        "label": "ticketSymbol",
        "offset": 0,
        "slot": "12",
        "type": "t_string_storage"
      },
      {
        "astId": 3662,
        "contract": "contracts/FestivalTicketMarketPlace.sol:FestivalTicketMarketPlace",
        "label": "ticketListings",
        "offset": 0,
        "slot": "13",
        "type": "t_array(t_struct(TicketListing)3644_storage)dyn_storage"
      },
      {
        "astId": 3664,
        "contract": "contracts/FestivalTicketMarketPlace.sol:FestivalTicketMarketPlace",
        "label": "contractOwner",
        "offset": 0,
        "slot": "14",
        "type": "t_address"
      },
      {
        "astId": 3724,
        "contract": "contracts/FestivalTicketMarketPlace.sol:FestivalTicketMarketPlace",
        "label": "ticketPriceByTicketId",
        "offset": 0,
        "slot": "15",
        "type": "t_mapping(t_uint256,t_uint256)"
      },
      {
        "astId": 3728,
        "contract": "contracts/FestivalTicketMarketPlace.sol:FestivalTicketMarketPlace",
        "label": "s_balances",
        "offset": 0,
        "slot": "16",
        "type": "t_mapping(t_address,t_uint256)"
      }
    ],
    "types": {
      "t_address": {
        "encoding": "inplace",
        "label": "address",
        "numberOfBytes": "20"
      },
      "t_array(t_struct(TicketListing)3644_storage)dyn_storage": {
        "base": "t_struct(TicketListing)3644_storage",
        "encoding": "dynamic_array",
        "label": "struct FestivalTicketMarketPlace.TicketListing[]",
        "numberOfBytes": "32"
      },
      "t_bool": {
        "encoding": "inplace",
        "label": "bool",
        "numberOfBytes": "1"
      },
      "t_contract(FestivalCurrencyTicket)3622": {
        "encoding": "inplace",
        "label": "contract FestivalCurrencyTicket",
        "numberOfBytes": "20"
      },
      "t_mapping(t_address,t_bool)": {
        "encoding": "mapping",
        "key": "t_address",
        "label": "mapping(address => bool)",
        "numberOfBytes": "32",
        "value": "t_bool"
      },
      "t_mapping(t_address,t_mapping(t_address,t_bool))": {
        "encoding": "mapping",
        "key": "t_address",
        "label": "mapping(address => mapping(address => bool))",
        "numberOfBytes": "32",
        "value": "t_mapping(t_address,t_bool)"
      },
      "t_mapping(t_address,t_uint256)": {
        "encoding": "mapping",
        "key": "t_address",
        "label": "mapping(address => uint256)",
        "numberOfBytes": "32",
        "value": "t_uint256"
      },
      "t_mapping(t_uint256,t_address)": {
        "encoding": "mapping",
        "key": "t_uint256",
        "label": "mapping(uint256 => address)",
        "numberOfBytes": "32",
        "value": "t_address"
      },
      "t_mapping(t_uint256,t_uint256)": {
        "encoding": "mapping",
        "key": "t_uint256",
        "label": "mapping(uint256 => uint256)",
        "numberOfBytes": "32",
        "value": "t_uint256"
      },
      "t_string_storage": {
        "encoding": "bytes",
        "label": "string",
        "numberOfBytes": "32"
      },
      "t_struct(TicketListing)3644_storage": {
        "encoding": "inplace",
        "label": "struct FestivalTicketMarketPlace.TicketListing",
        "members": [
          {
            "astId": 3639,
            "contract": "contracts/FestivalTicketMarketPlace.sol:FestivalTicketMarketPlace",
            "label": "ticketId",
            "offset": 0,
            "slot": "0",
            "type": "t_uint256"
          },
          {
            "astId": 3641,
            "contract": "contracts/FestivalTicketMarketPlace.sol:FestivalTicketMarketPlace",
            "label": "seller",
            "offset": 0,
            "slot": "1",
            "type": "t_address"
          },
          {
            "astId": 3643,
            "contract": "contracts/FestivalTicketMarketPlace.sol:FestivalTicketMarketPlace",
            "label": "price",
            "offset": 0,
            "slot": "2",
            "type": "t_uint256"
          }
        ],
        "numberOfBytes": "96"
      },
      "t_uint256": {
        "encoding": "inplace",
        "label": "uint256",
        "numberOfBytes": "32"
      }
    }
  }
}