{
  "address": "0x10E0EE6fd9800aF34c5524736b44c26B713adbA8",
  "abi": [
    {
      "inputs": [
        {
          "internalType": "uint256",
          "name": "_ticketPrice",
          "type": "uint256"
        },
        {
          "internalType": "string",
          "name": "_ticketName",
          "type": "string"
        },
        {
          "internalType": "string",
          "name": "_ticketSymbol",
          "type": "string"
        },
        {
          "internalType": "uint256",
          "name": "_totalTicket",
          "type": "uint256"
        }
      ],
      "stateMutability": "nonpayable",
      "type": "constructor"
    },
    {
      "inputs": [
        {
          "internalType": "uint256",
          "name": "tokenId",
          "type": "uint256"
        }
      ],
      "name": "FestivalTicketMarketPlace__AlreadyTicketOwner",
      "type": "error"
    },
    {
      "inputs": [],
      "name": "FestivalTicketMarketPlace__NewPriceNotMoreThan10Percent",
      "type": "error"
    },
    {
      "inputs": [],
      "name": "FestivalTicketMarketPlace__NftNotApprovedForMarketPlace",
      "type": "error"
    },
    {
      "inputs": [],
      "name": "FestivalTicketMarketPlace__NoMoreTicketsAvailable",
      "type": "error"
    },
    {
      "inputs": [
        {
          "internalType": "address",
          "name": "seller",
          "type": "address"
        }
      ],
      "name": "FestivalTicketMarketPlace__NotHaveSufficientAmount",
      "type": "error"
    },
    {
      "inputs": [],
      "name": "FestivalTicketMarketPlace__NotSufficientAmount",
      "type": "error"
    },
    {
      "inputs": [
        {
          "internalType": "uint256",
          "name": "tokenId",
          "type": "uint256"
        }
      ],
      "name": "FestivalTicketMarketPlace__NotTicketNFTOwner",
      "type": "error"
    },
    {
      "inputs": [],
      "name": "FestivalTicketMarketPlace__PriceCannotBeZero",
      "type": "error"
    },
    {
      "inputs": [
        {
          "internalType": "uint256",
          "name": "tokenId",
          "type": "uint256"
        }
      ],
      "name": "FestivalTicketMarketPlace__TicketAlreadyListed",
      "type": "error"
    },
    {
      "inputs": [],
      "name": "FestivalTicketMarketPlace__TicketNotListedToSale",
      "type": "error"
    },
    {
      "inputs": [],
      "name": "FestivalTicketMarketPlace__TokenTransferFailed",
      "type": "error"
    },
    {
      "inputs": [
        {
          "internalType": "address",
          "name": "seller",
          "type": "address"
        },
        {
          "internalType": "uint256",
          "name": "amount",
          "type": "uint256"
        }
      ],
      "name": "FestivalTicketMarketPlace__WithDrawFailed",
      "type": "error"
    },
    {
      "anonymous": false,
      "inputs": [
        {
          "indexed": true,
          "internalType": "address",
          "name": "seller",
          "type": "address"
        },
        {
          "indexed": false,
          "internalType": "uint256",
          "name": "amount",
          "type": "uint256"
        }
      ],
      "name": "AmountWithDrawn",
      "type": "event"
    },
    {
      "anonymous": false,
      "inputs": [
        {
          "indexed": true,
          "internalType": "address",
          "name": "owner",
          "type": "address"
        },
        {
          "indexed": true,
          "internalType": "address",
          "name": "approved",
          "type": "address"
        },
        {
          "indexed": true,
          "internalType": "uint256",
          "name": "tokenId",
          "type": "uint256"
        }
      ],
      "name": "Approval",
      "type": "event"
    },
    {
      "anonymous": false,
      "inputs": [
        {
          "indexed": true,
          "internalType": "address",
          "name": "owner",
          "type": "address"
        },
        {
          "indexed": true,
          "internalType": "address",
          "name": "operator",
          "type": "address"
        },
        {
          "indexed": false,
          "internalType": "bool",
          "name": "approved",
          "type": "bool"
        }
      ],
      "name": "ApprovalForAll",
      "type": "event"
    },
    {
      "anonymous": false,
      "inputs": [
        {
          "indexed": false,
          "internalType": "string",
          "name": "message",
          "type": "string"
        },
        {
          "indexed": false,
          "internalType": "uint256",
          "name": "value",
          "type": "uint256"
        }
      ],
      "name": "Log",
      "type": "event"
    },
    {
      "anonymous": false,
      "inputs": [
        {
          "indexed": true,
          "internalType": "address",
          "name": "previousOwner",
          "type": "address"
        },
        {
          "indexed": true,
          "internalType": "address",
          "name": "newOwner",
          "type": "address"
        }
      ],
      "name": "OwnershipTransferred",
      "type": "event"
    },
    {
      "anonymous": false,
      "inputs": [
        {
          "indexed": true,
          "internalType": "address",
          "name": "buyer",
          "type": "address"
        },
        {
          "indexed": true,
          "internalType": "uint256",
          "name": "ticketId",
          "type": "uint256"
        },
        {
          "indexed": false,
          "internalType": "uint256",
          "name": "amount",
          "type": "uint256"
        }
      ],
      "name": "TicketBought",
      "type": "event"
    },
    {
      "anonymous": false,
      "inputs": [
        {
          "indexed": true,
          "internalType": "uint256",
          "name": "ticketId",
          "type": "uint256"
        },
        {
          "indexed": true,
          "internalType": "address",
          "name": "seller",
          "type": "address"
        },
        {
          "indexed": false,
          "internalType": "uint256",
          "name": "price",
          "type": "uint256"
        }
      ],
      "name": "TicketListed",
      "type": "event"
    },
    {
      "anonymous": false,
      "inputs": [
        {
          "indexed": true,
          "internalType": "uint256",
          "name": "ticketId",
          "type": "uint256"
        },
        {
          "indexed": true,
          "internalType": "address",
          "name": "seller",
          "type": "address"
        },
        {
          "indexed": false,
          "internalType": "uint256",
          "name": "price",
          "type": "uint256"
        }
      ],
      "name": "TicketRemoved",
      "type": "event"
    },
    {
      "anonymous": false,
      "inputs": [
        {
          "indexed": true,
          "internalType": "uint256",
          "name": "ticketId",
          "type": "uint256"
        },
        {
          "indexed": true,
          "internalType": "address",
          "name": "seller",
          "type": "address"
        },
        {
          "indexed": false,
          "internalType": "uint256",
          "name": "price",
          "type": "uint256"
        }
      ],
      "name": "TicketUpdated",
      "type": "event"
    },
    {
      "anonymous": false,
      "inputs": [
        {
          "indexed": true,
          "internalType": "address",
          "name": "from",
          "type": "address"
        },
        {
          "indexed": true,
          "internalType": "address",
          "name": "to",
          "type": "address"
        },
        {
          "indexed": true,
          "internalType": "uint256",
          "name": "tokenId",
          "type": "uint256"
        }
      ],
      "name": "Transfer",
      "type": "event"
    },
    {
      "inputs": [
        {
          "internalType": "address",
          "name": "to",
          "type": "address"
        },
        {
          "internalType": "uint256",
          "name": "tokenId",
          "type": "uint256"
        }
      ],
      "name": "approve",
      "outputs": [],
      "stateMutability": "nonpayable",
      "type": "function"
    },
    {
      "inputs": [
        {
          "internalType": "address",
          "name": "owner",
          "type": "address"
        }
      ],
      "name": "balanceOf",
      "outputs": [
        {
          "internalType": "uint256",
          "name": "",
          "type": "uint256"
        }
      ],
      "stateMutability": "view",
      "type": "function"
    },
    {
      "inputs": [],
      "name": "buyTicket",
      "outputs": [
        {
          "internalType": "uint256",
          "name": "ticketId",
          "type": "uint256"
        }
      ],
      "stateMutability": "payable",
      "type": "function"
    },
    {
      "inputs": [
        {
          "internalType": "uint256",
          "name": "_ticketId",
          "type": "uint256"
        }
      ],
      "name": "buyTicketFromListing",
      "outputs": [],
      "stateMutability": "payable",
      "type": "function"
    },
    {
      "inputs": [
        {
          "internalType": "uint256",
          "name": "_ticketId",
          "type": "uint256"
        }
      ],
      "name": "cancelTicketListing",
      "outputs": [],
      "stateMutability": "nonpayable",
      "type": "function"
    },
    {
      "inputs": [],
      "name": "counter",
      "outputs": [
        {
          "internalType": "uint256",
          "name": "",
          "type": "uint256"
        }
      ],
      "stateMutability": "view",
      "type": "function"
    },
    {
      "inputs": [],
      "name": "festivalCurrencyTicket",
      "outputs": [
        {
          "internalType": "contract FestivalCurrencyTicket",
          "name": "",
          "type": "address"
        }
      ],
      "stateMutability": "view",
      "type": "function"
    },
    {
      "inputs": [
        {
          "internalType": "uint256",
          "name": "tokenId",
          "type": "uint256"
        }
      ],
      "name": "getApproved",
      "outputs": [
        {
          "internalType": "address",
          "name": "",
          "type": "address"
        }
      ],
      "stateMutability": "view",
      "type": "function"
    },
    {
      "inputs": [],
      "name": "getBalanceOfContract",
      "outputs": [
        {
          "internalType": "uint256",
          "name": "",
          "type": "uint256"
        }
      ],
      "stateMutability": "view",
      "type": "function"
    },
    {
      "inputs": [
        {
          "internalType": "address",
          "name": "seller",
          "type": "address"
        }
      ],
      "name": "getBalanceOfSeller",
      "outputs": [
        {
          "internalType": "uint256",
          "name": "",
          "type": "uint256"
        }
      ],
      "stateMutability": "view",
      "type": "function"
    },
    {
      "inputs": [],
      "name": "getFestivalCurrencyTicketAddress",
      "outputs": [
        {
          "internalType": "address",
          "name": "",
          "type": "address"
        }
      ],
      "stateMutability": "view",
      "type": "function"
    },
    {
      "inputs": [],
      "name": "getFestivalMarketPlaceAddress",
      "outputs": [
        {
          "internalType": "address",
          "name": "",
          "type": "address"
        }
      ],
      "stateMutability": "view",
      "type": "function"
    },
    {
      "inputs": [],
      "name": "getFestivalTicketNFTName",
      "outputs": [
        {
          "internalType": "string",
          "name": "",
          "type": "string"
        }
      ],
      "stateMutability": "view",
      "type": "function"
    },
    {
      "inputs": [
        {
          "internalType": "uint256",
          "name": "_ticketId",
          "type": "uint256"
        }
      ],
      "name": "getFestivalTicketNFTOwnerByTicketId",
      "outputs": [
        {
          "internalType": "address",
          "name": "",
          "type": "address"
        }
      ],
      "stateMutability": "view",
      "type": "function"
    },
    {
      "inputs": [
        {
          "internalType": "uint256",
          "name": "_ticketId",
          "type": "uint256"
        }
      ],
      "name": "getFestivalTicketNFTPrice",
      "outputs": [
        {
          "internalType": "uint256",
          "name": "",
          "type": "uint256"
        }
      ],
      "stateMutability": "view",
      "type": "function"
    },
    {
      "inputs": [],
      "name": "getFestivalTicketNFTSymbol",
      "outputs": [
        {
          "internalType": "string",
          "name": "",
          "type": "string"
        }
      ],
      "stateMutability": "view",
      "type": "function"
    },
    {
      "inputs": [],
      "name": "getOwner",
      "outputs": [
        {
          "internalType": "address",
          "name": "",
          "type": "address"
        }
      ],
      "stateMutability": "view",
      "type": "function"
    },
    {
      "inputs": [
        {
          "internalType": "address",
          "name": "user",
          "type": "address"
        }
      ],
      "name": "getTicketBalanceOfUser",
      "outputs": [
        {
          "internalType": "uint256",
          "name": "",
          "type": "uint256"
        }
      ],
      "stateMutability": "view",
      "type": "function"
    },
    {
      "inputs": [],
      "name": "getTicketListing",
      "outputs": [
        {
          "components": [
            {
              "internalType": "uint256",
              "name": "ticketId",
              "type": "uint256"
            },
            {
              "internalType": "address",
              "name": "seller",
              "type": "address"
            },
            {
              "internalType": "uint256",
              "name": "price",
              "type": "uint256"
            }
          ],
          "internalType": "struct FestivalTicketMarketPlace.TicketListing[]",
          "name": "",
          "type": "tuple[]"
        }
      ],
      "stateMutability": "view",
      "type": "function"
    },
    {
      "inputs": [],
      "name": "getTicketPrice",
      "outputs": [
        {
          "internalType": "uint256",
          "name": "",
          "type": "uint256"
        }
      ],
      "stateMutability": "view",
      "type": "function"
    },
    {
      "inputs": [
        {
          "internalType": "uint256",
          "name": "_ticketId",
          "type": "uint256"
        }
      ],
      "name": "getTicketPriceByTicketId",
      "outputs": [
        {
          "internalType": "uint256",
          "name": "",
          "type": "uint256"
        }
      ],
      "stateMutability": "view",
      "type": "function"
    },
    {
      "inputs": [],
      "name": "getTotalSoldTickets",
      "outputs": [
        {
          "internalType": "uint256",
          "name": "",
          "type": "uint256"
        }
      ],
      "stateMutability": "view",
      "type": "function"
    },
    {
      "inputs": [],
      "name": "getTotalTickets",
      "outputs": [
        {
          "internalType": "uint256",
          "name": "",
          "type": "uint256"
        }
      ],
      "stateMutability": "view",
      "type": "function"
    },
    {
      "inputs": [
        {
          "internalType": "address",
          "name": "owner",
          "type": "address"
        },
        {
          "internalType": "address",
          "name": "operator",
          "type": "address"
        }
      ],
      "name": "isApprovedForAll",
      "outputs": [
        {
          "internalType": "bool",
          "name": "",
          "type": "bool"
        }
      ],
      "stateMutability": "view",
      "type": "function"
    },
    {
      "inputs": [
        {
          "internalType": "uint256",
          "name": "_ticketId",
          "type": "uint256"
        },
        {
          "internalType": "uint256",
          "name": "_price",
          "type": "uint256"
        }
      ],
      "name": "listTicketForSale",
      "outputs": [],
      "stateMutability": "nonpayable",
      "type": "function"
    },
    {
      "inputs": [],
      "name": "name",
      "outputs": [
        {
          "internalType": "string",
          "name": "",
          "type": "string"
        }
      ],
      "stateMutability": "view",
      "type": "function"
    },
    {
      "inputs": [],
      "name": "owner",
      "outputs": [
        {
          "internalType": "address",
          "name": "",
          "type": "address"
        }
      ],
      "stateMutability": "view",
      "type": "function"
    },
    {
      "inputs": [
        {
          "internalType": "uint256",
          "name": "tokenId",
          "type": "uint256"
        }
      ],
      "name": "ownerOf",
      "outputs": [
        {
          "internalType": "address",
          "name": "",
          "type": "address"
        }
      ],
      "stateMutability": "view",
      "type": "function"
    },
    {
      "inputs": [],
      "name": "renounceOwnership",
      "outputs": [],
      "stateMutability": "nonpayable",
      "type": "function"
    },
    {
      "inputs": [
        {
          "internalType": "address",
          "name": "from",
          "type": "address"
        },
        {
          "internalType": "address",
          "name": "to",
          "type": "address"
        },
        {
          "internalType": "uint256",
          "name": "tokenId",
          "type": "uint256"
        }
      ],
      "name": "safeTransferFrom",
      "outputs": [],
      "stateMutability": "nonpayable",
      "type": "function"
    },
    {
      "inputs": [
        {
          "internalType": "address",
          "name": "from",
          "type": "address"
        },
        {
          "internalType": "address",
          "name": "to",
          "type": "address"
        },
        {
          "internalType": "uint256",
          "name": "tokenId",
          "type": "uint256"
        },
        {
          "internalType": "bytes",
          "name": "data",
          "type": "bytes"
        }
      ],
      "name": "safeTransferFrom",
      "outputs": [],
      "stateMutability": "nonpayable",
      "type": "function"
    },
    {
      "inputs": [
        {
          "internalType": "address",
          "name": "operator",
          "type": "address"
        },
        {
          "internalType": "bool",
          "name": "approved",
          "type": "bool"
        }
      ],
      "name": "setApprovalForAll",
      "outputs": [],
      "stateMutability": "nonpayable",
      "type": "function"
    },
    {
      "inputs": [
        {
          "internalType": "bytes4",
          "name": "interfaceId",
          "type": "bytes4"
        }
      ],
      "name": "supportsInterface",
      "outputs": [
        {
          "internalType": "bool",
          "name": "",
          "type": "bool"
        }
      ],
      "stateMutability": "view",
      "type": "function"
    },
    {
      "inputs": [],
      "name": "symbol",
      "outputs": [
        {
          "internalType": "string",
          "name": "",
          "type": "string"
        }
      ],
      "stateMutability": "view",
      "type": "function"
    },
    {
      "inputs": [
        {
          "internalType": "uint256",
          "name": "",
          "type": "uint256"
        }
      ],
      "name": "ticketListings",
      "outputs": [
        {
          "internalType": "uint256",
          "name": "ticketId",
          "type": "uint256"
        },
        {
          "internalType": "address",
          "name": "seller",
          "type": "address"
        },
        {
          "internalType": "uint256",
          "name": "price",
          "type": "uint256"
        }
      ],
      "stateMutability": "view",
      "type": "function"
    },
    {
      "inputs": [],
      "name": "ticketPrice",
      "outputs": [
        {
          "internalType": "uint256",
          "name": "",
          "type": "uint256"
        }
      ],
      "stateMutability": "view",
      "type": "function"
    },
    {
      "inputs": [],
      "name": "ticketSold",
      "outputs": [
        {
          "internalType": "uint256",
          "name": "",
          "type": "uint256"
        }
      ],
      "stateMutability": "view",
      "type": "function"
    },
    {
      "inputs": [
        {
          "internalType": "uint256",
          "name": "tokenId",
          "type": "uint256"
        }
      ],
      "name": "tokenURI",
      "outputs": [
        {
          "internalType": "string",
          "name": "",
          "type": "string"
        }
      ],
      "stateMutability": "view",
      "type": "function"
    },
    {
      "inputs": [
        {
          "internalType": "address",
          "name": "from",
          "type": "address"
        },
        {
          "internalType": "address",
          "name": "to",
          "type": "address"
        },
        {
          "internalType": "uint256",
          "name": "tokenId",
          "type": "uint256"
        }
      ],
      "name": "transferFrom",
      "outputs": [],
      "stateMutability": "nonpayable",
      "type": "function"
    },
    {
      "inputs": [
        {
          "internalType": "address",
          "name": "newOwner",
          "type": "address"
        }
      ],
      "name": "transferOwnership",
      "outputs": [],
      "stateMutability": "nonpayable",
      "type": "function"
    },
    {
      "inputs": [],
      "name": "updateCounter",
      "outputs": [],
      "stateMutability": "payable",
      "type": "function"
    },
    {
      "inputs": [
        {
          "internalType": "uint256",
          "name": "_ticketId",
          "type": "uint256"
        },
        {
          "internalType": "uint256",
          "name": "_newPrice",
          "type": "uint256"
        }
      ],
      "name": "updateTicketPrice",
      "outputs": [],
      "stateMutability": "nonpayable",
      "type": "function"
    },
    {
      "inputs": [],
      "name": "withdrawBalance",
      "outputs": [
        {
          "internalType": "bool",
          "name": "",
          "type": "bool"
        }
      ],
      "stateMutability": "nonpayable",
      "type": "function"
    }
  ],
  "transactionHash": "0xfb28de5dc72b3c0ed29d4312f34e689777a0d28e6e78f0efa830e1ae7b798d41",
  "args": [
    "100000000000000000",
    "FestivalCurrencyTicket",
    "FCT",
    1000
  ],
  "numDeployments": 1,
  "solcInputHash": "62a73941b6b6ff7e87ef22c0612b7614",
  "bytecode": "0x60a06040526000600a556000600f553480156200001b57600080fd5b5060405162006fae38038062006fae83398181016040528101906200004191906200045a565b828281600090805190602001906200005b92919062000307565b5080600190805190602001906200007492919062000307565b505050620000976200008b6200023960201b60201c565b6200024160201b60201c565b6001600781905550808383604051620000b09062000398565b620000be939291906200058a565b604051809103906000f080158015620000db573d6000803e3d6000fd5b50600860006101000a81548173ffffffffffffffffffffffffffffffffffffffff021916908373ffffffffffffffffffffffffffffffffffffffff16021790555083600981905550806080818152505082600b90805190602001906200014392919062000307565b5081600c90805190602001906200015c92919062000307565b5033600e60006101000a81548173ffffffffffffffffffffffffffffffffffffffff021916908373ffffffffffffffffffffffffffffffffffffffff160217905550600860009054906101000a900473ffffffffffffffffffffffffffffffffffffffff1673ffffffffffffffffffffffffffffffffffffffff1663096cb2ce306040518263ffffffff1660e01b8152600401620001fb91906200056d565b600060405180830381600087803b1580156200021657600080fd5b505af11580156200022b573d6000803e3d6000fd5b5050505050505050620007cd565b600033905090565b6000600660009054906101000a900473ffffffffffffffffffffffffffffffffffffffff16905081600660006101000a81548173ffffffffffffffffffffffffffffffffffffffff021916908373ffffffffffffffffffffffffffffffffffffffff1602179055508173ffffffffffffffffffffffffffffffffffffffff168173ffffffffffffffffffffffffffffffffffffffff167f8be0079c531659141344cd1fd0a4f28419497f9722a3daafe3b4186f6b6457e060405160405180910390a35050565b8280546200031590620006c4565b90600052602060002090601f01602090048101928262000339576000855562000385565b82601f106200035457805160ff191683800117855562000385565b8280016001018555821562000385579182015b828111156200038457825182559160200191906001019062000367565b5b509050620003949190620003a6565b5090565b611ba3806200540b83390190565b5b80821115620003c1576000816000905550600101620003a7565b5090565b6000620003dc620003d684620005fe565b620005d5565b905082815260208101848484011115620003fb57620003fa62000793565b5b620004088482856200068e565b509392505050565b600082601f8301126200042857620004276200078e565b5b81516200043a848260208601620003c5565b91505092915050565b6000815190506200045481620007b3565b92915050565b600080600080608085870312156200047757620004766200079d565b5b6000620004878782880162000443565b945050602085015167ffffffffffffffff811115620004ab57620004aa62000798565b5b620004b98782880162000410565b935050604085015167ffffffffffffffff811115620004dd57620004dc62000798565b5b620004eb8782880162000410565b9250506060620004fe8782880162000443565b91505092959194509250565b620005158162000650565b82525050565b6000620005288262000634565b6200053481856200063f565b9350620005468185602086016200068e565b6200055181620007a2565b840191505092915050565b620005678162000684565b82525050565b60006020820190506200058460008301846200050a565b92915050565b6000606082019050620005a160008301866200055c565b8181036020830152620005b581856200051b565b90508181036040830152620005cb81846200051b565b9050949350505050565b6000620005e1620005f4565b9050620005ef8282620006fa565b919050565b6000604051905090565b600067ffffffffffffffff8211156200061c576200061b6200075f565b5b6200062782620007a2565b9050602081019050919050565b600081519050919050565b600082825260208201905092915050565b60006200065d8262000664565b9050919050565b600073ffffffffffffffffffffffffffffffffffffffff82169050919050565b6000819050919050565b60005b83811015620006ae57808201518184015260208101905062000691565b83811115620006be576000848401525b50505050565b60006002820490506001821680620006dd57607f821691505b60208210811415620006f457620006f362000730565b5b50919050565b6200070582620007a2565b810181811067ffffffffffffffff821117156200072757620007266200075f565b5b80604052505050565b7f4e487b7100000000000000000000000000000000000000000000000000000000600052602260045260246000fd5b7f4e487b7100000000000000000000000000000000000000000000000000000000600052604160045260246000fd5b600080fd5b600080fd5b600080fd5b600080fd5b6000601f19601f8301169050919050565b620007be8162000684565b8114620007ca57600080fd5b50565b608051614c1b620007f060003960008181610af7015261257f0152614c1b6000f3fe60806040526004361061025c5760003560e01c80637014307911610144578063a46453b6116100b6578063d524d32d1161007a578063d524d32d1461090b578063e6fc76b914610934578063e97b43b614610971578063e985e9c51461098d578063edca914c146109ca578063f2fde38b146109e85761025c565b8063a46453b614610824578063a9f0962c1461084f578063b88d4fde1461087a578063c87b56dd146108a3578063c8aaf8ab146108e05761025c565b806387bb7ae01161010857806387bb7ae014610712578063893d20e81461073d5780638da5cb5b1461076857806394611c371461079357806395d89b41146107d0578063a22cb465146107fb5761025c565b8063701430791461062b57806370a0823114610668578063715018a6146106a55780637aa5e2fc146106bc578063849a5a3c146106e75761025c565b806323b872dd116101dd57806352b3ead0116101a157806352b3ead0146104f35780635fd8c7101461051e5780636084e59c1461054957806361bc221a146105865780636352211e146105b157806368eed16c146105ee5761025c565b806323b872dd146104225780632c49f35e1461044b57806342842e0e146104745780634667073d1461049d578063485cc439146104c85761025c565b8063095ea7b311610224578063095ea7b3146103705780631209b1f61461039957806313c8c359146103c45780631687fe8e146103ed57806322968885146103f75761025c565b806301ffc9a71461026157806306e8337f1461029e57806306fdde03146102c9578063081812fc146102f45780630884f65914610331575b600080fd5b34801561026d57600080fd5b5061028860048036038101906102839190613b28565b610a11565b6040516102959190614155565b60405180910390f35b3480156102aa57600080fd5b506102b3610af3565b6040516102c09190614396565b60405180910390f35b3480156102d557600080fd5b506102de610b1b565b6040516102eb91906141a6565b60405180910390f35b34801561030057600080fd5b5061031b60048036038101906103169190613b82565b610bad565b6040516103289190614035565b60405180910390f35b34801561033d57600080fd5b5061035860048036038101906103539190613b82565b610bf3565b604051610367939291906143b1565b60405180910390f35b34801561037c57600080fd5b5061039760048036038101906103929190613abb565b610c4d565b005b3480156103a557600080fd5b506103ae610d65565b6040516103bb9190614396565b60405180910390f35b3480156103d057600080fd5b506103eb60048036038101906103e69190613b82565b610d6b565b005b6103f5610fa5565b005b34801561040357600080fd5b5061040c610fe0565b6040516104199190614396565b60405180910390f35b34801561042e57600080fd5b50610449600480360381019061044491906139a5565b610fe8565b005b34801561045757600080fd5b50610472600480360381019061046d9190613bdc565b611048565b005b34801561048057600080fd5b5061049b600480360381019061049691906139a5565b611304565b005b3480156104a957600080fd5b506104b2611324565b6040516104bf91906141a6565b60405180910390f35b3480156104d457600080fd5b506104dd6113b6565b6040516104ea9190614396565b60405180910390f35b3480156104ff57600080fd5b506105086113bc565b6040516105159190614035565b60405180910390f35b34801561052a57600080fd5b506105336113e6565b6040516105409190614155565b60405180910390f35b34801561055557600080fd5b50610570600480360381019061056b9190613b82565b6115bc565b60405161057d9190614035565b60405180910390f35b34801561059257600080fd5b5061059b6115ce565b6040516105a89190614396565b60405180910390f35b3480156105bd57600080fd5b506105d860048036038101906105d39190613b82565b6115d4565b6040516105e59190614035565b60405180910390f35b3480156105fa57600080fd5b506106156004803603810190610610919061390b565b61165b565b6040516106229190614396565b60405180910390f35b34801561063757600080fd5b50610652600480360381019061064d9190613b82565b61170f565b60405161065f9190614396565b60405180910390f35b34801561067457600080fd5b5061068f600480360381019061068a919061390b565b6117aa565b60405161069c9190614396565b60405180910390f35b3480156106b157600080fd5b506106ba611862565b005b3480156106c857600080fd5b506106d1611876565b6040516106de91906141a6565b60405180910390f35b3480156106f357600080fd5b506106fc611908565b6040516107099190614396565b60405180910390f35b34801561071e57600080fd5b50610727611912565b6040516107349190614396565b60405180910390f35b34801561074957600080fd5b5061075261191c565b60405161075f9190614035565b60405180910390f35b34801561077457600080fd5b5061077d611946565b60405161078a9190614035565b60405180910390f35b34801561079f57600080fd5b506107ba60048036038101906107b5919061390b565b611970565b6040516107c79190614396565b60405180910390f35b3480156107dc57600080fd5b506107e56119b9565b6040516107f291906141a6565b60405180910390f35b34801561080757600080fd5b50610822600480360381019061081d9190613a7b565b611a4b565b005b34801561083057600080fd5b50610839611a61565b6040516108469190614170565b60405180910390f35b34801561085b57600080fd5b50610864611a87565b6040516108719190614035565b60405180910390f35b34801561088657600080fd5b506108a1600480360381019061089c91906139f8565b611a8f565b005b3480156108af57600080fd5b506108ca60048036038101906108c59190613b82565b611af1565b6040516108d791906141a6565b60405180910390f35b3480156108ec57600080fd5b506108f5611b59565b6040516109029190614133565b60405180910390f35b34801561091757600080fd5b50610932600480360381019061092d9190613bdc565b611c22565b005b34801561094057600080fd5b5061095b60048036038101906109569190613b82565b612026565b6040516109689190614396565b60405180910390f35b61098b60048036038101906109869190613b82565b612043565b005b34801561099957600080fd5b506109b460048036038101906109af9190613965565b6124e7565b6040516109c19190614155565b60405180910390f35b6109d261257b565b6040516109df9190614396565b60405180910390f35b3480156109f457600080fd5b50610a0f6004803603810190610a0a919061390b565b6127a6565b005b60007f80ac58cd000000000000000000000000000000000000000000000000000000007bffffffffffffffffffffffffffffffffffffffffffffffffffffffff1916827bffffffffffffffffffffffffffffffffffffffffffffffffffffffff19161480610adc57507f5b5e139f000000000000000000000000000000000000000000000000000000007bffffffffffffffffffffffffffffffffffffffffffffffffffffffff1916827bffffffffffffffffffffffffffffffffffffffffffffffffffffffff1916145b80610aec5750610aeb8261282a565b5b9050919050565b60007f0000000000000000000000000000000000000000000000000000000000000000905090565b606060008054610b2a9061465c565b80601f0160208091040260200160405190810160405280929190818152602001828054610b569061465c565b8015610ba35780601f10610b7857610100808354040283529160200191610ba3565b820191906000526020600020905b815481529060010190602001808311610b8657829003601f168201915b5050505050905090565b6000610bb882612894565b6004600083815260200190815260200160002060009054906101000a900473ffffffffffffffffffffffffffffffffffffffff169050919050565b600d8181548110610c0357600080fd5b90600052602060002090600302016000915090508060000154908060010160009054906101000a900473ffffffffffffffffffffffffffffffffffffffff16908060020154905083565b6000610c58826115d4565b90508073ffffffffffffffffffffffffffffffffffffffff168373ffffffffffffffffffffffffffffffffffffffff161415610cc9576040517f08c379a0000000000000000000000000000000000000000000000000000000008152600401610cc090614328565b60405180910390fd5b8073ffffffffffffffffffffffffffffffffffffffff16610ce86128df565b73ffffffffffffffffffffffffffffffffffffffff161480610d175750610d1681610d116128df565b6124e7565b5b610d56576040517f08c379a0000000000000000000000000000000000000000000000000000000008152600401610d4d90614348565b60405180910390fd5b610d6083836128e7565b505050565b60095481565b803373ffffffffffffffffffffffffffffffffffffffff16610d8c826115d4565b73ffffffffffffffffffffffffffffffffffffffff1614610de457806040517f86168db9000000000000000000000000000000000000000000000000000000008152600401610ddb9190614396565b60405180910390fd5b81338073ffffffffffffffffffffffffffffffffffffffff16610e06836115d4565b73ffffffffffffffffffffffffffffffffffffffff1614610e5e57816040517f86168db9000000000000000000000000000000000000000000000000000000008152600401610e559190614396565b60405180910390fd5b610e67846129a0565b610e9d576040517f102d993a00000000000000000000000000000000000000000000000000000000815260040160405180910390fd5b60005b600d80549050811015610f4e5784600d8281548110610ec257610ec1614795565b5b9060005260206000209060030201600001541415610f3b57600d8181548110610eee57610eed614795565b5b90600052602060002090600302016000808201600090556001820160006101000a81549073ffffffffffffffffffffffffffffffffffffffff021916905560028201600090555050610f4e565b8080610f46906146bf565b915050610ea0565b503373ffffffffffffffffffffffffffffffffffffffff16847ffe5eaede61dc828c5725b380b313912335bfd41aabe5bc86114139f2bbc7ab9e6000604051610f97919061418b565b60405180910390a350505050565b7fdd970dd9b5bfe707922155b058a407655cb18288b807e2216442bca8ad83d6b5600f54604051610fd69190614368565b60405180910390a1565b600047905090565b610ff9610ff36128df565b82612a3a565b611038576040517f08c379a000000000000000000000000000000000000000000000000000000000815260040161102f906141c8565b60405180910390fd5b611043838383612acf565b505050565b813373ffffffffffffffffffffffffffffffffffffffff16611069826115d4565b73ffffffffffffffffffffffffffffffffffffffff16146110c157806040517f86168db90000000000000000000000000000000000000000000000000000000081526004016110b89190614396565b60405180910390fd5b82338073ffffffffffffffffffffffffffffffffffffffff166110e3836115d4565b73ffffffffffffffffffffffffffffffffffffffff161461113b57816040517f86168db90000000000000000000000000000000000000000000000000000000081526004016111329190614396565b60405180910390fd5b84846000601060008481526020019081526020016000205490506000600a82611164919061451b565b90506000818361117491906144c5565b9050808411156111b0576040517fd14c838200000000000000000000000000000000000000000000000000000000815260040160405180910390fd5b600089116111ea576040517f2db9b9aa00000000000000000000000000000000000000000000000000000000815260040160405180910390fd5b6111f38a6129a0565b611229576040517f102d993a00000000000000000000000000000000000000000000000000000000815260040160405180910390fd5b60005b600d805490508110156112a8578a600d828154811061124e5761124d614795565b5b90600052602060002090600302016000015414156112955789600d828154811061127b5761127a614795565b5b9060005260206000209060030201600201819055506112a8565b80806112a0906146bf565b91505061122c565b503373ffffffffffffffffffffffffffffffffffffffff168a7f032c557b7e578309200abcf182dfdd87766f7ef0a71891b34a11a3f3918f54a98b6040516112f09190614396565b60405180910390a350505050505050505050565b61131f83838360405180602001604052806000815250611a8f565b505050565b6060600c80546113339061465c565b80601f016020809104026020016040519081016040528092919081815260200182805461135f9061465c565b80156113ac5780601f10611381576101008083540402835291602001916113ac565b820191906000526020600020905b81548152906001019060200180831161138f57829003601f168201915b5050505050905090565b600a5481565b6000600860009054906101000a900473ffffffffffffffffffffffffffffffffffffffff16905090565b600080601160003373ffffffffffffffffffffffffffffffffffffffff1673ffffffffffffffffffffffffffffffffffffffff1681526020019081526020016000205490506000811161147057336040517f4fd967560000000000000000000000000000000000000000000000000000000081526004016114679190614035565b60405180910390fd5b6000601160003373ffffffffffffffffffffffffffffffffffffffff1673ffffffffffffffffffffffffffffffffffffffff1681526020019081526020016000208190555060003373ffffffffffffffffffffffffffffffffffffffff16826040516114db90614020565b60006040518083038185875af1925050503d8060008114611518576040519150601f19603f3d011682016040523d82523d6000602084013e61151d565b606091505b50509050806115655733826040517f21e614b300000000000000000000000000000000000000000000000000000000815260040161155c92919061410a565b60405180910390fd5b3373ffffffffffffffffffffffffffffffffffffffff167f5969688dc383c65fbe5c8b103cb414fb54bff02dd6f9309c49a8f265d78b321b836040516115ab9190614396565b60405180910390a260019250505090565b60006115c7826115d4565b9050919050565b600f5481565b6000806115e083612dc9565b9050600073ffffffffffffffffffffffffffffffffffffffff168173ffffffffffffffffffffffffffffffffffffffff161415611652576040517f08c379a000000000000000000000000000000000000000000000000000000000815260040161164990614308565b60405180910390fd5b80915050919050565b6000600860009054906101000a900473ffffffffffffffffffffffffffffffffffffffff1673ffffffffffffffffffffffffffffffffffffffff166370a08231836040518263ffffffff1660e01b81526004016116b89190614035565b60206040518083038186803b1580156116d057600080fd5b505afa1580156116e4573d6000803e3d6000fd5b505050506040513d601f19601f820116820180604052508101906117089190613baf565b9050919050565b60008060005b600d8054905081101561178b5783600d828154811061173757611736614795565b5b906000526020600020906003020160000154141561177857600d818154811061176357611762614795565b5b90600052602060002090600302016002015491505b8080611783906146bf565b915050611715565b5060008114156117a0576009549150506117a5565b809150505b919050565b60008073ffffffffffffffffffffffffffffffffffffffff168273ffffffffffffffffffffffffffffffffffffffff16141561181b576040517f08c379a0000000000000000000000000000000000000000000000000000000008152600401611812906142a8565b60405180910390fd5b600360008373ffffffffffffffffffffffffffffffffffffffff1673ffffffffffffffffffffffffffffffffffffffff168152602001908152602001600020549050919050565b61186a612e06565b6118746000612e84565b565b6060600b80546118859061465c565b80601f01602080910402602001604051908101604052809291908181526020018280546118b19061465c565b80156118fe5780601f106118d3576101008083540402835291602001916118fe565b820191906000526020600020905b8154815290600101906020018083116118e157829003601f168201915b5050505050905090565b6000600a54905090565b6000600954905090565b6000600e60009054906101000a900473ffffffffffffffffffffffffffffffffffffffff16905090565b6000600660009054906101000a900473ffffffffffffffffffffffffffffffffffffffff16905090565b6000601160008373ffffffffffffffffffffffffffffffffffffffff1673ffffffffffffffffffffffffffffffffffffffff168152602001908152602001600020549050919050565b6060600180546119c89061465c565b80601f01602080910402602001604051908101604052809291908181526020018280546119f49061465c565b8015611a415780601f10611a1657610100808354040283529160200191611a41565b820191906000526020600020905b815481529060010190602001808311611a2457829003601f168201915b5050505050905090565b611a5d611a566128df565b8383612f4a565b5050565b600860009054906101000a900473ffffffffffffffffffffffffffffffffffffffff1681565b600030905090565b611aa0611a9a6128df565b83612a3a565b611adf576040517f08c379a0000000000000000000000000000000000000000000000000000000008152600401611ad6906141c8565b60405180910390fd5b611aeb848484846130b7565b50505050565b6060611afc82612894565b6000611b06613113565b90506000815111611b265760405180602001604052806000815250611b51565b80611b308461312a565b604051602001611b41929190613ffc565b6040516020818303038152906040525b915050919050565b6060600d805480602002602001604051908101604052809291908181526020016000905b82821015611c195783829060005260206000209060030201604051806060016040529081600082015481526020016001820160009054906101000a900473ffffffffffffffffffffffffffffffffffffffff1673ffffffffffffffffffffffffffffffffffffffff1673ffffffffffffffffffffffffffffffffffffffff16815260200160028201548152505081526020019060010190611b7d565b50505050905090565b813373ffffffffffffffffffffffffffffffffffffffff16611c43826115d4565b73ffffffffffffffffffffffffffffffffffffffff1614611c9b57806040517f86168db9000000000000000000000000000000000000000000000000000000008152600401611c929190614396565b60405180910390fd5b82338073ffffffffffffffffffffffffffffffffffffffff16611cbd836115d4565b73ffffffffffffffffffffffffffffffffffffffff1614611d1557816040517f86168db9000000000000000000000000000000000000000000000000000000008152600401611d0c9190614396565b60405180910390fd5b84846000601060008481526020019081526020016000205490506000600a82611d3e919061451b565b905060008183611d4e91906144c5565b905080841115611d8a576040517fd14c838200000000000000000000000000000000000000000000000000000000815260040160405180910390fd5b60008911611dc4576040517f2db9b9aa00000000000000000000000000000000000000000000000000000000815260040160405180910390fd5b611dcd8a6129a0565b15611e0f57896040517fa0ba24a5000000000000000000000000000000000000000000000000000000008152600401611e069190614396565b60405180910390fd5b611e19308b610c4d565b60003090503073ffffffffffffffffffffffffffffffffffffffff168173ffffffffffffffffffffffffffffffffffffffff1663081812fc8d6040518263ffffffff1660e01b8152600401611e6e9190614396565b60206040518083038186803b158015611e8657600080fd5b505afa158015611e9a573d6000803e3d6000fd5b505050506040513d601f19601f82011682018060405250810190611ebe9190613938565b73ffffffffffffffffffffffffffffffffffffffff1614611f0b576040517f57df683d00000000000000000000000000000000000000000000000000000000815260040160405180910390fd5b600060405180606001604052808d81526020013373ffffffffffffffffffffffffffffffffffffffff1681526020018c8152509050600d8190806001815401808255809150506001900390600052602060002090600302016000909190919091506000820151816000015560208201518160010160006101000a81548173ffffffffffffffffffffffffffffffffffffffff021916908373ffffffffffffffffffffffffffffffffffffffff1602179055506040820151816002015550503373ffffffffffffffffffffffffffffffffffffffff168c7f22968ec3be3687b180f3544163a034b88d57b48159d9a7e9a1b610fdb2d05f808d6040516120109190614396565b60405180910390a3505050505050505050505050565b600060106000838152602001908152602001600020549050919050565b600034141561207e576040517f57d0e34f00000000000000000000000000000000000000000000000000000000815260040160405180910390fd5b60008060005b600d805490508110156121425783600d82815481106120a6576120a5614795565b5b906000526020600020906003020160000154141561212f57600d81815481106120d2576120d1614795565b5b9060005260206000209060030201600201549250600d81815481106120fa576120f9614795565b5b906000526020600020906003020160010160009054906101000a900473ffffffffffffffffffffffffffffffffffffffff1691505b808061213a906146bf565b915050612084565b50600082141561217e576040517f102d993a00000000000000000000000000000000000000000000000000000000815260040160405180910390fd5b3373ffffffffffffffffffffffffffffffffffffffff168173ffffffffffffffffffffffffffffffffffffffff1614156121ef57826040517f14e41f360000000000000000000000000000000000000000000000000000000081526004016121e69190614396565b60405180910390fd5b813414612228576040517f57d0e34f00000000000000000000000000000000000000000000000000000000815260040160405180910390fd5b6000600860009054906101000a900473ffffffffffffffffffffffffffffffffffffffff1673ffffffffffffffffffffffffffffffffffffffff166323b872dd833360016040518463ffffffff1660e01b815260040161228a93929190614050565b602060405180830381600087803b1580156122a457600080fd5b505af11580156122b8573d6000803e3d6000fd5b505050506040513d601f19601f820116820180604052508101906122dc9190613afb565b905080612315576040517fc09aff6600000000000000000000000000000000000000000000000000000000815260040160405180910390fd5b60003090508073ffffffffffffffffffffffffffffffffffffffff166342842e0e8433886040518463ffffffff1660e01b815260040161235793929190614087565b600060405180830381600087803b15801561237157600080fd5b505af1158015612385573d6000803e3d6000fd5b5050505060005b600d8054905081101561243a5785600d82815481106123ae576123ad614795565b5b906000526020600020906003020160000154141561242757600d81815481106123da576123d9614795565b5b90600052602060002090600302016000808201600090556001820160006101000a81549073ffffffffffffffffffffffffffffffffffffffff02191690556002820160009055505061243a565b8080612432906146bf565b91505061238c565b5083601160008573ffffffffffffffffffffffffffffffffffffffff1673ffffffffffffffffffffffffffffffffffffffff168152602001908152602001600020600082825461248a91906144c5565b92505081905550843373ffffffffffffffffffffffffffffffffffffffff167f97fac0ce6558f4accbb4696915809c0ef7023ffe7ba9454e94d49fb652aae1d5346040516124d89190614396565b60405180910390a35050505050565b6000600560008473ffffffffffffffffffffffffffffffffffffffff1673ffffffffffffffffffffffffffffffffffffffff16815260200190815260200160002060008373ffffffffffffffffffffffffffffffffffffffff1673ffffffffffffffffffffffffffffffffffffffff16815260200190815260200160002060009054906101000a900460ff16905092915050565b60007f0000000000000000000000000000000000000000000000000000000000000000600a54106125d8576040517f8d1b6bfb00000000000000000000000000000000000000000000000000000000815260040160405180910390fd5b6009543414612613576040517f57d0e34f00000000000000000000000000000000000000000000000000000000815260040160405180910390fd5b6000600190506000600860009054906101000a900473ffffffffffffffffffffffffffffffffffffffff1673ffffffffffffffffffffffffffffffffffffffff166323b872dd3033856040518463ffffffff1660e01b815260040161267a93929190614087565b602060405180830381600087803b15801561269457600080fd5b505af11580156126a8573d6000803e3d6000fd5b505050506040513d601f19601f820116820180604052508101906126cc9190613afb565b905080612705576040517fc09aff6600000000000000000000000000000000000000000000000000000000815260040160405180910390fd5b6001600a5461271491906144c5565b9250600a6000815480929190612729906146bf565b919050555060095460106000858152602001908152602001600020819055506127523384613202565b823373ffffffffffffffffffffffffffffffffffffffff167f97fac0ce6558f4accbb4696915809c0ef7023ffe7ba9454e94d49fb652aae1d5346040516127999190614396565b60405180910390a3505090565b6127ae612e06565b600073ffffffffffffffffffffffffffffffffffffffff168173ffffffffffffffffffffffffffffffffffffffff16141561281e576040517f08c379a000000000000000000000000000000000000000000000000000000000815260040161281590614208565b60405180910390fd5b61282781612e84565b50565b60007f01ffc9a7000000000000000000000000000000000000000000000000000000007bffffffffffffffffffffffffffffffffffffffffffffffffffffffff1916827bffffffffffffffffffffffffffffffffffffffffffffffffffffffff1916149050919050565b61289d81613220565b6128dc576040517f08c379a00000000000000000000000000000000000000000000000000000000081526004016128d390614308565b60405180910390fd5b50565b600033905090565b816004600083815260200190815260200160002060006101000a81548173ffffffffffffffffffffffffffffffffffffffff021916908373ffffffffffffffffffffffffffffffffffffffff160217905550808273ffffffffffffffffffffffffffffffffffffffff1661295a836115d4565b73ffffffffffffffffffffffffffffffffffffffff167f8c5be1e5ebec7d5bd14f71427d1e84f3dd0314c0f7b2291e5b200ac8c7c3b92560405160405180910390a45050565b60008060005b600d80549050811015612a1c5783600d82815481106129c8576129c7614795565b5b9060005260206000209060030201600001541415612a0957600d81815481106129f4576129f3614795565b5b90600052602060002090600302016000015491505b8080612a14906146bf565b9150506129a6565b5060008114612a2f576001915050612a35565b60009150505b919050565b600080612a46836115d4565b90508073ffffffffffffffffffffffffffffffffffffffff168473ffffffffffffffffffffffffffffffffffffffff161480612a885750612a8781856124e7565b5b80612ac657508373ffffffffffffffffffffffffffffffffffffffff16612aae84610bad565b73ffffffffffffffffffffffffffffffffffffffff16145b91505092915050565b8273ffffffffffffffffffffffffffffffffffffffff16612aef826115d4565b73ffffffffffffffffffffffffffffffffffffffff1614612b45576040517f08c379a0000000000000000000000000000000000000000000000000000000008152600401612b3c90614228565b60405180910390fd5b600073ffffffffffffffffffffffffffffffffffffffff168273ffffffffffffffffffffffffffffffffffffffff161415612bb5576040517f08c379a0000000000000000000000000000000000000000000000000000000008152600401612bac90614268565b60405180910390fd5b612bc28383836001613261565b8273ffffffffffffffffffffffffffffffffffffffff16612be2826115d4565b73ffffffffffffffffffffffffffffffffffffffff1614612c38576040517f08c379a0000000000000000000000000000000000000000000000000000000008152600401612c2f90614228565b60405180910390fd5b6004600082815260200190815260200160002060006101000a81549073ffffffffffffffffffffffffffffffffffffffff02191690556001600360008573ffffffffffffffffffffffffffffffffffffffff1673ffffffffffffffffffffffffffffffffffffffff168152602001908152602001600020600082825403925050819055506001600360008473ffffffffffffffffffffffffffffffffffffffff1673ffffffffffffffffffffffffffffffffffffffff16815260200190815260200160002060008282540192505081905550816002600083815260200190815260200160002060006101000a81548173ffffffffffffffffffffffffffffffffffffffff021916908373ffffffffffffffffffffffffffffffffffffffff160217905550808273ffffffffffffffffffffffffffffffffffffffff168473ffffffffffffffffffffffffffffffffffffffff167fddf252ad1be2c89b69c2b068fc378daa952ba7f163c4a11628f55a4df523b3ef60405160405180910390a4612dc48383836001613267565b505050565b60006002600083815260200190815260200160002060009054906101000a900473ffffffffffffffffffffffffffffffffffffffff169050919050565b612e0e6128df565b73ffffffffffffffffffffffffffffffffffffffff16612e2c611946565b73ffffffffffffffffffffffffffffffffffffffff1614612e82576040517f08c379a0000000000000000000000000000000000000000000000000000000008152600401612e79906142e8565b60405180910390fd5b565b6000600660009054906101000a900473ffffffffffffffffffffffffffffffffffffffff16905081600660006101000a81548173ffffffffffffffffffffffffffffffffffffffff021916908373ffffffffffffffffffffffffffffffffffffffff1602179055508173ffffffffffffffffffffffffffffffffffffffff168173ffffffffffffffffffffffffffffffffffffffff167f8be0079c531659141344cd1fd0a4f28419497f9722a3daafe3b4186f6b6457e060405160405180910390a35050565b8173ffffffffffffffffffffffffffffffffffffffff168373ffffffffffffffffffffffffffffffffffffffff161415612fb9576040517f08c379a0000000000000000000000000000000000000000000000000000000008152600401612fb090614288565b60405180910390fd5b80600560008573ffffffffffffffffffffffffffffffffffffffff1673ffffffffffffffffffffffffffffffffffffffff16815260200190815260200160002060008473ffffffffffffffffffffffffffffffffffffffff1673ffffffffffffffffffffffffffffffffffffffff16815260200190815260200160002060006101000a81548160ff0219169083151502179055508173ffffffffffffffffffffffffffffffffffffffff168373ffffffffffffffffffffffffffffffffffffffff167f17307eab39ab6107e8899845ad3d59bd9653f200f220920489ca2b5937696c31836040516130aa9190614155565b60405180910390a3505050565b6130c2848484612acf565b6130ce8484848461326d565b61310d576040517f08c379a0000000000000000000000000000000000000000000000000000000008152600401613104906141e8565b60405180910390fd5b50505050565b606060405180602001604052806000815250905090565b60606000600161313984613404565b01905060008167ffffffffffffffff811115613158576131576147c4565b5b6040519080825280601f01601f19166020018201604052801561318a5781602001600182028036833780820191505090505b509050600082602001820190505b6001156131f7578080600190039150507f3031323334353637383961626364656600000000000000000000000000000000600a86061a8153600a85816131e1576131e0614737565b5b04945060008514156131f2576131f7565b613198565b819350505050919050565b61321c828260405180602001604052806000815250613557565b5050565b60008073ffffffffffffffffffffffffffffffffffffffff1661324283612dc9565b73ffffffffffffffffffffffffffffffffffffffff1614159050919050565b50505050565b50505050565b600061328e8473ffffffffffffffffffffffffffffffffffffffff166135b2565b156133f7578373ffffffffffffffffffffffffffffffffffffffff1663150b7a026132b76128df565b8786866040518563ffffffff1660e01b81526004016132d994939291906140be565b602060405180830381600087803b1580156132f357600080fd5b505af192505050801561332457506040513d601f19601f820116820180604052508101906133219190613b55565b60015b6133a7573d8060008114613354576040519150601f19603f3d011682016040523d82523d6000602084013e613359565b606091505b5060008151141561339f576040517f08c379a0000000000000000000000000000000000000000000000000000000008152600401613396906141e8565b60405180910390fd5b805181602001fd5b63150b7a0260e01b7bffffffffffffffffffffffffffffffffffffffffffffffffffffffff1916817bffffffffffffffffffffffffffffffffffffffffffffffffffffffff1916149150506133fc565b600190505b949350505050565b600080600090507a184f03e93ff9f4daa797ed6e38ed64bf6a1f0100000000000000008310613462577a184f03e93ff9f4daa797ed6e38ed64bf6a1f010000000000000000838161345857613457614737565b5b0492506040810190505b6d04ee2d6d415b85acef8100000000831061349f576d04ee2d6d415b85acef8100000000838161349557613494614737565b5b0492506020810190505b662386f26fc1000083106134ce57662386f26fc1000083816134c4576134c3614737565b5b0492506010810190505b6305f5e10083106134f7576305f5e10083816134ed576134ec614737565b5b0492506008810190505b612710831061351c57612710838161351257613511614737565b5b0492506004810190505b6064831061353f576064838161353557613534614737565b5b0492506002810190505b600a831061354e576001810190505b80915050919050565b61356183836135d5565b61356e600084848461326d565b6135ad576040517f08c379a00000000000000000000000000000000000000000000000000000000081526004016135a4906141e8565b60405180910390fd5b505050565b6000808273ffffffffffffffffffffffffffffffffffffffff163b119050919050565b600073ffffffffffffffffffffffffffffffffffffffff168273ffffffffffffffffffffffffffffffffffffffff161415613645576040517f08c379a000000000000000000000000000000000000000000000000000000000815260040161363c906142c8565b60405180910390fd5b61364e81613220565b1561368e576040517f08c379a000000000000000000000000000000000000000000000000000000000815260040161368590614248565b60405180910390fd5b61369c600083836001613261565b6136a581613220565b156136e5576040517f08c379a00000000000000000000000000000000000000000000000000000000081526004016136dc90614248565b60405180910390fd5b6001600360008473ffffffffffffffffffffffffffffffffffffffff1673ffffffffffffffffffffffffffffffffffffffff16815260200190815260200160002060008282540192505081905550816002600083815260200190815260200160002060006101000a81548173ffffffffffffffffffffffffffffffffffffffff021916908373ffffffffffffffffffffffffffffffffffffffff160217905550808273ffffffffffffffffffffffffffffffffffffffff16600073ffffffffffffffffffffffffffffffffffffffff167fddf252ad1be2c89b69c2b068fc378daa952ba7f163c4a11628f55a4df523b3ef60405160405180910390a46137ef600083836001613267565b5050565b60006138066138018461440d565b6143e8565b905082815260208101848484011115613822576138216147f8565b5b61382d84828561461a565b509392505050565b60008135905061384481614b89565b92915050565b60008151905061385981614b89565b92915050565b60008135905061386e81614ba0565b92915050565b60008151905061388381614ba0565b92915050565b60008135905061389881614bb7565b92915050565b6000815190506138ad81614bb7565b92915050565b600082601f8301126138c8576138c76147f3565b5b81356138d88482602086016137f3565b91505092915050565b6000813590506138f081614bce565b92915050565b60008151905061390581614bce565b92915050565b60006020828403121561392157613920614802565b5b600061392f84828501613835565b91505092915050565b60006020828403121561394e5761394d614802565b5b600061395c8482850161384a565b91505092915050565b6000806040838503121561397c5761397b614802565b5b600061398a85828601613835565b925050602061399b85828601613835565b9150509250929050565b6000806000606084860312156139be576139bd614802565b5b60006139cc86828701613835565b93505060206139dd86828701613835565b92505060406139ee868287016138e1565b9150509250925092565b60008060008060808587031215613a1257613a11614802565b5b6000613a2087828801613835565b9450506020613a3187828801613835565b9350506040613a42878288016138e1565b925050606085013567ffffffffffffffff811115613a6357613a626147fd565b5b613a6f878288016138b3565b91505092959194509250565b60008060408385031215613a9257613a91614802565b5b6000613aa085828601613835565b9250506020613ab18582860161385f565b9150509250929050565b60008060408385031215613ad257613ad1614802565b5b6000613ae085828601613835565b9250506020613af1858286016138e1565b9150509250929050565b600060208284031215613b1157613b10614802565b5b6000613b1f84828501613874565b91505092915050565b600060208284031215613b3e57613b3d614802565b5b6000613b4c84828501613889565b91505092915050565b600060208284031215613b6b57613b6a614802565b5b6000613b798482850161389e565b91505092915050565b600060208284031215613b9857613b97614802565b5b6000613ba6848285016138e1565b91505092915050565b600060208284031215613bc557613bc4614802565b5b6000613bd3848285016138f6565b91505092915050565b60008060408385031215613bf357613bf2614802565b5b6000613c01858286016138e1565b9250506020613c12858286016138e1565b9150509250929050565b6000613c288383613f9c565b60608301905092915050565b613c3d8161454c565b82525050565b613c4c8161454c565b82525050565b6000613c5d8261444e565b613c67818561447c565b9350613c728361443e565b8060005b83811015613ca3578151613c8a8882613c1c565b9750613c958361446f565b925050600181019050613c76565b5085935050505092915050565b613cb98161455e565b82525050565b6000613cca82614459565b613cd4818561448d565b9350613ce4818560208601614629565b613ced81614807565b840191505092915050565b613d01816145c0565b82525050565b613d10816145d2565b82525050565b613d1f816145e4565b82525050565b6000613d3082614464565b613d3a81856144a9565b9350613d4a818560208601614629565b613d5381614807565b840191505092915050565b6000613d6982614464565b613d7381856144ba565b9350613d83818560208601614629565b80840191505092915050565b6000613d9c602d836144a9565b9150613da782614818565b604082019050919050565b6000613dbf6032836144a9565b9150613dca82614867565b604082019050919050565b6000613de26026836144a9565b9150613ded826148b6565b604082019050919050565b6000613e056025836144a9565b9150613e1082614905565b604082019050919050565b6000613e28601c836144a9565b9150613e3382614954565b602082019050919050565b6000613e4b6024836144a9565b9150613e568261497d565b604082019050919050565b6000613e6e6019836144a9565b9150613e79826149cc565b602082019050919050565b6000613e916029836144a9565b9150613e9c826149f5565b604082019050919050565b6000613eb46020836144a9565b9150613ebf82614a44565b602082019050919050565b6000613ed76020836144a9565b9150613ee282614a6d565b602082019050919050565b6000613efa6018836144a9565b9150613f0582614a96565b602082019050919050565b6000613f1d6021836144a9565b9150613f2882614abf565b604082019050919050565b6000613f4060008361449e565b9150613f4b82614b0e565b600082019050919050565b6000613f63603d836144a9565b9150613f6e82614b11565b604082019050919050565b6000613f866007836144a9565b9150613f9182614b60565b602082019050919050565b606082016000820151613fb26000850182613fde565b506020820151613fc56020850182613c34565b506040820151613fd86040850182613fde565b50505050565b613fe7816145b6565b82525050565b613ff6816145b6565b82525050565b60006140088285613d5e565b91506140148284613d5e565b91508190509392505050565b600061402b82613f33565b9150819050919050565b600060208201905061404a6000830184613c43565b92915050565b60006060820190506140656000830186613c43565b6140726020830185613c43565b61407f6040830184613d16565b949350505050565b600060608201905061409c6000830186613c43565b6140a96020830185613c43565b6140b66040830184613fed565b949350505050565b60006080820190506140d36000830187613c43565b6140e06020830186613c43565b6140ed6040830185613fed565b81810360608301526140ff8184613cbf565b905095945050505050565b600060408201905061411f6000830185613c43565b61412c6020830184613fed565b9392505050565b6000602082019050818103600083015261414d8184613c52565b905092915050565b600060208201905061416a6000830184613cb0565b92915050565b60006020820190506141856000830184613cf8565b92915050565b60006020820190506141a06000830184613d07565b92915050565b600060208201905081810360008301526141c08184613d25565b905092915050565b600060208201905081810360008301526141e181613d8f565b9050919050565b6000602082019050818103600083015261420181613db2565b9050919050565b6000602082019050818103600083015261422181613dd5565b9050919050565b6000602082019050818103600083015261424181613df8565b9050919050565b6000602082019050818103600083015261426181613e1b565b9050919050565b6000602082019050818103600083015261428181613e3e565b9050919050565b600060208201905081810360008301526142a181613e61565b9050919050565b600060208201905081810360008301526142c181613e84565b9050919050565b600060208201905081810360008301526142e181613ea7565b9050919050565b6000602082019050818103600083015261430181613eca565b9050919050565b6000602082019050818103600083015261432181613eed565b9050919050565b6000602082019050818103600083015261434181613f10565b9050919050565b6000602082019050818103600083015261436181613f56565b9050919050565b6000604082019050818103600083015261438181613f79565b90506143906020830184613fed565b92915050565b60006020820190506143ab6000830184613fed565b92915050565b60006060820190506143c66000830186613fed565b6143d36020830185613c43565b6143e06040830184613fed565b949350505050565b60006143f2614403565b90506143fe828261468e565b919050565b6000604051905090565b600067ffffffffffffffff821115614428576144276147c4565b5b61443182614807565b9050602081019050919050565b6000819050602082019050919050565b600081519050919050565b600081519050919050565b600081519050919050565b6000602082019050919050565b600082825260208201905092915050565b600082825260208201905092915050565b600081905092915050565b600082825260208201905092915050565b600081905092915050565b60006144d0826145b6565b91506144db836145b6565b9250827fffffffffffffffffffffffffffffffffffffffffffffffffffffffffffffffff038211156145105761450f614708565b5b828201905092915050565b6000614526826145b6565b9150614531836145b6565b92508261454157614540614737565b5b828204905092915050565b600061455782614596565b9050919050565b60008115159050919050565b60007fffffffff0000000000000000000000000000000000000000000000000000000082169050919050565b600073ffffffffffffffffffffffffffffffffffffffff82169050919050565b6000819050919050565b60006145cb826145f6565b9050919050565b60006145dd826145b6565b9050919050565b60006145ef826145b6565b9050919050565b600061460182614608565b9050919050565b600061461382614596565b9050919050565b82818337600083830152505050565b60005b8381101561464757808201518184015260208101905061462c565b83811115614656576000848401525b50505050565b6000600282049050600182168061467457607f821691505b6020821081141561468857614687614766565b5b50919050565b61469782614807565b810181811067ffffffffffffffff821117156146b6576146b56147c4565b5b80604052505050565b60006146ca826145b6565b91507fffffffffffffffffffffffffffffffffffffffffffffffffffffffffffffffff8214156146fd576146fc614708565b5b600182019050919050565b7f4e487b7100000000000000000000000000000000000000000000000000000000600052601160045260246000fd5b7f4e487b7100000000000000000000000000000000000000000000000000000000600052601260045260246000fd5b7f4e487b7100000000000000000000000000000000000000000000000000000000600052602260045260246000fd5b7f4e487b7100000000000000000000000000000000000000000000000000000000600052603260045260246000fd5b7f4e487b7100000000000000000000000000000000000000000000000000000000600052604160045260246000fd5b600080fd5b600080fd5b600080fd5b600080fd5b6000601f19601f8301169050919050565b7f4552433732313a2063616c6c6572206973206e6f7420746f6b656e206f776e6560008201527f72206f7220617070726f76656400000000000000000000000000000000000000602082015250565b7f4552433732313a207472616e7366657220746f206e6f6e20455243373231526560008201527f63656976657220696d706c656d656e7465720000000000000000000000000000602082015250565b7f4f776e61626c653a206e6577206f776e657220697320746865207a65726f206160008201527f6464726573730000000000000000000000000000000000000000000000000000602082015250565b7f4552433732313a207472616e736665722066726f6d20696e636f72726563742060008201527f6f776e6572000000000000000000000000000000000000000000000000000000602082015250565b7f4552433732313a20746f6b656e20616c7265616479206d696e74656400000000600082015250565b7f4552433732313a207472616e7366657220746f20746865207a65726f2061646460008201527f7265737300000000000000000000000000000000000000000000000000000000602082015250565b7f4552433732313a20617070726f766520746f2063616c6c657200000000000000600082015250565b7f4552433732313a2061646472657373207a65726f206973206e6f74206120766160008201527f6c6964206f776e65720000000000000000000000000000000000000000000000602082015250565b7f4552433732313a206d696e7420746f20746865207a65726f2061646472657373600082015250565b7f4f776e61626c653a2063616c6c6572206973206e6f7420746865206f776e6572600082015250565b7f4552433732313a20696e76616c696420746f6b656e2049440000000000000000600082015250565b7f4552433732313a20617070726f76616c20746f2063757272656e74206f776e6560008201527f7200000000000000000000000000000000000000000000000000000000000000602082015250565b50565b7f4552433732313a20617070726f76652063616c6c6572206973206e6f7420746f60008201527f6b656e206f776e6572206f7220617070726f76656420666f7220616c6c000000602082015250565b7f436f756e74657200000000000000000000000000000000000000000000000000600082015250565b614b928161454c565b8114614b9d57600080fd5b50565b614ba98161455e565b8114614bb457600080fd5b50565b614bc08161456a565b8114614bcb57600080fd5b50565b614bd7816145b6565b8114614be257600080fd5b5056fea26469706673582212207039d4acad00be2fac783f9abc638ac8bd663102642f419342818269be5d38f664736f6c63430008070033608060405233600560006101000a81548173ffffffffffffffffffffffffffffffffffffffff021916908373ffffffffffffffffffffffffffffffffffffffff1602179055503480156200005257600080fd5b5060405162001ba338038062001ba383398181016040528101906200007891906200038d565b818181600390805190602001906200009292919062000248565b508060049080519060200190620000ab92919062000248565b505050620000c03384620000d060201b60201c565b826006819055505050506200070c565b600073ffffffffffffffffffffffffffffffffffffffff168273ffffffffffffffffffffffffffffffffffffffff16141562000143576040517f08c379a00000000000000000000000000000000000000000000000000000000081526004016200013a906200045f565b60405180910390fd5b62000157600083836200023e60201b60201c565b80600260008282546200016b91906200050e565b92505081905550806000808473ffffffffffffffffffffffffffffffffffffffff1673ffffffffffffffffffffffffffffffffffffffff168152602001908152602001600020600082825401925050819055508173ffffffffffffffffffffffffffffffffffffffff16600073ffffffffffffffffffffffffffffffffffffffff167fddf252ad1be2c89b69c2b068fc378daa952ba7f163c4a11628f55a4df523b3ef836040516200021e919062000481565b60405180910390a36200023a600083836200024360201b60201c565b5050565b505050565b505050565b8280546200025690620005ab565b90600052602060002090601f0160209004810192826200027a5760008555620002c6565b82601f106200029557805160ff1916838001178555620002c6565b82800160010185558215620002c6579182015b82811115620002c5578251825591602001919060010190620002a8565b5b509050620002d59190620002d9565b5090565b5b80821115620002f4576000816000905550600101620002da565b5090565b60006200030f6200030984620004c7565b6200049e565b9050828152602081018484840111156200032e576200032d620006a9565b5b6200033b84828562000575565b509392505050565b600082601f8301126200035b576200035a620006a4565b5b81516200036d848260208601620002f8565b91505092915050565b6000815190506200038781620006f2565b92915050565b600080600060608486031215620003a957620003a8620006b3565b5b6000620003b98682870162000376565b935050602084015167ffffffffffffffff811115620003dd57620003dc620006ae565b5b620003eb8682870162000343565b925050604084015167ffffffffffffffff8111156200040f576200040e620006ae565b5b6200041d8682870162000343565b9150509250925092565b600062000436601f83620004fd565b91506200044382620006c9565b602082019050919050565b62000459816200056b565b82525050565b600060208201905081810360008301526200047a8162000427565b9050919050565b60006020820190506200049860008301846200044e565b92915050565b6000620004aa620004bd565b9050620004b88282620005e1565b919050565b6000604051905090565b600067ffffffffffffffff821115620004e557620004e462000675565b5b620004f082620006b8565b9050602081019050919050565b600082825260208201905092915050565b60006200051b826200056b565b915062000528836200056b565b9250827fffffffffffffffffffffffffffffffffffffffffffffffffffffffffffffffff0382111562000560576200055f62000617565b5b828201905092915050565b6000819050919050565b60005b838110156200059557808201518184015260208101905062000578565b83811115620005a5576000848401525b50505050565b60006002820490506001821680620005c457607f821691505b60208210811415620005db57620005da62000646565b5b50919050565b620005ec82620006b8565b810181811067ffffffffffffffff821117156200060e576200060d62000675565b5b80604052505050565b7f4e487b7100000000000000000000000000000000000000000000000000000000600052601160045260246000fd5b7f4e487b7100000000000000000000000000000000000000000000000000000000600052602260045260246000fd5b7f4e487b7100000000000000000000000000000000000000000000000000000000600052604160045260246000fd5b600080fd5b600080fd5b600080fd5b600080fd5b6000601f19601f8301169050919050565b7f45524332303a206d696e7420746f20746865207a65726f206164647265737300600082015250565b620006fd816200056b565b81146200070957600080fd5b50565b611487806200071c6000396000f3fe608060405234801561001057600080fd5b50600436106100ea5760003560e01c8063395093511161008c57806395d89b411161006657806395d89b411461025f578063a457c2d71461027d578063a9059cbb146102ad578063dd62ed3e146102dd576100ea565b806339509351146101e157806370a08231146102115780638da5cb5b14610241576100ea565b8063096cb2ce116100c8578063096cb2ce1461015957806318160ddd1461017557806323b872dd14610193578063313ce567146101c3576100ea565b8063022fc88b146100ef57806306fdde031461010b578063095ea7b314610129575b600080fd5b61010960048036038101906101049190610cd6565b61030d565b005b61011361031c565b6040516101209190610ed9565b60405180910390f35b610143600480360381019061013e9190610cd6565b6103ae565b6040516101509190610ebe565b60405180910390f35b610173600480360381019061016e9190610c16565b6103d1565b005b61017d610471565b60405161018a9190610ffb565b60405180910390f35b6101ad60048036038101906101a89190610c83565b61047b565b6040516101ba9190610ebe565b60405180910390f35b6101cb6104aa565b6040516101d89190611016565b60405180910390f35b6101fb60048036038101906101f69190610cd6565b6104b3565b6040516102089190610ebe565b60405180910390f35b61022b60048036038101906102269190610c16565b6104ea565b6040516102389190610ffb565b60405180910390f35b610249610532565b6040516102569190610ea3565b60405180910390f35b610267610558565b6040516102749190610ed9565b60405180910390f35b61029760048036038101906102929190610cd6565b6105ea565b6040516102a49190610ebe565b60405180910390f35b6102c760048036038101906102c29190610cd6565b610661565b6040516102d49190610ebe565b60405180910390f35b6102f760048036038101906102f29190610c43565b610684565b6040516103049190610ffb565b60405180910390f35b61031833838361070b565b5050565b60606003805461032b9061112b565b80601f01602080910402602001604051908101604052809291908181526020018280546103579061112b565b80156103a45780601f10610379576101008083540402835291602001916103a4565b820191906000526020600020905b81548152906001019060200180831161038757829003601f168201915b5050505050905090565b6000806103b96108d6565b90506103c681858561070b565b600191505092915050565b600560009054906101000a900473ffffffffffffffffffffffffffffffffffffffff1673ffffffffffffffffffffffffffffffffffffffff163373ffffffffffffffffffffffffffffffffffffffff1614610461576040517f08c379a000000000000000000000000000000000000000000000000000000000815260040161045890610f1b565b60405180910390fd5b61046e338260065461070b565b50565b6000600254905090565b6000806104866108d6565b90506104938582856108de565b61049e85858561096a565b60019150509392505050565b60006012905090565b6000806104be6108d6565b90506104df8185856104d08589610684565b6104da919061104d565b61070b565b600191505092915050565b60008060008373ffffffffffffffffffffffffffffffffffffffff1673ffffffffffffffffffffffffffffffffffffffff168152602001908152602001600020549050919050565b600560009054906101000a900473ffffffffffffffffffffffffffffffffffffffff1681565b6060600480546105679061112b565b80601f01602080910402602001604051908101604052809291908181526020018280546105939061112b565b80156105e05780601f106105b5576101008083540402835291602001916105e0565b820191906000526020600020905b8154815290600101906020018083116105c357829003601f168201915b5050505050905090565b6000806105f56108d6565b905060006106038286610684565b905083811015610648576040517f08c379a000000000000000000000000000000000000000000000000000000000815260040161063f90610fdb565b60405180910390fd5b610655828686840361070b565b60019250505092915050565b60008061066c6108d6565b905061067981858561096a565b600191505092915050565b6000600160008473ffffffffffffffffffffffffffffffffffffffff1673ffffffffffffffffffffffffffffffffffffffff16815260200190815260200160002060008373ffffffffffffffffffffffffffffffffffffffff1673ffffffffffffffffffffffffffffffffffffffff16815260200190815260200160002054905092915050565b600073ffffffffffffffffffffffffffffffffffffffff168373ffffffffffffffffffffffffffffffffffffffff16141561077b576040517f08c379a000000000000000000000000000000000000000000000000000000000815260040161077290610fbb565b60405180910390fd5b600073ffffffffffffffffffffffffffffffffffffffff168273ffffffffffffffffffffffffffffffffffffffff1614156107eb576040517f08c379a00000000000000000000000000000000000000000000000000000000081526004016107e290610f3b565b60405180910390fd5b80600160008573ffffffffffffffffffffffffffffffffffffffff1673ffffffffffffffffffffffffffffffffffffffff16815260200190815260200160002060008473ffffffffffffffffffffffffffffffffffffffff1673ffffffffffffffffffffffffffffffffffffffff168152602001908152602001600020819055508173ffffffffffffffffffffffffffffffffffffffff168373ffffffffffffffffffffffffffffffffffffffff167f8c5be1e5ebec7d5bd14f71427d1e84f3dd0314c0f7b2291e5b200ac8c7c3b925836040516108c99190610ffb565b60405180910390a3505050565b600033905090565b60006108ea8484610684565b90507fffffffffffffffffffffffffffffffffffffffffffffffffffffffffffffffff81146109645781811015610956576040517f08c379a000000000000000000000000000000000000000000000000000000000815260040161094d90610f5b565b60405180910390fd5b610963848484840361070b565b5b50505050565b600073ffffffffffffffffffffffffffffffffffffffff168373ffffffffffffffffffffffffffffffffffffffff1614156109da576040517f08c379a00000000000000000000000000000000000000000000000000000000081526004016109d190610f9b565b60405180910390fd5b600073ffffffffffffffffffffffffffffffffffffffff168273ffffffffffffffffffffffffffffffffffffffff161415610a4a576040517f08c379a0000000000000000000000000000000000000000000000000000000008152600401610a4190610efb565b60405180910390fd5b610a55838383610be2565b60008060008573ffffffffffffffffffffffffffffffffffffffff1673ffffffffffffffffffffffffffffffffffffffff16815260200190815260200160002054905081811015610adb576040517f08c379a0000000000000000000000000000000000000000000000000000000008152600401610ad290610f7b565b60405180910390fd5b8181036000808673ffffffffffffffffffffffffffffffffffffffff1673ffffffffffffffffffffffffffffffffffffffff16815260200190815260200160002081905550816000808573ffffffffffffffffffffffffffffffffffffffff1673ffffffffffffffffffffffffffffffffffffffff168152602001908152602001600020600082825401925050819055508273ffffffffffffffffffffffffffffffffffffffff168473ffffffffffffffffffffffffffffffffffffffff167fddf252ad1be2c89b69c2b068fc378daa952ba7f163c4a11628f55a4df523b3ef84604051610bc99190610ffb565b60405180910390a3610bdc848484610be7565b50505050565b505050565b505050565b600081359050610bfb81611423565b92915050565b600081359050610c108161143a565b92915050565b600060208284031215610c2c57610c2b6111bb565b5b6000610c3a84828501610bec565b91505092915050565b60008060408385031215610c5a57610c596111bb565b5b6000610c6885828601610bec565b9250506020610c7985828601610bec565b9150509250929050565b600080600060608486031215610c9c57610c9b6111bb565b5b6000610caa86828701610bec565b9350506020610cbb86828701610bec565b9250506040610ccc86828701610c01565b9150509250925092565b60008060408385031215610ced57610cec6111bb565b5b6000610cfb85828601610bec565b9250506020610d0c85828601610c01565b9150509250929050565b610d1f816110a3565b82525050565b610d2e816110b5565b82525050565b6000610d3f82611031565b610d49818561103c565b9350610d598185602086016110f8565b610d62816111c0565b840191505092915050565b6000610d7a60238361103c565b9150610d85826111d1565b604082019050919050565b6000610d9d60228361103c565b9150610da882611220565b604082019050919050565b6000610dc060228361103c565b9150610dcb8261126f565b604082019050919050565b6000610de3601d8361103c565b9150610dee826112be565b602082019050919050565b6000610e0660268361103c565b9150610e11826112e7565b604082019050919050565b6000610e2960258361103c565b9150610e3482611336565b604082019050919050565b6000610e4c60248361103c565b9150610e5782611385565b604082019050919050565b6000610e6f60258361103c565b9150610e7a826113d4565b604082019050919050565b610e8e816110e1565b82525050565b610e9d816110eb565b82525050565b6000602082019050610eb86000830184610d16565b92915050565b6000602082019050610ed36000830184610d25565b92915050565b60006020820190508181036000830152610ef38184610d34565b905092915050565b60006020820190508181036000830152610f1481610d6d565b9050919050565b60006020820190508181036000830152610f3481610d90565b9050919050565b60006020820190508181036000830152610f5481610db3565b9050919050565b60006020820190508181036000830152610f7481610dd6565b9050919050565b60006020820190508181036000830152610f9481610df9565b9050919050565b60006020820190508181036000830152610fb481610e1c565b9050919050565b60006020820190508181036000830152610fd481610e3f565b9050919050565b60006020820190508181036000830152610ff481610e62565b9050919050565b60006020820190506110106000830184610e85565b92915050565b600060208201905061102b6000830184610e94565b92915050565b600081519050919050565b600082825260208201905092915050565b6000611058826110e1565b9150611063836110e1565b9250827fffffffffffffffffffffffffffffffffffffffffffffffffffffffffffffffff038211156110985761109761115d565b5b828201905092915050565b60006110ae826110c1565b9050919050565b60008115159050919050565b600073ffffffffffffffffffffffffffffffffffffffff82169050919050565b6000819050919050565b600060ff82169050919050565b60005b838110156111165780820151818401526020810190506110fb565b83811115611125576000848401525b50505050565b6000600282049050600182168061114357607f821691505b602082108114156111575761115661118c565b5b50919050565b7f4e487b7100000000000000000000000000000000000000000000000000000000600052601160045260246000fd5b7f4e487b7100000000000000000000000000000000000000000000000000000000600052602260045260246000fd5b600080fd5b6000601f19601f8301169050919050565b7f45524332303a207472616e7366657220746f20746865207a65726f206164647260008201527f6573730000000000000000000000000000000000000000000000000000000000602082015250565b7f4f6e6c79206f776e65722063616e2063616c6c20746869732066756e6374696f60008201527f6e2e000000000000000000000000000000000000000000000000000000000000602082015250565b7f45524332303a20617070726f766520746f20746865207a65726f20616464726560008201527f7373000000000000000000000000000000000000000000000000000000000000602082015250565b7f45524332303a20696e73756666696369656e7420616c6c6f77616e6365000000600082015250565b7f45524332303a207472616e7366657220616d6f756e742065786365656473206260008201527f616c616e63650000000000000000000000000000000000000000000000000000602082015250565b7f45524332303a207472616e736665722066726f6d20746865207a65726f20616460008201527f6472657373000000000000000000000000000000000000000000000000000000602082015250565b7f45524332303a20617070726f76652066726f6d20746865207a65726f2061646460008201527f7265737300000000000000000000000000000000000000000000000000000000602082015250565b7f45524332303a2064656372656173656420616c6c6f77616e63652062656c6f7760008201527f207a65726f000000000000000000000000000000000000000000000000000000602082015250565b61142c816110a3565b811461143757600080fd5b50565b611443816110e1565b811461144e57600080fd5b5056fea2646970667358221220c5f480eded909baeefd60589413f8a13ed28f628ac10758bef60e125b578e0f664736f6c63430008070033",
  "devdoc": {
    "kind": "dev",
    "methods": {
      "approve(address,uint256)": {
        "details": "See {IERC721-approve}."
      },
      "balanceOf(address)": {
        "details": "See {IERC721-balanceOf}."
      },
      "getApproved(uint256)": {
        "details": "See {IERC721-getApproved}."
      },
      "isApprovedForAll(address,address)": {
        "details": "See {IERC721-isApprovedForAll}."
      },
      "name()": {
        "details": "See {IERC721Metadata-name}."
      },
      "owner()": {
        "details": "Returns the address of the current owner."
      },
      "ownerOf(uint256)": {
        "details": "See {IERC721-ownerOf}."
      },
      "renounceOwnership()": {
        "details": "Leaves the contract without owner. It will not be possible to call `onlyOwner` functions. Can only be called by the current owner. NOTE: Renouncing ownership will leave the contract without an owner, thereby disabling any functionality that is only available to the owner."
      },
      "safeTransferFrom(address,address,uint256)": {
        "details": "See {IERC721-safeTransferFrom}."
      },
      "safeTransferFrom(address,address,uint256,bytes)": {
        "details": "See {IERC721-safeTransferFrom}."
      },
      "setApprovalForAll(address,bool)": {
        "details": "See {IERC721-setApprovalForAll}."
      },
      "supportsInterface(bytes4)": {
        "details": "See {IERC165-supportsInterface}."
      },
      "symbol()": {
        "details": "See {IERC721Metadata-symbol}."
      },
      "tokenURI(uint256)": {
        "details": "See {IERC721Metadata-tokenURI}."
      },
      "transferFrom(address,address,uint256)": {
        "details": "See {IERC721-transferFrom}."
      },
      "transferOwnership(address)": {
        "details": "Transfers ownership of the contract to a new account (`newOwner`). Can only be called by the current owner."
      }
    },
    "version": 1
  },
  "userdoc": {
    "kind": "user",
    "methods": {},
    "version": 1
  },
  "storageLayout": {
    "storage": [
      {
        "astId": 893,
        "contract": "contracts/FestivalTicketMarketPlace.sol:FestivalTicketMarketPlace",
        "label": "_name",
        "offset": 0,
        "slot": "0",
        "type": "t_string_storage"
      },
      {
        "astId": 895,
        "contract": "contracts/FestivalTicketMarketPlace.sol:FestivalTicketMarketPlace",
        "label": "_symbol",
        "offset": 0,
        "slot": "1",
        "type": "t_string_storage"
      },
      {
        "astId": 899,
        "contract": "contracts/FestivalTicketMarketPlace.sol:FestivalTicketMarketPlace",
        "label": "_owners",
        "offset": 0,
        "slot": "2",
        "type": "t_mapping(t_uint256,t_address)"
      },
      {
        "astId": 903,
        "contract": "contracts/FestivalTicketMarketPlace.sol:FestivalTicketMarketPlace",
        "label": "_balances",
        "offset": 0,
        "slot": "3",
        "type": "t_mapping(t_address,t_uint256)"
      },
      {
        "astId": 907,
        "contract": "contracts/FestivalTicketMarketPlace.sol:FestivalTicketMarketPlace",
        "label": "_tokenApprovals",
        "offset": 0,
        "slot": "4",
        "type": "t_mapping(t_uint256,t_address)"
      },
      {
        "astId": 913,
        "contract": "contracts/FestivalTicketMarketPlace.sol:FestivalTicketMarketPlace",
        "label": "_operatorApprovals",
        "offset": 0,
        "slot": "5",
        "type": "t_mapping(t_address,t_mapping(t_address,t_bool))"
      },
      {
        "astId": 7,
        "contract": "contracts/FestivalTicketMarketPlace.sol:FestivalTicketMarketPlace",
        "label": "_owner",
        "offset": 0,
        "slot": "6",
        "type": "t_address"
      },
      {
        "astId": 123,
        "contract": "contracts/FestivalTicketMarketPlace.sol:FestivalTicketMarketPlace",
        "label": "_status",
        "offset": 0,
        "slot": "7",
        "type": "t_uint256"
      },
      {
        "astId": 3647,
        "contract": "contracts/FestivalTicketMarketPlace.sol:FestivalTicketMarketPlace",
        "label": "festivalCurrencyTicket",
        "offset": 0,
        "slot": "8",
        "type": "t_contract(FestivalCurrencyTicket)3622"
      },
      {
        "astId": 3649,
        "contract": "contracts/FestivalTicketMarketPlace.sol:FestivalTicketMarketPlace",
        "label": "ticketPrice",
        "offset": 0,
        "slot": "9",
        "type": "t_uint256"
      },
      {
        "astId": 3652,
        "contract": "contracts/FestivalTicketMarketPlace.sol:FestivalTicketMarketPlace",
        "label": "ticketSold",
        "offset": 0,
        "slot": "10",
        "type": "t_uint256"
      },
      {
        "astId": 3656,
        "contract": "contracts/FestivalTicketMarketPlace.sol:FestivalTicketMarketPlace",
        "label": "ticketName",
        "offset": 0,
        "slot": "11",
        "type": "t_string_storage"
      },
      {
        "astId": 3658,
        "contract": "contracts/FestivalTicketMarketPlace.sol:FestivalTicketMarketPlace",
        "label": "ticketSymbol",
        "offset": 0,
        "slot": "12",
        "type": "t_string_storage"
      },
      {
        "astId": 3662,
        "contract": "contracts/FestivalTicketMarketPlace.sol:FestivalTicketMarketPlace",
        "label": "ticketListings",
        "offset": 0,
        "slot": "13",
        "type": "t_array(t_struct(TicketListing)3644_storage)dyn_storage"
      },
      {
        "astId": 3664,
        "contract": "contracts/FestivalTicketMarketPlace.sol:FestivalTicketMarketPlace",
        "label": "contractOwner",
        "offset": 0,
        "slot": "14",
        "type": "t_address"
      },
      {
        "astId": 3667,
        "contract": "contracts/FestivalTicketMarketPlace.sol:FestivalTicketMarketPlace",
        "label": "counter",
        "offset": 0,
        "slot": "15",
        "type": "t_uint256"
      },
      {
        "astId": 3727,
        "contract": "contracts/FestivalTicketMarketPlace.sol:FestivalTicketMarketPlace",
        "label": "ticketPriceByTicketId",
        "offset": 0,
        "slot": "16",
        "type": "t_mapping(t_uint256,t_uint256)"
      },
      {
        "astId": 3731,
        "contract": "contracts/FestivalTicketMarketPlace.sol:FestivalTicketMarketPlace",
        "label": "s_balances",
        "offset": 0,
        "slot": "17",
        "type": "t_mapping(t_address,t_uint256)"
      }
    ],
    "types": {
      "t_address": {
        "encoding": "inplace",
        "label": "address",
        "numberOfBytes": "20"
      },
      "t_array(t_struct(TicketListing)3644_storage)dyn_storage": {
        "base": "t_struct(TicketListing)3644_storage",
        "encoding": "dynamic_array",
        "label": "struct FestivalTicketMarketPlace.TicketListing[]",
        "numberOfBytes": "32"
      },
      "t_bool": {
        "encoding": "inplace",
        "label": "bool",
        "numberOfBytes": "1"
      },
      "t_contract(FestivalCurrencyTicket)3622": {
        "encoding": "inplace",
        "label": "contract FestivalCurrencyTicket",
        "numberOfBytes": "20"
      },
      "t_mapping(t_address,t_bool)": {
        "encoding": "mapping",
        "key": "t_address",
        "label": "mapping(address => bool)",
        "numberOfBytes": "32",
        "value": "t_bool"
      },
      "t_mapping(t_address,t_mapping(t_address,t_bool))": {
        "encoding": "mapping",
        "key": "t_address",
        "label": "mapping(address => mapping(address => bool))",
        "numberOfBytes": "32",
        "value": "t_mapping(t_address,t_bool)"
      },
      "t_mapping(t_address,t_uint256)": {
        "encoding": "mapping",
        "key": "t_address",
        "label": "mapping(address => uint256)",
        "numberOfBytes": "32",
        "value": "t_uint256"
      },
      "t_mapping(t_uint256,t_address)": {
        "encoding": "mapping",
        "key": "t_uint256",
        "label": "mapping(uint256 => address)",
        "numberOfBytes": "32",
        "value": "t_address"
      },
      "t_mapping(t_uint256,t_uint256)": {
        "encoding": "mapping",
        "key": "t_uint256",
        "label": "mapping(uint256 => uint256)",
        "numberOfBytes": "32",
        "value": "t_uint256"
      },
      "t_string_storage": {
        "encoding": "bytes",
        "label": "string",
        "numberOfBytes": "32"
      },
      "t_struct(TicketListing)3644_storage": {
        "encoding": "inplace",
        "label": "struct FestivalTicketMarketPlace.TicketListing",
        "members": [
          {
            "astId": 3639,
            "contract": "contracts/FestivalTicketMarketPlace.sol:FestivalTicketMarketPlace",
            "label": "ticketId",
            "offset": 0,
            "slot": "0",
            "type": "t_uint256"
          },
          {
            "astId": 3641,
            "contract": "contracts/FestivalTicketMarketPlace.sol:FestivalTicketMarketPlace",
            "label": "seller",
            "offset": 0,
            "slot": "1",
            "type": "t_address"
          },
          {
            "astId": 3643,
            "contract": "contracts/FestivalTicketMarketPlace.sol:FestivalTicketMarketPlace",
            "label": "price",
            "offset": 0,
            "slot": "2",
            "type": "t_uint256"
          }
        ],
        "numberOfBytes": "96"
      },
      "t_uint256": {
        "encoding": "inplace",
        "label": "uint256",
        "numberOfBytes": "32"
      }
    }
  }
}