{
  "address": "0xC2489505286013D1Ac2F4D1BC42cb94d40185931",
  "abi": [
    {
      "inputs": [
        {
          "internalType": "uint256",
          "name": "_ticketPrice",
          "type": "uint256"
        },
        {
          "internalType": "string",
          "name": "_ticketName",
          "type": "string"
        },
        {
          "internalType": "string",
          "name": "_ticketSymbol",
          "type": "string"
        },
        {
          "internalType": "uint256",
          "name": "_totalTicket",
          "type": "uint256"
        }
      ],
      "stateMutability": "nonpayable",
      "type": "constructor"
    },
    {
      "inputs": [
        {
          "internalType": "uint256",
          "name": "tokenId",
          "type": "uint256"
        }
      ],
      "name": "FestivalTicketMarketPlace__AlreadyTicketOwner",
      "type": "error"
    },
    {
      "inputs": [],
      "name": "FestivalTicketMarketPlace__NewPriceNotMoreThan10Percent",
      "type": "error"
    },
    {
      "inputs": [],
      "name": "FestivalTicketMarketPlace__NftNotApprovedForMarketPlace",
      "type": "error"
    },
    {
      "inputs": [],
      "name": "FestivalTicketMarketPlace__NoMoreTicketsAvailable",
      "type": "error"
    },
    {
      "inputs": [
        {
          "internalType": "address",
          "name": "seller",
          "type": "address"
        }
      ],
      "name": "FestivalTicketMarketPlace__NotHaveSufficientAmount",
      "type": "error"
    },
    {
      "inputs": [],
      "name": "FestivalTicketMarketPlace__NotSufficientAmount",
      "type": "error"
    },
    {
      "inputs": [
        {
          "internalType": "uint256",
          "name": "tokenId",
          "type": "uint256"
        }
      ],
      "name": "FestivalTicketMarketPlace__NotTicketNFTOwner",
      "type": "error"
    },
    {
      "inputs": [],
      "name": "FestivalTicketMarketPlace__PriceCannotBeZero",
      "type": "error"
    },
    {
      "inputs": [
        {
          "internalType": "uint256",
          "name": "tokenId",
          "type": "uint256"
        }
      ],
      "name": "FestivalTicketMarketPlace__TicketAlreadyListed",
      "type": "error"
    },
    {
      "inputs": [],
      "name": "FestivalTicketMarketPlace__TicketNotListedToSale",
      "type": "error"
    },
    {
      "inputs": [],
      "name": "FestivalTicketMarketPlace__TokenTransferFailed",
      "type": "error"
    },
    {
      "inputs": [
        {
          "internalType": "address",
          "name": "seller",
          "type": "address"
        },
        {
          "internalType": "uint256",
          "name": "amount",
          "type": "uint256"
        }
      ],
      "name": "FestivalTicketMarketPlace__WithDrawFailed",
      "type": "error"
    },
    {
      "anonymous": false,
      "inputs": [
        {
          "indexed": true,
          "internalType": "address",
          "name": "seller",
          "type": "address"
        },
        {
          "indexed": false,
          "internalType": "uint256",
          "name": "amount",
          "type": "uint256"
        }
      ],
      "name": "AmountWithDrawn",
      "type": "event"
    },
    {
      "anonymous": false,
      "inputs": [
        {
          "indexed": true,
          "internalType": "address",
          "name": "owner",
          "type": "address"
        },
        {
          "indexed": true,
          "internalType": "address",
          "name": "approved",
          "type": "address"
        },
        {
          "indexed": true,
          "internalType": "uint256",
          "name": "tokenId",
          "type": "uint256"
        }
      ],
      "name": "Approval",
      "type": "event"
    },
    {
      "anonymous": false,
      "inputs": [
        {
          "indexed": true,
          "internalType": "address",
          "name": "owner",
          "type": "address"
        },
        {
          "indexed": true,
          "internalType": "address",
          "name": "operator",
          "type": "address"
        },
        {
          "indexed": false,
          "internalType": "bool",
          "name": "approved",
          "type": "bool"
        }
      ],
      "name": "ApprovalForAll",
      "type": "event"
    },
    {
      "anonymous": false,
      "inputs": [
        {
          "indexed": false,
          "internalType": "string",
          "name": "message",
          "type": "string"
        },
        {
          "indexed": false,
          "internalType": "uint256",
          "name": "value",
          "type": "uint256"
        }
      ],
      "name": "Log",
      "type": "event"
    },
    {
      "anonymous": false,
      "inputs": [
        {
          "indexed": true,
          "internalType": "address",
          "name": "previousOwner",
          "type": "address"
        },
        {
          "indexed": true,
          "internalType": "address",
          "name": "newOwner",
          "type": "address"
        }
      ],
      "name": "OwnershipTransferred",
      "type": "event"
    },
    {
      "anonymous": false,
      "inputs": [
        {
          "indexed": true,
          "internalType": "address",
          "name": "buyer",
          "type": "address"
        },
        {
          "indexed": true,
          "internalType": "uint256",
          "name": "ticketId",
          "type": "uint256"
        },
        {
          "indexed": false,
          "internalType": "uint256",
          "name": "amount",
          "type": "uint256"
        }
      ],
      "name": "TicketBought",
      "type": "event"
    },
    {
      "anonymous": false,
      "inputs": [
        {
          "indexed": true,
          "internalType": "uint256",
          "name": "ticketId",
          "type": "uint256"
        },
        {
          "indexed": true,
          "internalType": "address",
          "name": "seller",
          "type": "address"
        },
        {
          "indexed": false,
          "internalType": "uint256",
          "name": "price",
          "type": "uint256"
        }
      ],
      "name": "TicketListed",
      "type": "event"
    },
    {
      "anonymous": false,
      "inputs": [
        {
          "indexed": true,
          "internalType": "uint256",
          "name": "ticketId",
          "type": "uint256"
        },
        {
          "indexed": true,
          "internalType": "address",
          "name": "seller",
          "type": "address"
        },
        {
          "indexed": false,
          "internalType": "uint256",
          "name": "price",
          "type": "uint256"
        }
      ],
      "name": "TicketRemoved",
      "type": "event"
    },
    {
      "anonymous": false,
      "inputs": [
        {
          "indexed": true,
          "internalType": "uint256",
          "name": "ticketId",
          "type": "uint256"
        },
        {
          "indexed": true,
          "internalType": "address",
          "name": "seller",
          "type": "address"
        },
        {
          "indexed": false,
          "internalType": "uint256",
          "name": "price",
          "type": "uint256"
        }
      ],
      "name": "TicketUpdated",
      "type": "event"
    },
    {
      "anonymous": false,
      "inputs": [
        {
          "indexed": true,
          "internalType": "address",
          "name": "from",
          "type": "address"
        },
        {
          "indexed": true,
          "internalType": "address",
          "name": "to",
          "type": "address"
        },
        {
          "indexed": true,
          "internalType": "uint256",
          "name": "tokenId",
          "type": "uint256"
        }
      ],
      "name": "Transfer",
      "type": "event"
    },
    {
      "inputs": [
        {
          "internalType": "address",
          "name": "to",
          "type": "address"
        },
        {
          "internalType": "uint256",
          "name": "tokenId",
          "type": "uint256"
        }
      ],
      "name": "approve",
      "outputs": [],
      "stateMutability": "nonpayable",
      "type": "function"
    },
    {
      "inputs": [
        {
          "internalType": "address",
          "name": "owner",
          "type": "address"
        }
      ],
      "name": "balanceOf",
      "outputs": [
        {
          "internalType": "uint256",
          "name": "",
          "type": "uint256"
        }
      ],
      "stateMutability": "view",
      "type": "function"
    },
    {
      "inputs": [],
      "name": "buyTicket",
      "outputs": [
        {
          "internalType": "uint256",
          "name": "ticketId",
          "type": "uint256"
        }
      ],
      "stateMutability": "payable",
      "type": "function"
    },
    {
      "inputs": [
        {
          "internalType": "uint256",
          "name": "_ticketId",
          "type": "uint256"
        }
      ],
      "name": "buyTicketFromListing",
      "outputs": [],
      "stateMutability": "payable",
      "type": "function"
    },
    {
      "inputs": [
        {
          "internalType": "uint256",
          "name": "_ticketId",
          "type": "uint256"
        }
      ],
      "name": "cancelTicketListing",
      "outputs": [],
      "stateMutability": "nonpayable",
      "type": "function"
    },
    {
      "inputs": [],
      "name": "counter",
      "outputs": [
        {
          "internalType": "uint256",
          "name": "",
          "type": "uint256"
        }
      ],
      "stateMutability": "view",
      "type": "function"
    },
    {
      "inputs": [],
      "name": "festivalCurrencyTicket",
      "outputs": [
        {
          "internalType": "contract FestivalCurrencyTicket",
          "name": "",
          "type": "address"
        }
      ],
      "stateMutability": "view",
      "type": "function"
    },
    {
      "inputs": [
        {
          "internalType": "uint256",
          "name": "tokenId",
          "type": "uint256"
        }
      ],
      "name": "getApproved",
      "outputs": [
        {
          "internalType": "address",
          "name": "",
          "type": "address"
        }
      ],
      "stateMutability": "view",
      "type": "function"
    },
    {
      "inputs": [],
      "name": "getBalanceOfContract",
      "outputs": [
        {
          "internalType": "uint256",
          "name": "",
          "type": "uint256"
        }
      ],
      "stateMutability": "view",
      "type": "function"
    },
    {
      "inputs": [
        {
          "internalType": "address",
          "name": "seller",
          "type": "address"
        }
      ],
      "name": "getBalanceOfSeller",
      "outputs": [
        {
          "internalType": "uint256",
          "name": "",
          "type": "uint256"
        }
      ],
      "stateMutability": "view",
      "type": "function"
    },
    {
      "inputs": [],
      "name": "getFestivalCurrencyTicketAddress",
      "outputs": [
        {
          "internalType": "address",
          "name": "",
          "type": "address"
        }
      ],
      "stateMutability": "view",
      "type": "function"
    },
    {
      "inputs": [],
      "name": "getFestivalMarketPlaceAddress",
      "outputs": [
        {
          "internalType": "address",
          "name": "",
          "type": "address"
        }
      ],
      "stateMutability": "view",
      "type": "function"
    },
    {
      "inputs": [],
      "name": "getFestivalTicketNFTName",
      "outputs": [
        {
          "internalType": "string",
          "name": "",
          "type": "string"
        }
      ],
      "stateMutability": "view",
      "type": "function"
    },
    {
      "inputs": [
        {
          "internalType": "uint256",
          "name": "_ticketId",
          "type": "uint256"
        }
      ],
      "name": "getFestivalTicketNFTOwnerByTicketId",
      "outputs": [
        {
          "internalType": "address",
          "name": "",
          "type": "address"
        }
      ],
      "stateMutability": "view",
      "type": "function"
    },
    {
      "inputs": [
        {
          "internalType": "uint256",
          "name": "_ticketId",
          "type": "uint256"
        }
      ],
      "name": "getFestivalTicketNFTPrice",
      "outputs": [
        {
          "internalType": "uint256",
          "name": "",
          "type": "uint256"
        }
      ],
      "stateMutability": "view",
      "type": "function"
    },
    {
      "inputs": [],
      "name": "getFestivalTicketNFTSymbol",
      "outputs": [
        {
          "internalType": "string",
          "name": "",
          "type": "string"
        }
      ],
      "stateMutability": "view",
      "type": "function"
    },
    {
      "inputs": [],
      "name": "getOwner",
      "outputs": [
        {
          "internalType": "address",
          "name": "",
          "type": "address"
        }
      ],
      "stateMutability": "view",
      "type": "function"
    },
    {
      "inputs": [
        {
          "internalType": "address",
          "name": "user",
          "type": "address"
        }
      ],
      "name": "getTicketBalanceOfUser",
      "outputs": [
        {
          "internalType": "uint256",
          "name": "",
          "type": "uint256"
        }
      ],
      "stateMutability": "view",
      "type": "function"
    },
    {
      "inputs": [],
      "name": "getTicketListing",
      "outputs": [
        {
          "components": [
            {
              "internalType": "uint256",
              "name": "ticketId",
              "type": "uint256"
            },
            {
              "internalType": "address",
              "name": "seller",
              "type": "address"
            },
            {
              "internalType": "uint256",
              "name": "price",
              "type": "uint256"
            }
          ],
          "internalType": "struct FestivalTicketMarketPlace.TicketListing[]",
          "name": "",
          "type": "tuple[]"
        }
      ],
      "stateMutability": "view",
      "type": "function"
    },
    {
      "inputs": [],
      "name": "getTicketPrice",
      "outputs": [
        {
          "internalType": "uint256",
          "name": "",
          "type": "uint256"
        }
      ],
      "stateMutability": "view",
      "type": "function"
    },
    {
      "inputs": [
        {
          "internalType": "uint256",
          "name": "_ticketId",
          "type": "uint256"
        }
      ],
      "name": "getTicketPriceByTicketId",
      "outputs": [
        {
          "internalType": "uint256",
          "name": "",
          "type": "uint256"
        }
      ],
      "stateMutability": "view",
      "type": "function"
    },
    {
      "inputs": [],
      "name": "getTotalSoldTickets",
      "outputs": [
        {
          "internalType": "uint256",
          "name": "",
          "type": "uint256"
        }
      ],
      "stateMutability": "view",
      "type": "function"
    },
    {
      "inputs": [],
      "name": "getTotalTickets",
      "outputs": [
        {
          "internalType": "uint256",
          "name": "",
          "type": "uint256"
        }
      ],
      "stateMutability": "view",
      "type": "function"
    },
    {
      "inputs": [
        {
          "internalType": "address",
          "name": "owner",
          "type": "address"
        },
        {
          "internalType": "address",
          "name": "operator",
          "type": "address"
        }
      ],
      "name": "isApprovedForAll",
      "outputs": [
        {
          "internalType": "bool",
          "name": "",
          "type": "bool"
        }
      ],
      "stateMutability": "view",
      "type": "function"
    },
    {
      "inputs": [
        {
          "internalType": "uint256",
          "name": "_ticketId",
          "type": "uint256"
        },
        {
          "internalType": "uint256",
          "name": "_price",
          "type": "uint256"
        }
      ],
      "name": "listTicketForSale",
      "outputs": [],
      "stateMutability": "nonpayable",
      "type": "function"
    },
    {
      "inputs": [],
      "name": "name",
      "outputs": [
        {
          "internalType": "string",
          "name": "",
          "type": "string"
        }
      ],
      "stateMutability": "view",
      "type": "function"
    },
    {
      "inputs": [],
      "name": "owner",
      "outputs": [
        {
          "internalType": "address",
          "name": "",
          "type": "address"
        }
      ],
      "stateMutability": "view",
      "type": "function"
    },
    {
      "inputs": [
        {
          "internalType": "uint256",
          "name": "tokenId",
          "type": "uint256"
        }
      ],
      "name": "ownerOf",
      "outputs": [
        {
          "internalType": "address",
          "name": "",
          "type": "address"
        }
      ],
      "stateMutability": "view",
      "type": "function"
    },
    {
      "inputs": [],
      "name": "renounceOwnership",
      "outputs": [],
      "stateMutability": "nonpayable",
      "type": "function"
    },
    {
      "inputs": [
        {
          "internalType": "address",
          "name": "from",
          "type": "address"
        },
        {
          "internalType": "address",
          "name": "to",
          "type": "address"
        },
        {
          "internalType": "uint256",
          "name": "tokenId",
          "type": "uint256"
        }
      ],
      "name": "safeTransferFrom",
      "outputs": [],
      "stateMutability": "nonpayable",
      "type": "function"
    },
    {
      "inputs": [
        {
          "internalType": "address",
          "name": "from",
          "type": "address"
        },
        {
          "internalType": "address",
          "name": "to",
          "type": "address"
        },
        {
          "internalType": "uint256",
          "name": "tokenId",
          "type": "uint256"
        },
        {
          "internalType": "bytes",
          "name": "data",
          "type": "bytes"
        }
      ],
      "name": "safeTransferFrom",
      "outputs": [],
      "stateMutability": "nonpayable",
      "type": "function"
    },
    {
      "inputs": [
        {
          "internalType": "address",
          "name": "operator",
          "type": "address"
        },
        {
          "internalType": "bool",
          "name": "approved",
          "type": "bool"
        }
      ],
      "name": "setApprovalForAll",
      "outputs": [],
      "stateMutability": "nonpayable",
      "type": "function"
    },
    {
      "inputs": [
        {
          "internalType": "bytes4",
          "name": "interfaceId",
          "type": "bytes4"
        }
      ],
      "name": "supportsInterface",
      "outputs": [
        {
          "internalType": "bool",
          "name": "",
          "type": "bool"
        }
      ],
      "stateMutability": "view",
      "type": "function"
    },
    {
      "inputs": [],
      "name": "symbol",
      "outputs": [
        {
          "internalType": "string",
          "name": "",
          "type": "string"
        }
      ],
      "stateMutability": "view",
      "type": "function"
    },
    {
      "inputs": [
        {
          "internalType": "uint256",
          "name": "",
          "type": "uint256"
        }
      ],
      "name": "ticketListings",
      "outputs": [
        {
          "internalType": "uint256",
          "name": "ticketId",
          "type": "uint256"
        },
        {
          "internalType": "address",
          "name": "seller",
          "type": "address"
        },
        {
          "internalType": "uint256",
          "name": "price",
          "type": "uint256"
        }
      ],
      "stateMutability": "view",
      "type": "function"
    },
    {
      "inputs": [],
      "name": "ticketPrice",
      "outputs": [
        {
          "internalType": "uint256",
          "name": "",
          "type": "uint256"
        }
      ],
      "stateMutability": "view",
      "type": "function"
    },
    {
      "inputs": [],
      "name": "ticketSold",
      "outputs": [
        {
          "internalType": "uint256",
          "name": "",
          "type": "uint256"
        }
      ],
      "stateMutability": "view",
      "type": "function"
    },
    {
      "inputs": [
        {
          "internalType": "uint256",
          "name": "tokenId",
          "type": "uint256"
        }
      ],
      "name": "tokenURI",
      "outputs": [
        {
          "internalType": "string",
          "name": "",
          "type": "string"
        }
      ],
      "stateMutability": "view",
      "type": "function"
    },
    {
      "inputs": [
        {
          "internalType": "address",
          "name": "from",
          "type": "address"
        },
        {
          "internalType": "address",
          "name": "to",
          "type": "address"
        },
        {
          "internalType": "uint256",
          "name": "tokenId",
          "type": "uint256"
        }
      ],
      "name": "transferFrom",
      "outputs": [],
      "stateMutability": "nonpayable",
      "type": "function"
    },
    {
      "inputs": [
        {
          "internalType": "address",
          "name": "newOwner",
          "type": "address"
        }
      ],
      "name": "transferOwnership",
      "outputs": [],
      "stateMutability": "nonpayable",
      "type": "function"
    },
    {
      "inputs": [
        {
          "internalType": "uint256",
          "name": "_ticketId",
          "type": "uint256"
        },
        {
          "internalType": "uint256",
          "name": "_newPrice",
          "type": "uint256"
        }
      ],
      "name": "updateTicketPrice",
      "outputs": [],
      "stateMutability": "nonpayable",
      "type": "function"
    },
    {
      "inputs": [],
      "name": "withdrawBalance",
      "outputs": [
        {
          "internalType": "bool",
          "name": "",
          "type": "bool"
        }
      ],
      "stateMutability": "nonpayable",
      "type": "function"
    }
  ],
  "transactionHash": "0x97494a814adfcd648e6802d59e2678380d27c6313a42a2dac59fc0c42592cde2",
  "args": [
    "100000000000000000",
    "FestivalCurrencyTicket",
    "FCT",
    1000
  ],
  "numDeployments": 1,
  "solcInputHash": "b5e9d3f7538d730ba0787c993b6a565d",
  "bytecode": "0x60a06040526000600a556000600f553480156200001b57600080fd5b50604051620072ce380380620072ce83398181016040528101906200004191906200045a565b828281600090805190602001906200005b92919062000307565b5080600190805190602001906200007492919062000307565b505050620000976200008b6200023960201b60201c565b6200024160201b60201c565b6001600781905550808383604051620000b09062000398565b620000be939291906200058a565b604051809103906000f080158015620000db573d6000803e3d6000fd5b50600860006101000a81548173ffffffffffffffffffffffffffffffffffffffff021916908373ffffffffffffffffffffffffffffffffffffffff16021790555083600981905550806080818152505082600b90805190602001906200014392919062000307565b5081600c90805190602001906200015c92919062000307565b5033600e60006101000a81548173ffffffffffffffffffffffffffffffffffffffff021916908373ffffffffffffffffffffffffffffffffffffffff160217905550600860009054906101000a900473ffffffffffffffffffffffffffffffffffffffff1673ffffffffffffffffffffffffffffffffffffffff1663096cb2ce306040518263ffffffff1660e01b8152600401620001fb91906200056d565b600060405180830381600087803b1580156200021657600080fd5b505af11580156200022b573d6000803e3d6000fd5b5050505050505050620007cd565b600033905090565b6000600660009054906101000a900473ffffffffffffffffffffffffffffffffffffffff16905081600660006101000a81548173ffffffffffffffffffffffffffffffffffffffff021916908373ffffffffffffffffffffffffffffffffffffffff1602179055508173ffffffffffffffffffffffffffffffffffffffff168173ffffffffffffffffffffffffffffffffffffffff167f8be0079c531659141344cd1fd0a4f28419497f9722a3daafe3b4186f6b6457e060405160405180910390a35050565b8280546200031590620006c4565b90600052602060002090601f01602090048101928262000339576000855562000385565b82601f106200035457805160ff191683800117855562000385565b8280016001018555821562000385579182015b828111156200038457825182559160200191906001019062000367565b5b509050620003949190620003a6565b5090565b611f8d806200534183390190565b5b80821115620003c1576000816000905550600101620003a7565b5090565b6000620003dc620003d684620005fe565b620005d5565b905082815260208101848484011115620003fb57620003fa62000793565b5b620004088482856200068e565b509392505050565b600082601f8301126200042857620004276200078e565b5b81516200043a848260208601620003c5565b91505092915050565b6000815190506200045481620007b3565b92915050565b600080600080608085870312156200047757620004766200079d565b5b6000620004878782880162000443565b945050602085015167ffffffffffffffff811115620004ab57620004aa62000798565b5b620004b98782880162000410565b935050604085015167ffffffffffffffff811115620004dd57620004dc62000798565b5b620004eb8782880162000410565b9250506060620004fe8782880162000443565b91505092959194509250565b620005158162000650565b82525050565b6000620005288262000634565b6200053481856200063f565b9350620005468185602086016200068e565b6200055181620007a2565b840191505092915050565b620005678162000684565b82525050565b60006020820190506200058460008301846200050a565b92915050565b6000606082019050620005a160008301866200055c565b8181036020830152620005b581856200051b565b90508181036040830152620005cb81846200051b565b9050949350505050565b6000620005e1620005f4565b9050620005ef8282620006fa565b919050565b6000604051905090565b600067ffffffffffffffff8211156200061c576200061b6200075f565b5b6200062782620007a2565b9050602081019050919050565b600081519050919050565b600082825260208201905092915050565b60006200065d8262000664565b9050919050565b600073ffffffffffffffffffffffffffffffffffffffff82169050919050565b6000819050919050565b60005b83811015620006ae57808201518184015260208101905062000691565b83811115620006be576000848401525b50505050565b60006002820490506001821680620006dd57607f821691505b60208210811415620006f457620006f362000730565b5b50919050565b6200070582620007a2565b810181811067ffffffffffffffff821117156200072757620007266200075f565b5b80604052505050565b7f4e487b7100000000000000000000000000000000000000000000000000000000600052602260045260246000fd5b7f4e487b7100000000000000000000000000000000000000000000000000000000600052604160045260246000fd5b600080fd5b600080fd5b600080fd5b600080fd5b6000601f19601f8301169050919050565b620007be8162000684565b8114620007ca57600080fd5b50565b608051614b51620007f060003960008181610ae2015261252f0152614b516000f3fe6080604052600436106102515760003560e01c806370a0823111610139578063a46453b6116100b6578063d524d32d1161007a578063d524d32d146108f6578063e6fc76b91461091f578063e97b43b61461095c578063e985e9c514610978578063edca914c146109b5578063f2fde38b146109d357610251565b8063a46453b61461080f578063a9f0962c1461083a578063b88d4fde14610865578063c87b56dd1461088e578063c8aaf8ab146108cb57610251565b8063893d20e8116100fd578063893d20e8146107285780638da5cb5b1461075357806394611c371461077e57806395d89b41146107bb578063a22cb465146107e657610251565b806370a0823114610653578063715018a6146106905780637aa5e2fc146106a7578063849a5a3c146106d257806387bb7ae0146106fd57610251565b80632c49f35e116101d25780635fd8c710116101965780635fd8c710146105095780636084e59c1461053457806361bc221a146105715780636352211e1461059c57806368eed16c146105d9578063701430791461061657610251565b80632c49f35e1461043657806342842e0e1461045f5780634667073d14610488578063485cc439146104b357806352b3ead0146104de57610251565b8063095ea7b311610219578063095ea7b3146103655780631209b1f61461038e57806313c8c359146103b957806322968885146103e257806323b872dd1461040d57610251565b806301ffc9a71461025657806306e8337f1461029357806306fdde03146102be578063081812fc146102e95780630884f65914610326575b600080fd5b34801561026257600080fd5b5061027d60048036038101906102789190613ad8565b6109fc565b60405161028a91906140e2565b60405180910390f35b34801561029f57600080fd5b506102a8610ade565b6040516102b591906142f5565b60405180910390f35b3480156102ca57600080fd5b506102d3610b06565b6040516102e09190614133565b60405180910390f35b3480156102f557600080fd5b50610310600480360381019061030b9190613b32565b610b98565b60405161031d9190613fc2565b60405180910390f35b34801561033257600080fd5b5061034d60048036038101906103489190613b32565b610bde565b60405161035c93929190614310565b60405180910390f35b34801561037157600080fd5b5061038c60048036038101906103879190613a6b565b610c38565b005b34801561039a57600080fd5b506103a3610d50565b6040516103b091906142f5565b60405180910390f35b3480156103c557600080fd5b506103e060048036038101906103db9190613b32565b610d56565b005b3480156103ee57600080fd5b506103f7610f90565b60405161040491906142f5565b60405180910390f35b34801561041957600080fd5b50610434600480360381019061042f9190613955565b610f98565b005b34801561044257600080fd5b5061045d60048036038101906104589190613b8c565b610ff8565b005b34801561046b57600080fd5b5061048660048036038101906104819190613955565b6112b4565b005b34801561049457600080fd5b5061049d6112d4565b6040516104aa9190614133565b60405180910390f35b3480156104bf57600080fd5b506104c8611366565b6040516104d591906142f5565b60405180910390f35b3480156104ea57600080fd5b506104f361136c565b6040516105009190613fc2565b60405180910390f35b34801561051557600080fd5b5061051e611396565b60405161052b91906140e2565b60405180910390f35b34801561054057600080fd5b5061055b60048036038101906105569190613b32565b61156c565b6040516105689190613fc2565b60405180910390f35b34801561057d57600080fd5b5061058661157e565b60405161059391906142f5565b60405180910390f35b3480156105a857600080fd5b506105c360048036038101906105be9190613b32565b611584565b6040516105d09190613fc2565b60405180910390f35b3480156105e557600080fd5b5061060060048036038101906105fb91906138bb565b61160b565b60405161060d91906142f5565b60405180910390f35b34801561062257600080fd5b5061063d60048036038101906106389190613b32565b6116bf565b60405161064a91906142f5565b60405180910390f35b34801561065f57600080fd5b5061067a600480360381019061067591906138bb565b61175a565b60405161068791906142f5565b60405180910390f35b34801561069c57600080fd5b506106a5611812565b005b3480156106b357600080fd5b506106bc611826565b6040516106c99190614133565b60405180910390f35b3480156106de57600080fd5b506106e76118b8565b6040516106f491906142f5565b60405180910390f35b34801561070957600080fd5b506107126118c2565b60405161071f91906142f5565b60405180910390f35b34801561073457600080fd5b5061073d6118cc565b60405161074a9190613fc2565b60405180910390f35b34801561075f57600080fd5b506107686118f6565b6040516107759190613fc2565b60405180910390f35b34801561078a57600080fd5b506107a560048036038101906107a091906138bb565b611920565b6040516107b291906142f5565b60405180910390f35b3480156107c757600080fd5b506107d0611969565b6040516107dd9190614133565b60405180910390f35b3480156107f257600080fd5b5061080d60048036038101906108089190613a2b565b6119fb565b005b34801561081b57600080fd5b50610824611a11565b60405161083191906140fd565b60405180910390f35b34801561084657600080fd5b5061084f611a37565b60405161085c9190613fc2565b60405180910390f35b34801561087157600080fd5b5061088c600480360381019061088791906139a8565b611a3f565b005b34801561089a57600080fd5b506108b560048036038101906108b09190613b32565b611aa1565b6040516108c29190614133565b60405180910390f35b3480156108d757600080fd5b506108e0611b09565b6040516108ed91906140c0565b60405180910390f35b34801561090257600080fd5b5061091d60048036038101906109189190613b8c565b611bd2565b005b34801561092b57600080fd5b5061094660048036038101906109419190613b32565b611fd6565b60405161095391906142f5565b60405180910390f35b61097660048036038101906109719190613b32565b611ff3565b005b34801561098457600080fd5b5061099f600480360381019061099a9190613915565b612497565b6040516109ac91906140e2565b60405180910390f35b6109bd61252b565b6040516109ca91906142f5565b60405180910390f35b3480156109df57600080fd5b506109fa60048036038101906109f591906138bb565b612756565b005b60007f80ac58cd000000000000000000000000000000000000000000000000000000007bffffffffffffffffffffffffffffffffffffffffffffffffffffffff1916827bffffffffffffffffffffffffffffffffffffffffffffffffffffffff19161480610ac757507f5b5e139f000000000000000000000000000000000000000000000000000000007bffffffffffffffffffffffffffffffffffffffffffffffffffffffff1916827bffffffffffffffffffffffffffffffffffffffffffffffffffffffff1916145b80610ad75750610ad6826127da565b5b9050919050565b60007f0000000000000000000000000000000000000000000000000000000000000000905090565b606060008054610b15906145bb565b80601f0160208091040260200160405190810160405280929190818152602001828054610b41906145bb565b8015610b8e5780601f10610b6357610100808354040283529160200191610b8e565b820191906000526020600020905b815481529060010190602001808311610b7157829003601f168201915b5050505050905090565b6000610ba382612844565b6004600083815260200190815260200160002060009054906101000a900473ffffffffffffffffffffffffffffffffffffffff169050919050565b600d8181548110610bee57600080fd5b90600052602060002090600302016000915090508060000154908060010160009054906101000a900473ffffffffffffffffffffffffffffffffffffffff16908060020154905083565b6000610c4382611584565b90508073ffffffffffffffffffffffffffffffffffffffff168373ffffffffffffffffffffffffffffffffffffffff161415610cb4576040517f08c379a0000000000000000000000000000000000000000000000000000000008152600401610cab906142b5565b60405180910390fd5b8073ffffffffffffffffffffffffffffffffffffffff16610cd361288f565b73ffffffffffffffffffffffffffffffffffffffff161480610d025750610d0181610cfc61288f565b612497565b5b610d41576040517f08c379a0000000000000000000000000000000000000000000000000000000008152600401610d38906142d5565b60405180910390fd5b610d4b8383612897565b505050565b60095481565b803373ffffffffffffffffffffffffffffffffffffffff16610d7782611584565b73ffffffffffffffffffffffffffffffffffffffff1614610dcf57806040517f86168db9000000000000000000000000000000000000000000000000000000008152600401610dc691906142f5565b60405180910390fd5b81338073ffffffffffffffffffffffffffffffffffffffff16610df183611584565b73ffffffffffffffffffffffffffffffffffffffff1614610e4957816040517f86168db9000000000000000000000000000000000000000000000000000000008152600401610e4091906142f5565b60405180910390fd5b610e5284612950565b610e88576040517f102d993a00000000000000000000000000000000000000000000000000000000815260040160405180910390fd5b60005b600d80549050811015610f395784600d8281548110610ead57610eac6146f4565b5b9060005260206000209060030201600001541415610f2657600d8181548110610ed957610ed86146f4565b5b90600052602060002090600302016000808201600090556001820160006101000a81549073ffffffffffffffffffffffffffffffffffffffff021916905560028201600090555050610f39565b8080610f319061461e565b915050610e8b565b503373ffffffffffffffffffffffffffffffffffffffff16847ffe5eaede61dc828c5725b380b313912335bfd41aabe5bc86114139f2bbc7ab9e6000604051610f829190614118565b60405180910390a350505050565b600047905090565b610fa9610fa361288f565b826129ea565b610fe8576040517f08c379a0000000000000000000000000000000000000000000000000000000008152600401610fdf90614155565b60405180910390fd5b610ff3838383612a7f565b505050565b813373ffffffffffffffffffffffffffffffffffffffff1661101982611584565b73ffffffffffffffffffffffffffffffffffffffff161461107157806040517f86168db900000000000000000000000000000000000000000000000000000000815260040161106891906142f5565b60405180910390fd5b82338073ffffffffffffffffffffffffffffffffffffffff1661109383611584565b73ffffffffffffffffffffffffffffffffffffffff16146110eb57816040517f86168db90000000000000000000000000000000000000000000000000000000081526004016110e291906142f5565b60405180910390fd5b84846000601060008481526020019081526020016000205490506000600a82611114919061447a565b9050600081836111249190614424565b905080841115611160576040517fd14c838200000000000000000000000000000000000000000000000000000000815260040160405180910390fd5b6000891161119a576040517f2db9b9aa00000000000000000000000000000000000000000000000000000000815260040160405180910390fd5b6111a38a612950565b6111d9576040517f102d993a00000000000000000000000000000000000000000000000000000000815260040160405180910390fd5b60005b600d80549050811015611258578a600d82815481106111fe576111fd6146f4565b5b90600052602060002090600302016000015414156112455789600d828154811061122b5761122a6146f4565b5b906000526020600020906003020160020181905550611258565b80806112509061461e565b9150506111dc565b503373ffffffffffffffffffffffffffffffffffffffff168a7f032c557b7e578309200abcf182dfdd87766f7ef0a71891b34a11a3f3918f54a98b6040516112a091906142f5565b60405180910390a350505050505050505050565b6112cf83838360405180602001604052806000815250611a3f565b505050565b6060600c80546112e3906145bb565b80601f016020809104026020016040519081016040528092919081815260200182805461130f906145bb565b801561135c5780601f106113315761010080835404028352916020019161135c565b820191906000526020600020905b81548152906001019060200180831161133f57829003601f168201915b5050505050905090565b600a5481565b6000600860009054906101000a900473ffffffffffffffffffffffffffffffffffffffff16905090565b600080601160003373ffffffffffffffffffffffffffffffffffffffff1673ffffffffffffffffffffffffffffffffffffffff1681526020019081526020016000205490506000811161142057336040517f4fd967560000000000000000000000000000000000000000000000000000000081526004016114179190613fc2565b60405180910390fd5b6000601160003373ffffffffffffffffffffffffffffffffffffffff1673ffffffffffffffffffffffffffffffffffffffff1681526020019081526020016000208190555060003373ffffffffffffffffffffffffffffffffffffffff168260405161148b90613fad565b60006040518083038185875af1925050503d80600081146114c8576040519150601f19603f3d011682016040523d82523d6000602084013e6114cd565b606091505b50509050806115155733826040517f21e614b300000000000000000000000000000000000000000000000000000000815260040161150c929190614097565b60405180910390fd5b3373ffffffffffffffffffffffffffffffffffffffff167f5969688dc383c65fbe5c8b103cb414fb54bff02dd6f9309c49a8f265d78b321b8360405161155b91906142f5565b60405180910390a260019250505090565b600061157782611584565b9050919050565b600f5481565b60008061159083612d79565b9050600073ffffffffffffffffffffffffffffffffffffffff168173ffffffffffffffffffffffffffffffffffffffff161415611602576040517f08c379a00000000000000000000000000000000000000000000000000000000081526004016115f990614295565b60405180910390fd5b80915050919050565b6000600860009054906101000a900473ffffffffffffffffffffffffffffffffffffffff1673ffffffffffffffffffffffffffffffffffffffff166370a08231836040518263ffffffff1660e01b81526004016116689190613fc2565b60206040518083038186803b15801561168057600080fd5b505afa158015611694573d6000803e3d6000fd5b505050506040513d601f19601f820116820180604052508101906116b89190613b5f565b9050919050565b60008060005b600d8054905081101561173b5783600d82815481106116e7576116e66146f4565b5b906000526020600020906003020160000154141561172857600d8181548110611713576117126146f4565b5b90600052602060002090600302016002015491505b80806117339061461e565b9150506116c5565b50600081141561175057600954915050611755565b809150505b919050565b60008073ffffffffffffffffffffffffffffffffffffffff168273ffffffffffffffffffffffffffffffffffffffff1614156117cb576040517f08c379a00000000000000000000000000000000000000000000000000000000081526004016117c290614235565b60405180910390fd5b600360008373ffffffffffffffffffffffffffffffffffffffff1673ffffffffffffffffffffffffffffffffffffffff168152602001908152602001600020549050919050565b61181a612db6565b6118246000612e34565b565b6060600b8054611835906145bb565b80601f0160208091040260200160405190810160405280929190818152602001828054611861906145bb565b80156118ae5780601f10611883576101008083540402835291602001916118ae565b820191906000526020600020905b81548152906001019060200180831161189157829003601f168201915b5050505050905090565b6000600a54905090565b6000600954905090565b6000600e60009054906101000a900473ffffffffffffffffffffffffffffffffffffffff16905090565b6000600660009054906101000a900473ffffffffffffffffffffffffffffffffffffffff16905090565b6000601160008373ffffffffffffffffffffffffffffffffffffffff1673ffffffffffffffffffffffffffffffffffffffff168152602001908152602001600020549050919050565b606060018054611978906145bb565b80601f01602080910402602001604051908101604052809291908181526020018280546119a4906145bb565b80156119f15780601f106119c6576101008083540402835291602001916119f1565b820191906000526020600020905b8154815290600101906020018083116119d457829003601f168201915b5050505050905090565b611a0d611a0661288f565b8383612efa565b5050565b600860009054906101000a900473ffffffffffffffffffffffffffffffffffffffff1681565b600030905090565b611a50611a4a61288f565b836129ea565b611a8f576040517f08c379a0000000000000000000000000000000000000000000000000000000008152600401611a8690614155565b60405180910390fd5b611a9b84848484613067565b50505050565b6060611aac82612844565b6000611ab66130c3565b90506000815111611ad65760405180602001604052806000815250611b01565b80611ae0846130da565b604051602001611af1929190613f89565b6040516020818303038152906040525b915050919050565b6060600d805480602002602001604051908101604052809291908181526020016000905b82821015611bc95783829060005260206000209060030201604051806060016040529081600082015481526020016001820160009054906101000a900473ffffffffffffffffffffffffffffffffffffffff1673ffffffffffffffffffffffffffffffffffffffff1673ffffffffffffffffffffffffffffffffffffffff16815260200160028201548152505081526020019060010190611b2d565b50505050905090565b813373ffffffffffffffffffffffffffffffffffffffff16611bf382611584565b73ffffffffffffffffffffffffffffffffffffffff1614611c4b57806040517f86168db9000000000000000000000000000000000000000000000000000000008152600401611c4291906142f5565b60405180910390fd5b82338073ffffffffffffffffffffffffffffffffffffffff16611c6d83611584565b73ffffffffffffffffffffffffffffffffffffffff1614611cc557816040517f86168db9000000000000000000000000000000000000000000000000000000008152600401611cbc91906142f5565b60405180910390fd5b84846000601060008481526020019081526020016000205490506000600a82611cee919061447a565b905060008183611cfe9190614424565b905080841115611d3a576040517fd14c838200000000000000000000000000000000000000000000000000000000815260040160405180910390fd5b60008911611d74576040517f2db9b9aa00000000000000000000000000000000000000000000000000000000815260040160405180910390fd5b611d7d8a612950565b15611dbf57896040517fa0ba24a5000000000000000000000000000000000000000000000000000000008152600401611db691906142f5565b60405180910390fd5b611dc9308b610c38565b60003090503073ffffffffffffffffffffffffffffffffffffffff168173ffffffffffffffffffffffffffffffffffffffff1663081812fc8d6040518263ffffffff1660e01b8152600401611e1e91906142f5565b60206040518083038186803b158015611e3657600080fd5b505afa158015611e4a573d6000803e3d6000fd5b505050506040513d601f19601f82011682018060405250810190611e6e91906138e8565b73ffffffffffffffffffffffffffffffffffffffff1614611ebb576040517f57df683d00000000000000000000000000000000000000000000000000000000815260040160405180910390fd5b600060405180606001604052808d81526020013373ffffffffffffffffffffffffffffffffffffffff1681526020018c8152509050600d8190806001815401808255809150506001900390600052602060002090600302016000909190919091506000820151816000015560208201518160010160006101000a81548173ffffffffffffffffffffffffffffffffffffffff021916908373ffffffffffffffffffffffffffffffffffffffff1602179055506040820151816002015550503373ffffffffffffffffffffffffffffffffffffffff168c7f22968ec3be3687b180f3544163a034b88d57b48159d9a7e9a1b610fdb2d05f808d604051611fc091906142f5565b60405180910390a3505050505050505050505050565b600060106000838152602001908152602001600020549050919050565b600034141561202e576040517f57d0e34f00000000000000000000000000000000000000000000000000000000815260040160405180910390fd5b60008060005b600d805490508110156120f25783600d8281548110612056576120556146f4565b5b90600052602060002090600302016000015414156120df57600d8181548110612082576120816146f4565b5b9060005260206000209060030201600201549250600d81815481106120aa576120a96146f4565b5b906000526020600020906003020160010160009054906101000a900473ffffffffffffffffffffffffffffffffffffffff1691505b80806120ea9061461e565b915050612034565b50600082141561212e576040517f102d993a00000000000000000000000000000000000000000000000000000000815260040160405180910390fd5b3373ffffffffffffffffffffffffffffffffffffffff168173ffffffffffffffffffffffffffffffffffffffff16141561219f57826040517f14e41f3600000000000000000000000000000000000000000000000000000000815260040161219691906142f5565b60405180910390fd5b8134146121d8576040517f57d0e34f00000000000000000000000000000000000000000000000000000000815260040160405180910390fd5b6000600860009054906101000a900473ffffffffffffffffffffffffffffffffffffffff1673ffffffffffffffffffffffffffffffffffffffff166323b872dd833360016040518463ffffffff1660e01b815260040161223a93929190613fdd565b602060405180830381600087803b15801561225457600080fd5b505af1158015612268573d6000803e3d6000fd5b505050506040513d601f19601f8201168201806040525081019061228c9190613aab565b9050806122c5576040517fc09aff6600000000000000000000000000000000000000000000000000000000815260040160405180910390fd5b60003090508073ffffffffffffffffffffffffffffffffffffffff166342842e0e8433886040518463ffffffff1660e01b815260040161230793929190614014565b600060405180830381600087803b15801561232157600080fd5b505af1158015612335573d6000803e3d6000fd5b5050505060005b600d805490508110156123ea5785600d828154811061235e5761235d6146f4565b5b90600052602060002090600302016000015414156123d757600d818154811061238a576123896146f4565b5b90600052602060002090600302016000808201600090556001820160006101000a81549073ffffffffffffffffffffffffffffffffffffffff0219169055600282016000905550506123ea565b80806123e29061461e565b91505061233c565b5083601160008573ffffffffffffffffffffffffffffffffffffffff1673ffffffffffffffffffffffffffffffffffffffff168152602001908152602001600020600082825461243a9190614424565b92505081905550843373ffffffffffffffffffffffffffffffffffffffff167f97fac0ce6558f4accbb4696915809c0ef7023ffe7ba9454e94d49fb652aae1d53460405161248891906142f5565b60405180910390a35050505050565b6000600560008473ffffffffffffffffffffffffffffffffffffffff1673ffffffffffffffffffffffffffffffffffffffff16815260200190815260200160002060008373ffffffffffffffffffffffffffffffffffffffff1673ffffffffffffffffffffffffffffffffffffffff16815260200190815260200160002060009054906101000a900460ff16905092915050565b60007f0000000000000000000000000000000000000000000000000000000000000000600a5410612588576040517f8d1b6bfb00000000000000000000000000000000000000000000000000000000815260040160405180910390fd5b60095434146125c3576040517f57d0e34f00000000000000000000000000000000000000000000000000000000815260040160405180910390fd5b6000600190506000600860009054906101000a900473ffffffffffffffffffffffffffffffffffffffff1673ffffffffffffffffffffffffffffffffffffffff166323b872dd3033856040518463ffffffff1660e01b815260040161262a93929190614014565b602060405180830381600087803b15801561264457600080fd5b505af1158015612658573d6000803e3d6000fd5b505050506040513d601f19601f8201168201806040525081019061267c9190613aab565b9050806126b5576040517fc09aff6600000000000000000000000000000000000000000000000000000000815260040160405180910390fd5b6001600a546126c49190614424565b9250600a60008154809291906126d99061461e565b9190505550600954601060008581526020019081526020016000208190555061270233846131b2565b823373ffffffffffffffffffffffffffffffffffffffff167f97fac0ce6558f4accbb4696915809c0ef7023ffe7ba9454e94d49fb652aae1d53460405161274991906142f5565b60405180910390a3505090565b61275e612db6565b600073ffffffffffffffffffffffffffffffffffffffff168173ffffffffffffffffffffffffffffffffffffffff1614156127ce576040517f08c379a00000000000000000000000000000000000000000000000000000000081526004016127c590614195565b60405180910390fd5b6127d781612e34565b50565b60007f01ffc9a7000000000000000000000000000000000000000000000000000000007bffffffffffffffffffffffffffffffffffffffffffffffffffffffff1916827bffffffffffffffffffffffffffffffffffffffffffffffffffffffff1916149050919050565b61284d816131d0565b61288c576040517f08c379a000000000000000000000000000000000000000000000000000000000815260040161288390614295565b60405180910390fd5b50565b600033905090565b816004600083815260200190815260200160002060006101000a81548173ffffffffffffffffffffffffffffffffffffffff021916908373ffffffffffffffffffffffffffffffffffffffff160217905550808273ffffffffffffffffffffffffffffffffffffffff1661290a83611584565b73ffffffffffffffffffffffffffffffffffffffff167f8c5be1e5ebec7d5bd14f71427d1e84f3dd0314c0f7b2291e5b200ac8c7c3b92560405160405180910390a45050565b60008060005b600d805490508110156129cc5783600d8281548110612978576129776146f4565b5b90600052602060002090600302016000015414156129b957600d81815481106129a4576129a36146f4565b5b90600052602060002090600302016000015491505b80806129c49061461e565b915050612956565b50600081146129df5760019150506129e5565b60009150505b919050565b6000806129f683611584565b90508073ffffffffffffffffffffffffffffffffffffffff168473ffffffffffffffffffffffffffffffffffffffff161480612a385750612a378185612497565b5b80612a7657508373ffffffffffffffffffffffffffffffffffffffff16612a5e84610b98565b73ffffffffffffffffffffffffffffffffffffffff16145b91505092915050565b8273ffffffffffffffffffffffffffffffffffffffff16612a9f82611584565b73ffffffffffffffffffffffffffffffffffffffff1614612af5576040517f08c379a0000000000000000000000000000000000000000000000000000000008152600401612aec906141b5565b60405180910390fd5b600073ffffffffffffffffffffffffffffffffffffffff168273ffffffffffffffffffffffffffffffffffffffff161415612b65576040517f08c379a0000000000000000000000000000000000000000000000000000000008152600401612b5c906141f5565b60405180910390fd5b612b728383836001613211565b8273ffffffffffffffffffffffffffffffffffffffff16612b9282611584565b73ffffffffffffffffffffffffffffffffffffffff1614612be8576040517f08c379a0000000000000000000000000000000000000000000000000000000008152600401612bdf906141b5565b60405180910390fd5b6004600082815260200190815260200160002060006101000a81549073ffffffffffffffffffffffffffffffffffffffff02191690556001600360008573ffffffffffffffffffffffffffffffffffffffff1673ffffffffffffffffffffffffffffffffffffffff168152602001908152602001600020600082825403925050819055506001600360008473ffffffffffffffffffffffffffffffffffffffff1673ffffffffffffffffffffffffffffffffffffffff16815260200190815260200160002060008282540192505081905550816002600083815260200190815260200160002060006101000a81548173ffffffffffffffffffffffffffffffffffffffff021916908373ffffffffffffffffffffffffffffffffffffffff160217905550808273ffffffffffffffffffffffffffffffffffffffff168473ffffffffffffffffffffffffffffffffffffffff167fddf252ad1be2c89b69c2b068fc378daa952ba7f163c4a11628f55a4df523b3ef60405160405180910390a4612d748383836001613217565b505050565b60006002600083815260200190815260200160002060009054906101000a900473ffffffffffffffffffffffffffffffffffffffff169050919050565b612dbe61288f565b73ffffffffffffffffffffffffffffffffffffffff16612ddc6118f6565b73ffffffffffffffffffffffffffffffffffffffff1614612e32576040517f08c379a0000000000000000000000000000000000000000000000000000000008152600401612e2990614275565b60405180910390fd5b565b6000600660009054906101000a900473ffffffffffffffffffffffffffffffffffffffff16905081600660006101000a81548173ffffffffffffffffffffffffffffffffffffffff021916908373ffffffffffffffffffffffffffffffffffffffff1602179055508173ffffffffffffffffffffffffffffffffffffffff168173ffffffffffffffffffffffffffffffffffffffff167f8be0079c531659141344cd1fd0a4f28419497f9722a3daafe3b4186f6b6457e060405160405180910390a35050565b8173ffffffffffffffffffffffffffffffffffffffff168373ffffffffffffffffffffffffffffffffffffffff161415612f69576040517f08c379a0000000000000000000000000000000000000000000000000000000008152600401612f6090614215565b60405180910390fd5b80600560008573ffffffffffffffffffffffffffffffffffffffff1673ffffffffffffffffffffffffffffffffffffffff16815260200190815260200160002060008473ffffffffffffffffffffffffffffffffffffffff1673ffffffffffffffffffffffffffffffffffffffff16815260200190815260200160002060006101000a81548160ff0219169083151502179055508173ffffffffffffffffffffffffffffffffffffffff168373ffffffffffffffffffffffffffffffffffffffff167f17307eab39ab6107e8899845ad3d59bd9653f200f220920489ca2b5937696c318360405161305a91906140e2565b60405180910390a3505050565b613072848484612a7f565b61307e8484848461321d565b6130bd576040517f08c379a00000000000000000000000000000000000000000000000000000000081526004016130b490614175565b60405180910390fd5b50505050565b606060405180602001604052806000815250905090565b6060600060016130e9846133b4565b01905060008167ffffffffffffffff81111561310857613107614723565b5b6040519080825280601f01601f19166020018201604052801561313a5781602001600182028036833780820191505090505b509050600082602001820190505b6001156131a7578080600190039150507f3031323334353637383961626364656600000000000000000000000000000000600a86061a8153600a858161319157613190614696565b5b04945060008514156131a2576131a7565b613148565b819350505050919050565b6131cc828260405180602001604052806000815250613507565b5050565b60008073ffffffffffffffffffffffffffffffffffffffff166131f283612d79565b73ffffffffffffffffffffffffffffffffffffffff1614159050919050565b50505050565b50505050565b600061323e8473ffffffffffffffffffffffffffffffffffffffff16613562565b156133a7578373ffffffffffffffffffffffffffffffffffffffff1663150b7a0261326761288f565b8786866040518563ffffffff1660e01b8152600401613289949392919061404b565b602060405180830381600087803b1580156132a357600080fd5b505af19250505080156132d457506040513d601f19601f820116820180604052508101906132d19190613b05565b60015b613357573d8060008114613304576040519150601f19603f3d011682016040523d82523d6000602084013e613309565b606091505b5060008151141561334f576040517f08c379a000000000000000000000000000000000000000000000000000000000815260040161334690614175565b60405180910390fd5b805181602001fd5b63150b7a0260e01b7bffffffffffffffffffffffffffffffffffffffffffffffffffffffff1916817bffffffffffffffffffffffffffffffffffffffffffffffffffffffff1916149150506133ac565b600190505b949350505050565b600080600090507a184f03e93ff9f4daa797ed6e38ed64bf6a1f0100000000000000008310613412577a184f03e93ff9f4daa797ed6e38ed64bf6a1f010000000000000000838161340857613407614696565b5b0492506040810190505b6d04ee2d6d415b85acef8100000000831061344f576d04ee2d6d415b85acef8100000000838161344557613444614696565b5b0492506020810190505b662386f26fc10000831061347e57662386f26fc10000838161347457613473614696565b5b0492506010810190505b6305f5e10083106134a7576305f5e100838161349d5761349c614696565b5b0492506008810190505b61271083106134cc5761271083816134c2576134c1614696565b5b0492506004810190505b606483106134ef57606483816134e5576134e4614696565b5b0492506002810190505b600a83106134fe576001810190505b80915050919050565b6135118383613585565b61351e600084848461321d565b61355d576040517f08c379a000000000000000000000000000000000000000000000000000000000815260040161355490614175565b60405180910390fd5b505050565b6000808273ffffffffffffffffffffffffffffffffffffffff163b119050919050565b600073ffffffffffffffffffffffffffffffffffffffff168273ffffffffffffffffffffffffffffffffffffffff1614156135f5576040517f08c379a00000000000000000000000000000000000000000000000000000000081526004016135ec90614255565b60405180910390fd5b6135fe816131d0565b1561363e576040517f08c379a0000000000000000000000000000000000000000000000000000000008152600401613635906141d5565b60405180910390fd5b61364c600083836001613211565b613655816131d0565b15613695576040517f08c379a000000000000000000000000000000000000000000000000000000000815260040161368c906141d5565b60405180910390fd5b6001600360008473ffffffffffffffffffffffffffffffffffffffff1673ffffffffffffffffffffffffffffffffffffffff16815260200190815260200160002060008282540192505081905550816002600083815260200190815260200160002060006101000a81548173ffffffffffffffffffffffffffffffffffffffff021916908373ffffffffffffffffffffffffffffffffffffffff160217905550808273ffffffffffffffffffffffffffffffffffffffff16600073ffffffffffffffffffffffffffffffffffffffff167fddf252ad1be2c89b69c2b068fc378daa952ba7f163c4a11628f55a4df523b3ef60405160405180910390a461379f600083836001613217565b5050565b60006137b66137b18461436c565b614347565b9050828152602081018484840111156137d2576137d1614757565b5b6137dd848285614579565b509392505050565b6000813590506137f481614abf565b92915050565b60008151905061380981614abf565b92915050565b60008135905061381e81614ad6565b92915050565b60008151905061383381614ad6565b92915050565b60008135905061384881614aed565b92915050565b60008151905061385d81614aed565b92915050565b600082601f83011261387857613877614752565b5b81356138888482602086016137a3565b91505092915050565b6000813590506138a081614b04565b92915050565b6000815190506138b581614b04565b92915050565b6000602082840312156138d1576138d0614761565b5b60006138df848285016137e5565b91505092915050565b6000602082840312156138fe576138fd614761565b5b600061390c848285016137fa565b91505092915050565b6000806040838503121561392c5761392b614761565b5b600061393a858286016137e5565b925050602061394b858286016137e5565b9150509250929050565b60008060006060848603121561396e5761396d614761565b5b600061397c868287016137e5565b935050602061398d868287016137e5565b925050604061399e86828701613891565b9150509250925092565b600080600080608085870312156139c2576139c1614761565b5b60006139d0878288016137e5565b94505060206139e1878288016137e5565b93505060406139f287828801613891565b925050606085013567ffffffffffffffff811115613a1357613a1261475c565b5b613a1f87828801613863565b91505092959194509250565b60008060408385031215613a4257613a41614761565b5b6000613a50858286016137e5565b9250506020613a618582860161380f565b9150509250929050565b60008060408385031215613a8257613a81614761565b5b6000613a90858286016137e5565b9250506020613aa185828601613891565b9150509250929050565b600060208284031215613ac157613ac0614761565b5b6000613acf84828501613824565b91505092915050565b600060208284031215613aee57613aed614761565b5b6000613afc84828501613839565b91505092915050565b600060208284031215613b1b57613b1a614761565b5b6000613b298482850161384e565b91505092915050565b600060208284031215613b4857613b47614761565b5b6000613b5684828501613891565b91505092915050565b600060208284031215613b7557613b74614761565b5b6000613b83848285016138a6565b91505092915050565b60008060408385031215613ba357613ba2614761565b5b6000613bb185828601613891565b9250506020613bc285828601613891565b9150509250929050565b6000613bd88383613f29565b60608301905092915050565b613bed816144ab565b82525050565b613bfc816144ab565b82525050565b6000613c0d826143ad565b613c1781856143db565b9350613c228361439d565b8060005b83811015613c53578151613c3a8882613bcc565b9750613c45836143ce565b925050600181019050613c26565b5085935050505092915050565b613c69816144bd565b82525050565b6000613c7a826143b8565b613c8481856143ec565b9350613c94818560208601614588565b613c9d81614766565b840191505092915050565b613cb18161451f565b82525050565b613cc081614531565b82525050565b613ccf81614543565b82525050565b6000613ce0826143c3565b613cea8185614408565b9350613cfa818560208601614588565b613d0381614766565b840191505092915050565b6000613d19826143c3565b613d238185614419565b9350613d33818560208601614588565b80840191505092915050565b6000613d4c602d83614408565b9150613d5782614777565b604082019050919050565b6000613d6f603283614408565b9150613d7a826147c6565b604082019050919050565b6000613d92602683614408565b9150613d9d82614815565b604082019050919050565b6000613db5602583614408565b9150613dc082614864565b604082019050919050565b6000613dd8601c83614408565b9150613de3826148b3565b602082019050919050565b6000613dfb602483614408565b9150613e06826148dc565b604082019050919050565b6000613e1e601983614408565b9150613e298261492b565b602082019050919050565b6000613e41602983614408565b9150613e4c82614954565b604082019050919050565b6000613e64602083614408565b9150613e6f826149a3565b602082019050919050565b6000613e87602083614408565b9150613e92826149cc565b602082019050919050565b6000613eaa601883614408565b9150613eb5826149f5565b602082019050919050565b6000613ecd602183614408565b9150613ed882614a1e565b604082019050919050565b6000613ef06000836143fd565b9150613efb82614a6d565b600082019050919050565b6000613f13603d83614408565b9150613f1e82614a70565b604082019050919050565b606082016000820151613f3f6000850182613f6b565b506020820151613f526020850182613be4565b506040820151613f656040850182613f6b565b50505050565b613f7481614515565b82525050565b613f8381614515565b82525050565b6000613f958285613d0e565b9150613fa18284613d0e565b91508190509392505050565b6000613fb882613ee3565b9150819050919050565b6000602082019050613fd76000830184613bf3565b92915050565b6000606082019050613ff26000830186613bf3565b613fff6020830185613bf3565b61400c6040830184613cc6565b949350505050565b60006060820190506140296000830186613bf3565b6140366020830185613bf3565b6140436040830184613f7a565b949350505050565b60006080820190506140606000830187613bf3565b61406d6020830186613bf3565b61407a6040830185613f7a565b818103606083015261408c8184613c6f565b905095945050505050565b60006040820190506140ac6000830185613bf3565b6140b96020830184613f7a565b9392505050565b600060208201905081810360008301526140da8184613c02565b905092915050565b60006020820190506140f76000830184613c60565b92915050565b60006020820190506141126000830184613ca8565b92915050565b600060208201905061412d6000830184613cb7565b92915050565b6000602082019050818103600083015261414d8184613cd5565b905092915050565b6000602082019050818103600083015261416e81613d3f565b9050919050565b6000602082019050818103600083015261418e81613d62565b9050919050565b600060208201905081810360008301526141ae81613d85565b9050919050565b600060208201905081810360008301526141ce81613da8565b9050919050565b600060208201905081810360008301526141ee81613dcb565b9050919050565b6000602082019050818103600083015261420e81613dee565b9050919050565b6000602082019050818103600083015261422e81613e11565b9050919050565b6000602082019050818103600083015261424e81613e34565b9050919050565b6000602082019050818103600083015261426e81613e57565b9050919050565b6000602082019050818103600083015261428e81613e7a565b9050919050565b600060208201905081810360008301526142ae81613e9d565b9050919050565b600060208201905081810360008301526142ce81613ec0565b9050919050565b600060208201905081810360008301526142ee81613f06565b9050919050565b600060208201905061430a6000830184613f7a565b92915050565b60006060820190506143256000830186613f7a565b6143326020830185613bf3565b61433f6040830184613f7a565b949350505050565b6000614351614362565b905061435d82826145ed565b919050565b6000604051905090565b600067ffffffffffffffff82111561438757614386614723565b5b61439082614766565b9050602081019050919050565b6000819050602082019050919050565b600081519050919050565b600081519050919050565b600081519050919050565b6000602082019050919050565b600082825260208201905092915050565b600082825260208201905092915050565b600081905092915050565b600082825260208201905092915050565b600081905092915050565b600061442f82614515565b915061443a83614515565b9250827fffffffffffffffffffffffffffffffffffffffffffffffffffffffffffffffff0382111561446f5761446e614667565b5b828201905092915050565b600061448582614515565b915061449083614515565b9250826144a05761449f614696565b5b828204905092915050565b60006144b6826144f5565b9050919050565b60008115159050919050565b60007fffffffff0000000000000000000000000000000000000000000000000000000082169050919050565b600073ffffffffffffffffffffffffffffffffffffffff82169050919050565b6000819050919050565b600061452a82614555565b9050919050565b600061453c82614515565b9050919050565b600061454e82614515565b9050919050565b600061456082614567565b9050919050565b6000614572826144f5565b9050919050565b82818337600083830152505050565b60005b838110156145a657808201518184015260208101905061458b565b838111156145b5576000848401525b50505050565b600060028204905060018216806145d357607f821691505b602082108114156145e7576145e66146c5565b5b50919050565b6145f682614766565b810181811067ffffffffffffffff8211171561461557614614614723565b5b80604052505050565b600061462982614515565b91507fffffffffffffffffffffffffffffffffffffffffffffffffffffffffffffffff82141561465c5761465b614667565b5b600182019050919050565b7f4e487b7100000000000000000000000000000000000000000000000000000000600052601160045260246000fd5b7f4e487b7100000000000000000000000000000000000000000000000000000000600052601260045260246000fd5b7f4e487b7100000000000000000000000000000000000000000000000000000000600052602260045260246000fd5b7f4e487b7100000000000000000000000000000000000000000000000000000000600052603260045260246000fd5b7f4e487b7100000000000000000000000000000000000000000000000000000000600052604160045260246000fd5b600080fd5b600080fd5b600080fd5b600080fd5b6000601f19601f8301169050919050565b7f4552433732313a2063616c6c6572206973206e6f7420746f6b656e206f776e6560008201527f72206f7220617070726f76656400000000000000000000000000000000000000602082015250565b7f4552433732313a207472616e7366657220746f206e6f6e20455243373231526560008201527f63656976657220696d706c656d656e7465720000000000000000000000000000602082015250565b7f4f776e61626c653a206e6577206f776e657220697320746865207a65726f206160008201527f6464726573730000000000000000000000000000000000000000000000000000602082015250565b7f4552433732313a207472616e736665722066726f6d20696e636f72726563742060008201527f6f776e6572000000000000000000000000000000000000000000000000000000602082015250565b7f4552433732313a20746f6b656e20616c7265616479206d696e74656400000000600082015250565b7f4552433732313a207472616e7366657220746f20746865207a65726f2061646460008201527f7265737300000000000000000000000000000000000000000000000000000000602082015250565b7f4552433732313a20617070726f766520746f2063616c6c657200000000000000600082015250565b7f4552433732313a2061646472657373207a65726f206973206e6f74206120766160008201527f6c6964206f776e65720000000000000000000000000000000000000000000000602082015250565b7f4552433732313a206d696e7420746f20746865207a65726f2061646472657373600082015250565b7f4f776e61626c653a2063616c6c6572206973206e6f7420746865206f776e6572600082015250565b7f4552433732313a20696e76616c696420746f6b656e2049440000000000000000600082015250565b7f4552433732313a20617070726f76616c20746f2063757272656e74206f776e6560008201527f7200000000000000000000000000000000000000000000000000000000000000602082015250565b50565b7f4552433732313a20617070726f76652063616c6c6572206973206e6f7420746f60008201527f6b656e206f776e6572206f7220617070726f76656420666f7220616c6c000000602082015250565b614ac8816144ab565b8114614ad357600080fd5b50565b614adf816144bd565b8114614aea57600080fd5b50565b614af6816144c9565b8114614b0157600080fd5b50565b614b0d81614515565b8114614b1857600080fd5b5056fea2646970667358221220d9d382d2df0e76d1690e9fe71a963f2d008b20da0f6085f15c839d2cf7062d2d64736f6c63430008070033608060405233600560006101000a81548173ffffffffffffffffffffffffffffffffffffffff021916908373ffffffffffffffffffffffffffffffffffffffff1602179055503480156200005257600080fd5b5060405162001f8d38038062001f8d83398181016040528101906200007891906200038f565b81818160039080519060200190620000929291906200024a565b508060049080519060200190620000ab9291906200024a565b505050620000c2336103e8620000d260201b60201c565b826006819055505050506200070e565b600073ffffffffffffffffffffffffffffffffffffffff168273ffffffffffffffffffffffffffffffffffffffff16141562000145576040517f08c379a00000000000000000000000000000000000000000000000000000000081526004016200013c9062000461565b60405180910390fd5b62000159600083836200024060201b60201c565b80600260008282546200016d919062000510565b92505081905550806000808473ffffffffffffffffffffffffffffffffffffffff1673ffffffffffffffffffffffffffffffffffffffff168152602001908152602001600020600082825401925050819055508173ffffffffffffffffffffffffffffffffffffffff16600073ffffffffffffffffffffffffffffffffffffffff167fddf252ad1be2c89b69c2b068fc378daa952ba7f163c4a11628f55a4df523b3ef8360405162000220919062000483565b60405180910390a36200023c600083836200024560201b60201c565b5050565b505050565b505050565b8280546200025890620005ad565b90600052602060002090601f0160209004810192826200027c5760008555620002c8565b82601f106200029757805160ff1916838001178555620002c8565b82800160010185558215620002c8579182015b82811115620002c7578251825591602001919060010190620002aa565b5b509050620002d79190620002db565b5090565b5b80821115620002f6576000816000905550600101620002dc565b5090565b6000620003116200030b84620004c9565b620004a0565b90508281526020810184848401111562000330576200032f620006ab565b5b6200033d84828562000577565b509392505050565b600082601f8301126200035d576200035c620006a6565b5b81516200036f848260208601620002fa565b91505092915050565b6000815190506200038981620006f4565b92915050565b600080600060608486031215620003ab57620003aa620006b5565b5b6000620003bb8682870162000378565b935050602084015167ffffffffffffffff811115620003df57620003de620006b0565b5b620003ed8682870162000345565b925050604084015167ffffffffffffffff811115620004115762000410620006b0565b5b6200041f8682870162000345565b9150509250925092565b600062000438601f83620004ff565b91506200044582620006cb565b602082019050919050565b6200045b816200056d565b82525050565b600060208201905081810360008301526200047c8162000429565b9050919050565b60006020820190506200049a600083018462000450565b92915050565b6000620004ac620004bf565b9050620004ba8282620005e3565b919050565b6000604051905090565b600067ffffffffffffffff821115620004e757620004e662000677565b5b620004f282620006ba565b9050602081019050919050565b600082825260208201905092915050565b60006200051d826200056d565b91506200052a836200056d565b9250827fffffffffffffffffffffffffffffffffffffffffffffffffffffffffffffffff0382111562000562576200056162000619565b5b828201905092915050565b6000819050919050565b60005b83811015620005975780820151818401526020810190506200057a565b83811115620005a7576000848401525b50505050565b60006002820490506001821680620005c657607f821691505b60208210811415620005dd57620005dc62000648565b5b50919050565b620005ee82620006ba565b810181811067ffffffffffffffff8211171562000610576200060f62000677565b5b80604052505050565b7f4e487b7100000000000000000000000000000000000000000000000000000000600052601160045260246000fd5b7f4e487b7100000000000000000000000000000000000000000000000000000000600052602260045260246000fd5b7f4e487b7100000000000000000000000000000000000000000000000000000000600052604160045260246000fd5b600080fd5b600080fd5b600080fd5b600080fd5b6000601f19601f8301169050919050565b7f45524332303a206d696e7420746f20746865207a65726f206164647265737300600082015250565b620006ff816200056d565b81146200070b57600080fd5b50565b61186f806200071e6000396000f3fe608060405234801561001057600080fd5b50600436106100ea5760003560e01c8063395093511161008c57806395d89b411161006657806395d89b411461025f578063a457c2d71461027d578063a9059cbb146102ad578063dd62ed3e146102dd576100ea565b806339509351146101e157806370a08231146102115780638da5cb5b14610241576100ea565b8063096cb2ce116100c8578063096cb2ce1461015957806318160ddd1461017557806323b872dd14610193578063313ce567146101c3576100ea565b8063022fc88b146100ef57806306fdde031461010b578063095ea7b314610129575b600080fd5b61010960048036038101906101049190610ff6565b61030d565b005b61011361031c565b60405161012091906111f9565b60405180910390f35b610143600480360381019061013e9190610ff6565b6103ae565b60405161015091906111de565b60405180910390f35b610173600480360381019061016e9190610f36565b6103d1565b005b61017d610471565b60405161018a919061137b565b60405180910390f35b6101ad60048036038101906101a89190610fa3565b61047b565b6040516101ba91906111de565b60405180910390f35b6101cb6104aa565b6040516101d89190611396565b60405180910390f35b6101fb60048036038101906101f69190610ff6565b6104b3565b60405161020891906111de565b60405180910390f35b61022b60048036038101906102269190610f36565b6104ea565b604051610238919061137b565b60405180910390f35b610249610532565b60405161025691906111c3565b60405180910390f35b610267610558565b60405161027491906111f9565b60405180910390f35b61029760048036038101906102929190610ff6565b6105ea565b6040516102a491906111de565b60405180910390f35b6102c760048036038101906102c29190610ff6565b610661565b6040516102d491906111de565b60405180910390f35b6102f760048036038101906102f29190610f63565b610684565b604051610304919061137b565b60405180910390f35b61031833838361070b565b5050565b60606003805461032b906114ab565b80601f0160208091040260200160405190810160405280929190818152602001828054610357906114ab565b80156103a45780601f10610379576101008083540402835291602001916103a4565b820191906000526020600020905b81548152906001019060200180831161038757829003601f168201915b5050505050905090565b6000806103b96108d6565b90506103c681858561070b565b600191505092915050565b600560009054906101000a900473ffffffffffffffffffffffffffffffffffffffff1673ffffffffffffffffffffffffffffffffffffffff163373ffffffffffffffffffffffffffffffffffffffff1614610461576040517f08c379a00000000000000000000000000000000000000000000000000000000081526004016104589061129b565b60405180910390fd5b61046e338260065461070b565b50565b6000600254905090565b6000806104866108d6565b90506104938582856108de565b61049e858585610a69565b60019150509392505050565b60006012905090565b6000806104be6108d6565b90506104df8185856104d08589610684565b6104da91906113cd565b61070b565b600191505092915050565b60008060008373ffffffffffffffffffffffffffffffffffffffff1673ffffffffffffffffffffffffffffffffffffffff168152602001908152602001600020549050919050565b600560009054906101000a900473ffffffffffffffffffffffffffffffffffffffff1681565b606060048054610567906114ab565b80601f0160208091040260200160405190810160405280929190818152602001828054610593906114ab565b80156105e05780601f106105b5576101008083540402835291602001916105e0565b820191906000526020600020905b8154815290600101906020018083116105c357829003601f168201915b5050505050905090565b6000806105f56108d6565b905060006106038286610684565b905083811015610648576040517f08c379a000000000000000000000000000000000000000000000000000000000815260040161063f9061135b565b60405180910390fd5b610655828686840361070b565b60019250505092915050565b60008061066c6108d6565b9050610679818585610a69565b600191505092915050565b6000600160008473ffffffffffffffffffffffffffffffffffffffff1673ffffffffffffffffffffffffffffffffffffffff16815260200190815260200160002060008373ffffffffffffffffffffffffffffffffffffffff1673ffffffffffffffffffffffffffffffffffffffff16815260200190815260200160002054905092915050565b600073ffffffffffffffffffffffffffffffffffffffff168373ffffffffffffffffffffffffffffffffffffffff16141561077b576040517f08c379a00000000000000000000000000000000000000000000000000000000081526004016107729061133b565b60405180910390fd5b600073ffffffffffffffffffffffffffffffffffffffff168273ffffffffffffffffffffffffffffffffffffffff1614156107eb576040517f08c379a00000000000000000000000000000000000000000000000000000000081526004016107e2906112bb565b60405180910390fd5b80600160008573ffffffffffffffffffffffffffffffffffffffff1673ffffffffffffffffffffffffffffffffffffffff16815260200190815260200160002060008473ffffffffffffffffffffffffffffffffffffffff1673ffffffffffffffffffffffffffffffffffffffff168152602001908152602001600020819055508173ffffffffffffffffffffffffffffffffffffffff168373ffffffffffffffffffffffffffffffffffffffff167f8c5be1e5ebec7d5bd14f71427d1e84f3dd0314c0f7b2291e5b200ac8c7c3b925836040516108c9919061137b565b60405180910390a3505050565b600033905090565b6108ff60405180606001604052806039815260200161180160399139610ce1565b61093e6040518060400160405280600981526020017f6f776e65723a202573000000000000000000000000000000000000000000000081525084610d7a565b61097d6040518060400160405280600b81526020017f7370656e6465723a20257300000000000000000000000000000000000000000081525083610d7a565b6109bc6040518060400160405280600a81526020017f616d6f756e743a2025730000000000000000000000000000000000000000000081525082610e16565b6109dd60405180606001604052806039815260200161180160399139610ce1565b60006109e98484610684565b90507fffffffffffffffffffffffffffffffffffffffffffffffffffffffffffffffff8114610a635781811015610a55576040517f08c379a0000000000000000000000000000000000000000000000000000000008152600401610a4c906112db565b60405180910390fd5b610a62848484840361070b565b5b50505050565b600073ffffffffffffffffffffffffffffffffffffffff168373ffffffffffffffffffffffffffffffffffffffff161415610ad9576040517f08c379a0000000000000000000000000000000000000000000000000000000008152600401610ad09061131b565b60405180910390fd5b600073ffffffffffffffffffffffffffffffffffffffff168273ffffffffffffffffffffffffffffffffffffffff161415610b49576040517f08c379a0000000000000000000000000000000000000000000000000000000008152600401610b409061127b565b60405180910390fd5b610b54838383610eb2565b60008060008573ffffffffffffffffffffffffffffffffffffffff1673ffffffffffffffffffffffffffffffffffffffff16815260200190815260200160002054905081811015610bda576040517f08c379a0000000000000000000000000000000000000000000000000000000008152600401610bd1906112fb565b60405180910390fd5b8181036000808673ffffffffffffffffffffffffffffffffffffffff1673ffffffffffffffffffffffffffffffffffffffff16815260200190815260200160002081905550816000808573ffffffffffffffffffffffffffffffffffffffff1673ffffffffffffffffffffffffffffffffffffffff168152602001908152602001600020600082825401925050819055508273ffffffffffffffffffffffffffffffffffffffff168473ffffffffffffffffffffffffffffffffffffffff167fddf252ad1be2c89b69c2b068fc378daa952ba7f163c4a11628f55a4df523b3ef84604051610cc8919061137b565b60405180910390a3610cdb848484610eb7565b50505050565b610d7781604051602401610cf591906111f9565b6040516020818303038152906040527f41304fac000000000000000000000000000000000000000000000000000000007bffffffffffffffffffffffffffffffffffffffffffffffffffffffff19166020820180517bffffffffffffffffffffffffffffffffffffffffffffffffffffffff8381831617835250505050610ebc565b50565b610e128282604051602401610d9092919061121b565b6040516020818303038152906040527f319af333000000000000000000000000000000000000000000000000000000007bffffffffffffffffffffffffffffffffffffffffffffffffffffffff19166020820180517bffffffffffffffffffffffffffffffffffffffffffffffffffffffff8381831617835250505050610ebc565b5050565b610eae8282604051602401610e2c92919061124b565b6040516020818303038152906040527fb60e72cc000000000000000000000000000000000000000000000000000000007bffffffffffffffffffffffffffffffffffffffffffffffffffffffff19166020820180517bffffffffffffffffffffffffffffffffffffffffffffffffffffffff8381831617835250505050610ebc565b5050565b505050565b505050565b610ed381610ecb610ed6610ef7565b63ffffffff16565b50565b60006a636f6e736f6c652e6c6f679050600080835160208501845afa505050565b610f02819050919050565b610f0a61153b565b565b600081359050610f1b816117d2565b92915050565b600081359050610f30816117e9565b92915050565b600060208284031215610f4c57610f4b61156a565b5b6000610f5a84828501610f0c565b91505092915050565b60008060408385031215610f7a57610f7961156a565b5b6000610f8885828601610f0c565b9250506020610f9985828601610f0c565b9150509250929050565b600080600060608486031215610fbc57610fbb61156a565b5b6000610fca86828701610f0c565b9350506020610fdb86828701610f0c565b9250506040610fec86828701610f21565b9150509250925092565b6000806040838503121561100d5761100c61156a565b5b600061101b85828601610f0c565b925050602061102c85828601610f21565b9150509250929050565b61103f81611423565b82525050565b61104e81611435565b82525050565b600061105f826113b1565b61106981856113bc565b9350611079818560208601611478565b6110828161156f565b840191505092915050565b600061109a6023836113bc565b91506110a582611580565b604082019050919050565b60006110bd6022836113bc565b91506110c8826115cf565b604082019050919050565b60006110e06022836113bc565b91506110eb8261161e565b604082019050919050565b6000611103601d836113bc565b915061110e8261166d565b602082019050919050565b60006111266026836113bc565b915061113182611696565b604082019050919050565b60006111496025836113bc565b9150611154826116e5565b604082019050919050565b600061116c6024836113bc565b915061117782611734565b604082019050919050565b600061118f6025836113bc565b915061119a82611783565b604082019050919050565b6111ae81611461565b82525050565b6111bd8161146b565b82525050565b60006020820190506111d86000830184611036565b92915050565b60006020820190506111f36000830184611045565b92915050565b600060208201905081810360008301526112138184611054565b905092915050565b600060408201905081810360008301526112358185611054565b90506112446020830184611036565b9392505050565b600060408201905081810360008301526112658185611054565b905061127460208301846111a5565b9392505050565b600060208201905081810360008301526112948161108d565b9050919050565b600060208201905081810360008301526112b4816110b0565b9050919050565b600060208201905081810360008301526112d4816110d3565b9050919050565b600060208201905081810360008301526112f4816110f6565b9050919050565b6000602082019050818103600083015261131481611119565b9050919050565b600060208201905081810360008301526113348161113c565b9050919050565b600060208201905081810360008301526113548161115f565b9050919050565b6000602082019050818103600083015261137481611182565b9050919050565b600060208201905061139060008301846111a5565b92915050565b60006020820190506113ab60008301846111b4565b92915050565b600081519050919050565b600082825260208201905092915050565b60006113d882611461565b91506113e383611461565b9250827fffffffffffffffffffffffffffffffffffffffffffffffffffffffffffffffff03821115611418576114176114dd565b5b828201905092915050565b600061142e82611441565b9050919050565b60008115159050919050565b600073ffffffffffffffffffffffffffffffffffffffff82169050919050565b6000819050919050565b600060ff82169050919050565b60005b8381101561149657808201518184015260208101905061147b565b838111156114a5576000848401525b50505050565b600060028204905060018216806114c357607f821691505b602082108114156114d7576114d661150c565b5b50919050565b7f4e487b7100000000000000000000000000000000000000000000000000000000600052601160045260246000fd5b7f4e487b7100000000000000000000000000000000000000000000000000000000600052602260045260246000fd5b7f4e487b7100000000000000000000000000000000000000000000000000000000600052605160045260246000fd5b600080fd5b6000601f19601f8301169050919050565b7f45524332303a207472616e7366657220746f20746865207a65726f206164647260008201527f6573730000000000000000000000000000000000000000000000000000000000602082015250565b7f4f6e6c79206f776e65722063616e2063616c6c20746869732066756e6374696f60008201527f6e2e000000000000000000000000000000000000000000000000000000000000602082015250565b7f45524332303a20617070726f766520746f20746865207a65726f20616464726560008201527f7373000000000000000000000000000000000000000000000000000000000000602082015250565b7f45524332303a20696e73756666696369656e7420616c6c6f77616e6365000000600082015250565b7f45524332303a207472616e7366657220616d6f756e742065786365656473206260008201527f616c616e63650000000000000000000000000000000000000000000000000000602082015250565b7f45524332303a207472616e736665722066726f6d20746865207a65726f20616460008201527f6472657373000000000000000000000000000000000000000000000000000000602082015250565b7f45524332303a20617070726f76652066726f6d20746865207a65726f2061646460008201527f7265737300000000000000000000000000000000000000000000000000000000602082015250565b7f45524332303a2064656372656173656420616c6c6f77616e63652062656c6f7760008201527f207a65726f000000000000000000000000000000000000000000000000000000602082015250565b6117db81611423565b81146117e657600080fd5b50565b6117f281611461565b81146117fd57600080fd5b5056fe2d2d2d2d2d2d2d2d2d2d2d2d2d2d2d2d2d2d2d2d2d2d2d2d2d2d2d2d2d2d2d2d2d2d2d2d2d2d2d2d2d2d2d2d2d2d2d2d2d2d2d2d2d2d2d2d2da2646970667358221220697ed3ebe7d00120880378856548cc349a71e0110862c5168f6e59a3013490b664736f6c63430008070033",
  "devdoc": {
    "kind": "dev",
    "methods": {
      "approve(address,uint256)": {
        "details": "See {IERC721-approve}."
      },
      "balanceOf(address)": {
        "details": "See {IERC721-balanceOf}."
      },
      "getApproved(uint256)": {
        "details": "See {IERC721-getApproved}."
      },
      "isApprovedForAll(address,address)": {
        "details": "See {IERC721-isApprovedForAll}."
      },
      "name()": {
        "details": "See {IERC721Metadata-name}."
      },
      "owner()": {
        "details": "Returns the address of the current owner."
      },
      "ownerOf(uint256)": {
        "details": "See {IERC721-ownerOf}."
      },
      "renounceOwnership()": {
        "details": "Leaves the contract without owner. It will not be possible to call `onlyOwner` functions. Can only be called by the current owner. NOTE: Renouncing ownership will leave the contract without an owner, thereby disabling any functionality that is only available to the owner."
      },
      "safeTransferFrom(address,address,uint256)": {
        "details": "See {IERC721-safeTransferFrom}."
      },
      "safeTransferFrom(address,address,uint256,bytes)": {
        "details": "See {IERC721-safeTransferFrom}."
      },
      "setApprovalForAll(address,bool)": {
        "details": "See {IERC721-setApprovalForAll}."
      },
      "supportsInterface(bytes4)": {
        "details": "See {IERC165-supportsInterface}."
      },
      "symbol()": {
        "details": "See {IERC721Metadata-symbol}."
      },
      "tokenURI(uint256)": {
        "details": "See {IERC721Metadata-tokenURI}."
      },
      "transferFrom(address,address,uint256)": {
        "details": "See {IERC721-transferFrom}."
      },
      "transferOwnership(address)": {
        "details": "Transfers ownership of the contract to a new account (`newOwner`). Can only be called by the current owner."
      }
    },
    "version": 1
  },
  "userdoc": {
    "kind": "user",
    "methods": {},
    "version": 1
  },
  "storageLayout": {
    "storage": [
      {
        "astId": 927,
        "contract": "contracts/FestivalTicketMarketPlace.sol:FestivalTicketMarketPlace",
        "label": "_name",
        "offset": 0,
        "slot": "0",
        "type": "t_string_storage"
      },
      {
        "astId": 929,
        "contract": "contracts/FestivalTicketMarketPlace.sol:FestivalTicketMarketPlace",
        "label": "_symbol",
        "offset": 0,
        "slot": "1",
        "type": "t_string_storage"
      },
      {
        "astId": 933,
        "contract": "contracts/FestivalTicketMarketPlace.sol:FestivalTicketMarketPlace",
        "label": "_owners",
        "offset": 0,
        "slot": "2",
        "type": "t_mapping(t_uint256,t_address)"
      },
      {
        "astId": 937,
        "contract": "contracts/FestivalTicketMarketPlace.sol:FestivalTicketMarketPlace",
        "label": "_balances",
        "offset": 0,
        "slot": "3",
        "type": "t_mapping(t_address,t_uint256)"
      },
      {
        "astId": 941,
        "contract": "contracts/FestivalTicketMarketPlace.sol:FestivalTicketMarketPlace",
        "label": "_tokenApprovals",
        "offset": 0,
        "slot": "4",
        "type": "t_mapping(t_uint256,t_address)"
      },
      {
        "astId": 947,
        "contract": "contracts/FestivalTicketMarketPlace.sol:FestivalTicketMarketPlace",
        "label": "_operatorApprovals",
        "offset": 0,
        "slot": "5",
        "type": "t_mapping(t_address,t_mapping(t_address,t_bool))"
      },
      {
        "astId": 7,
        "contract": "contracts/FestivalTicketMarketPlace.sol:FestivalTicketMarketPlace",
        "label": "_owner",
        "offset": 0,
        "slot": "6",
        "type": "t_address"
      },
      {
        "astId": 123,
        "contract": "contracts/FestivalTicketMarketPlace.sol:FestivalTicketMarketPlace",
        "label": "_status",
        "offset": 0,
        "slot": "7",
        "type": "t_uint256"
      },
      {
        "astId": 3681,
        "contract": "contracts/FestivalTicketMarketPlace.sol:FestivalTicketMarketPlace",
        "label": "festivalCurrencyTicket",
        "offset": 0,
        "slot": "8",
        "type": "t_contract(FestivalCurrencyTicket)3656"
      },
      {
        "astId": 3683,
        "contract": "contracts/FestivalTicketMarketPlace.sol:FestivalTicketMarketPlace",
        "label": "ticketPrice",
        "offset": 0,
        "slot": "9",
        "type": "t_uint256"
      },
      {
        "astId": 3686,
        "contract": "contracts/FestivalTicketMarketPlace.sol:FestivalTicketMarketPlace",
        "label": "ticketSold",
        "offset": 0,
        "slot": "10",
        "type": "t_uint256"
      },
      {
        "astId": 3690,
        "contract": "contracts/FestivalTicketMarketPlace.sol:FestivalTicketMarketPlace",
        "label": "ticketName",
        "offset": 0,
        "slot": "11",
        "type": "t_string_storage"
      },
      {
        "astId": 3692,
        "contract": "contracts/FestivalTicketMarketPlace.sol:FestivalTicketMarketPlace",
        "label": "ticketSymbol",
        "offset": 0,
        "slot": "12",
        "type": "t_string_storage"
      },
      {
        "astId": 3696,
        "contract": "contracts/FestivalTicketMarketPlace.sol:FestivalTicketMarketPlace",
        "label": "ticketListings",
        "offset": 0,
        "slot": "13",
        "type": "t_array(t_struct(TicketListing)3678_storage)dyn_storage"
      },
      {
        "astId": 3698,
        "contract": "contracts/FestivalTicketMarketPlace.sol:FestivalTicketMarketPlace",
        "label": "contractOwner",
        "offset": 0,
        "slot": "14",
        "type": "t_address"
      },
      {
        "astId": 3701,
        "contract": "contracts/FestivalTicketMarketPlace.sol:FestivalTicketMarketPlace",
        "label": "counter",
        "offset": 0,
        "slot": "15",
        "type": "t_uint256"
      },
      {
        "astId": 3761,
        "contract": "contracts/FestivalTicketMarketPlace.sol:FestivalTicketMarketPlace",
        "label": "ticketPriceByTicketId",
        "offset": 0,
        "slot": "16",
        "type": "t_mapping(t_uint256,t_uint256)"
      },
      {
        "astId": 3765,
        "contract": "contracts/FestivalTicketMarketPlace.sol:FestivalTicketMarketPlace",
        "label": "s_balances",
        "offset": 0,
        "slot": "17",
        "type": "t_mapping(t_address,t_uint256)"
      }
    ],
    "types": {
      "t_address": {
        "encoding": "inplace",
        "label": "address",
        "numberOfBytes": "20"
      },
      "t_array(t_struct(TicketListing)3678_storage)dyn_storage": {
        "base": "t_struct(TicketListing)3678_storage",
        "encoding": "dynamic_array",
        "label": "struct FestivalTicketMarketPlace.TicketListing[]",
        "numberOfBytes": "32"
      },
      "t_bool": {
        "encoding": "inplace",
        "label": "bool",
        "numberOfBytes": "1"
      },
      "t_contract(FestivalCurrencyTicket)3656": {
        "encoding": "inplace",
        "label": "contract FestivalCurrencyTicket",
        "numberOfBytes": "20"
      },
      "t_mapping(t_address,t_bool)": {
        "encoding": "mapping",
        "key": "t_address",
        "label": "mapping(address => bool)",
        "numberOfBytes": "32",
        "value": "t_bool"
      },
      "t_mapping(t_address,t_mapping(t_address,t_bool))": {
        "encoding": "mapping",
        "key": "t_address",
        "label": "mapping(address => mapping(address => bool))",
        "numberOfBytes": "32",
        "value": "t_mapping(t_address,t_bool)"
      },
      "t_mapping(t_address,t_uint256)": {
        "encoding": "mapping",
        "key": "t_address",
        "label": "mapping(address => uint256)",
        "numberOfBytes": "32",
        "value": "t_uint256"
      },
      "t_mapping(t_uint256,t_address)": {
        "encoding": "mapping",
        "key": "t_uint256",
        "label": "mapping(uint256 => address)",
        "numberOfBytes": "32",
        "value": "t_address"
      },
      "t_mapping(t_uint256,t_uint256)": {
        "encoding": "mapping",
        "key": "t_uint256",
        "label": "mapping(uint256 => uint256)",
        "numberOfBytes": "32",
        "value": "t_uint256"
      },
      "t_string_storage": {
        "encoding": "bytes",
        "label": "string",
        "numberOfBytes": "32"
      },
      "t_struct(TicketListing)3678_storage": {
        "encoding": "inplace",
        "label": "struct FestivalTicketMarketPlace.TicketListing",
        "members": [
          {
            "astId": 3673,
            "contract": "contracts/FestivalTicketMarketPlace.sol:FestivalTicketMarketPlace",
            "label": "ticketId",
            "offset": 0,
            "slot": "0",
            "type": "t_uint256"
          },
          {
            "astId": 3675,
            "contract": "contracts/FestivalTicketMarketPlace.sol:FestivalTicketMarketPlace",
            "label": "seller",
            "offset": 0,
            "slot": "1",
            "type": "t_address"
          },
          {
            "astId": 3677,
            "contract": "contracts/FestivalTicketMarketPlace.sol:FestivalTicketMarketPlace",
            "label": "price",
            "offset": 0,
            "slot": "2",
            "type": "t_uint256"
          }
        ],
        "numberOfBytes": "96"
      },
      "t_uint256": {
        "encoding": "inplace",
        "label": "uint256",
        "numberOfBytes": "32"
      }
    }
  }
}