{
  "address": "0x7Dc15eDB14FD0B994daC962eE95AA4EE6F98c01B",
  "abi": [
    {
      "inputs": [
        {
          "internalType": "uint256",
          "name": "_totalTicket",
          "type": "uint256"
        },
        {
          "internalType": "string",
          "name": "_ticketName",
          "type": "string"
        },
        {
          "internalType": "string",
          "name": "_ticketSymbol",
          "type": "string"
        }
      ],
      "stateMutability": "nonpayable",
      "type": "constructor"
    },
    {
      "anonymous": false,
      "inputs": [
        {
          "indexed": true,
          "internalType": "address",
          "name": "owner",
          "type": "address"
        },
        {
          "indexed": true,
          "internalType": "address",
          "name": "spender",
          "type": "address"
        },
        {
          "indexed": false,
          "internalType": "uint256",
          "name": "value",
          "type": "uint256"
        }
      ],
      "name": "Approval",
      "type": "event"
    },
    {
      "anonymous": false,
      "inputs": [
        {
          "indexed": true,
          "internalType": "address",
          "name": "from",
          "type": "address"
        },
        {
          "indexed": true,
          "internalType": "address",
          "name": "to",
          "type": "address"
        },
        {
          "indexed": false,
          "internalType": "uint256",
          "name": "value",
          "type": "uint256"
        }
      ],
      "name": "Transfer",
      "type": "event"
    },
    {
      "inputs": [
        {
          "internalType": "address",
          "name": "owner",
          "type": "address"
        },
        {
          "internalType": "address",
          "name": "spender",
          "type": "address"
        }
      ],
      "name": "allowance",
      "outputs": [
        {
          "internalType": "uint256",
          "name": "",
          "type": "uint256"
        }
      ],
      "stateMutability": "view",
      "type": "function"
    },
    {
      "inputs": [
        {
          "internalType": "address",
          "name": "spender",
          "type": "address"
        },
        {
          "internalType": "uint256",
          "name": "amount",
          "type": "uint256"
        }
      ],
      "name": "approve",
      "outputs": [
        {
          "internalType": "bool",
          "name": "",
          "type": "bool"
        }
      ],
      "stateMutability": "nonpayable",
      "type": "function"
    },
    {
      "inputs": [
        {
          "internalType": "address",
          "name": "spender",
          "type": "address"
        },
        {
          "internalType": "uint256",
          "name": "amount",
          "type": "uint256"
        }
      ],
      "name": "approveToken",
      "outputs": [],
      "stateMutability": "nonpayable",
      "type": "function"
    },
    {
      "inputs": [
        {
          "internalType": "address",
          "name": "account",
          "type": "address"
        }
      ],
      "name": "balanceOf",
      "outputs": [
        {
          "internalType": "uint256",
          "name": "",
          "type": "uint256"
        }
      ],
      "stateMutability": "view",
      "type": "function"
    },
    {
      "inputs": [],
      "name": "decimals",
      "outputs": [
        {
          "internalType": "uint8",
          "name": "",
          "type": "uint8"
        }
      ],
      "stateMutability": "view",
      "type": "function"
    },
    {
      "inputs": [
        {
          "internalType": "address",
          "name": "spender",
          "type": "address"
        },
        {
          "internalType": "uint256",
          "name": "subtractedValue",
          "type": "uint256"
        }
      ],
      "name": "decreaseAllowance",
      "outputs": [
        {
          "internalType": "bool",
          "name": "",
          "type": "bool"
        }
      ],
      "stateMutability": "nonpayable",
      "type": "function"
    },
    {
      "inputs": [
        {
          "internalType": "address",
          "name": "spender",
          "type": "address"
        },
        {
          "internalType": "uint256",
          "name": "addedValue",
          "type": "uint256"
        }
      ],
      "name": "increaseAllowance",
      "outputs": [
        {
          "internalType": "bool",
          "name": "",
          "type": "bool"
        }
      ],
      "stateMutability": "nonpayable",
      "type": "function"
    },
    {
      "inputs": [],
      "name": "name",
      "outputs": [
        {
          "internalType": "string",
          "name": "",
          "type": "string"
        }
      ],
      "stateMutability": "view",
      "type": "function"
    },
    {
      "inputs": [],
      "name": "owner",
      "outputs": [
        {
          "internalType": "address",
          "name": "",
          "type": "address"
        }
      ],
      "stateMutability": "view",
      "type": "function"
    },
    {
      "inputs": [
        {
          "internalType": "address",
          "name": "spender",
          "type": "address"
        }
      ],
      "name": "setTokenAllowance",
      "outputs": [],
      "stateMutability": "nonpayable",
      "type": "function"
    },
    {
      "inputs": [],
      "name": "symbol",
      "outputs": [
        {
          "internalType": "string",
          "name": "",
          "type": "string"
        }
      ],
      "stateMutability": "view",
      "type": "function"
    },
    {
      "inputs": [],
      "name": "totalSupply",
      "outputs": [
        {
          "internalType": "uint256",
          "name": "",
          "type": "uint256"
        }
      ],
      "stateMutability": "view",
      "type": "function"
    },
    {
      "inputs": [
        {
          "internalType": "address",
          "name": "to",
          "type": "address"
        },
        {
          "internalType": "uint256",
          "name": "amount",
          "type": "uint256"
        }
      ],
      "name": "transfer",
      "outputs": [
        {
          "internalType": "bool",
          "name": "",
          "type": "bool"
        }
      ],
      "stateMutability": "nonpayable",
      "type": "function"
    },
    {
      "inputs": [
        {
          "internalType": "address",
          "name": "from",
          "type": "address"
        },
        {
          "internalType": "address",
          "name": "to",
          "type": "address"
        },
        {
          "internalType": "uint256",
          "name": "amount",
          "type": "uint256"
        }
      ],
      "name": "transferFrom",
      "outputs": [
        {
          "internalType": "bool",
          "name": "",
          "type": "bool"
        }
      ],
      "stateMutability": "nonpayable",
      "type": "function"
    }
  ],
  "transactionHash": "0x96ff95ba181bd883d5c97cd377f092a609ea572a0ed425639bf5410e07be43ae",
  "args": [
    1000,
    "FestivalCurrencyTicket",
    "FCT"
  ],
  "numDeployments": 1,
  "solcInputHash": "b5e9d3f7538d730ba0787c993b6a565d",
  "bytecode": "0x608060405233600560006101000a81548173ffffffffffffffffffffffffffffffffffffffff021916908373ffffffffffffffffffffffffffffffffffffffff1602179055503480156200005257600080fd5b5060405162001f8d38038062001f8d83398181016040528101906200007891906200038f565b81818160039080519060200190620000929291906200024a565b508060049080519060200190620000ab9291906200024a565b505050620000c2336103e8620000d260201b60201c565b826006819055505050506200070e565b600073ffffffffffffffffffffffffffffffffffffffff168273ffffffffffffffffffffffffffffffffffffffff16141562000145576040517f08c379a00000000000000000000000000000000000000000000000000000000081526004016200013c9062000461565b60405180910390fd5b62000159600083836200024060201b60201c565b80600260008282546200016d919062000510565b92505081905550806000808473ffffffffffffffffffffffffffffffffffffffff1673ffffffffffffffffffffffffffffffffffffffff168152602001908152602001600020600082825401925050819055508173ffffffffffffffffffffffffffffffffffffffff16600073ffffffffffffffffffffffffffffffffffffffff167fddf252ad1be2c89b69c2b068fc378daa952ba7f163c4a11628f55a4df523b3ef8360405162000220919062000483565b60405180910390a36200023c600083836200024560201b60201c565b5050565b505050565b505050565b8280546200025890620005ad565b90600052602060002090601f0160209004810192826200027c5760008555620002c8565b82601f106200029757805160ff1916838001178555620002c8565b82800160010185558215620002c8579182015b82811115620002c7578251825591602001919060010190620002aa565b5b509050620002d79190620002db565b5090565b5b80821115620002f6576000816000905550600101620002dc565b5090565b6000620003116200030b84620004c9565b620004a0565b90508281526020810184848401111562000330576200032f620006ab565b5b6200033d84828562000577565b509392505050565b600082601f8301126200035d576200035c620006a6565b5b81516200036f848260208601620002fa565b91505092915050565b6000815190506200038981620006f4565b92915050565b600080600060608486031215620003ab57620003aa620006b5565b5b6000620003bb8682870162000378565b935050602084015167ffffffffffffffff811115620003df57620003de620006b0565b5b620003ed8682870162000345565b925050604084015167ffffffffffffffff811115620004115762000410620006b0565b5b6200041f8682870162000345565b9150509250925092565b600062000438601f83620004ff565b91506200044582620006cb565b602082019050919050565b6200045b816200056d565b82525050565b600060208201905081810360008301526200047c8162000429565b9050919050565b60006020820190506200049a600083018462000450565b92915050565b6000620004ac620004bf565b9050620004ba8282620005e3565b919050565b6000604051905090565b600067ffffffffffffffff821115620004e757620004e662000677565b5b620004f282620006ba565b9050602081019050919050565b600082825260208201905092915050565b60006200051d826200056d565b91506200052a836200056d565b9250827fffffffffffffffffffffffffffffffffffffffffffffffffffffffffffffffff0382111562000562576200056162000619565b5b828201905092915050565b6000819050919050565b60005b83811015620005975780820151818401526020810190506200057a565b83811115620005a7576000848401525b50505050565b60006002820490506001821680620005c657607f821691505b60208210811415620005dd57620005dc62000648565b5b50919050565b620005ee82620006ba565b810181811067ffffffffffffffff8211171562000610576200060f62000677565b5b80604052505050565b7f4e487b7100000000000000000000000000000000000000000000000000000000600052601160045260246000fd5b7f4e487b7100000000000000000000000000000000000000000000000000000000600052602260045260246000fd5b7f4e487b7100000000000000000000000000000000000000000000000000000000600052604160045260246000fd5b600080fd5b600080fd5b600080fd5b600080fd5b6000601f19601f8301169050919050565b7f45524332303a206d696e7420746f20746865207a65726f206164647265737300600082015250565b620006ff816200056d565b81146200070b57600080fd5b50565b61186f806200071e6000396000f3fe608060405234801561001057600080fd5b50600436106100ea5760003560e01c8063395093511161008c57806395d89b411161006657806395d89b411461025f578063a457c2d71461027d578063a9059cbb146102ad578063dd62ed3e146102dd576100ea565b806339509351146101e157806370a08231146102115780638da5cb5b14610241576100ea565b8063096cb2ce116100c8578063096cb2ce1461015957806318160ddd1461017557806323b872dd14610193578063313ce567146101c3576100ea565b8063022fc88b146100ef57806306fdde031461010b578063095ea7b314610129575b600080fd5b61010960048036038101906101049190610ff6565b61030d565b005b61011361031c565b60405161012091906111f9565b60405180910390f35b610143600480360381019061013e9190610ff6565b6103ae565b60405161015091906111de565b60405180910390f35b610173600480360381019061016e9190610f36565b6103d1565b005b61017d610471565b60405161018a919061137b565b60405180910390f35b6101ad60048036038101906101a89190610fa3565b61047b565b6040516101ba91906111de565b60405180910390f35b6101cb6104aa565b6040516101d89190611396565b60405180910390f35b6101fb60048036038101906101f69190610ff6565b6104b3565b60405161020891906111de565b60405180910390f35b61022b60048036038101906102269190610f36565b6104ea565b604051610238919061137b565b60405180910390f35b610249610532565b60405161025691906111c3565b60405180910390f35b610267610558565b60405161027491906111f9565b60405180910390f35b61029760048036038101906102929190610ff6565b6105ea565b6040516102a491906111de565b60405180910390f35b6102c760048036038101906102c29190610ff6565b610661565b6040516102d491906111de565b60405180910390f35b6102f760048036038101906102f29190610f63565b610684565b604051610304919061137b565b60405180910390f35b61031833838361070b565b5050565b60606003805461032b906114ab565b80601f0160208091040260200160405190810160405280929190818152602001828054610357906114ab565b80156103a45780601f10610379576101008083540402835291602001916103a4565b820191906000526020600020905b81548152906001019060200180831161038757829003601f168201915b5050505050905090565b6000806103b96108d6565b90506103c681858561070b565b600191505092915050565b600560009054906101000a900473ffffffffffffffffffffffffffffffffffffffff1673ffffffffffffffffffffffffffffffffffffffff163373ffffffffffffffffffffffffffffffffffffffff1614610461576040517f08c379a00000000000000000000000000000000000000000000000000000000081526004016104589061129b565b60405180910390fd5b61046e338260065461070b565b50565b6000600254905090565b6000806104866108d6565b90506104938582856108de565b61049e858585610a69565b60019150509392505050565b60006012905090565b6000806104be6108d6565b90506104df8185856104d08589610684565b6104da91906113cd565b61070b565b600191505092915050565b60008060008373ffffffffffffffffffffffffffffffffffffffff1673ffffffffffffffffffffffffffffffffffffffff168152602001908152602001600020549050919050565b600560009054906101000a900473ffffffffffffffffffffffffffffffffffffffff1681565b606060048054610567906114ab565b80601f0160208091040260200160405190810160405280929190818152602001828054610593906114ab565b80156105e05780601f106105b5576101008083540402835291602001916105e0565b820191906000526020600020905b8154815290600101906020018083116105c357829003601f168201915b5050505050905090565b6000806105f56108d6565b905060006106038286610684565b905083811015610648576040517f08c379a000000000000000000000000000000000000000000000000000000000815260040161063f9061135b565b60405180910390fd5b610655828686840361070b565b60019250505092915050565b60008061066c6108d6565b9050610679818585610a69565b600191505092915050565b6000600160008473ffffffffffffffffffffffffffffffffffffffff1673ffffffffffffffffffffffffffffffffffffffff16815260200190815260200160002060008373ffffffffffffffffffffffffffffffffffffffff1673ffffffffffffffffffffffffffffffffffffffff16815260200190815260200160002054905092915050565b600073ffffffffffffffffffffffffffffffffffffffff168373ffffffffffffffffffffffffffffffffffffffff16141561077b576040517f08c379a00000000000000000000000000000000000000000000000000000000081526004016107729061133b565b60405180910390fd5b600073ffffffffffffffffffffffffffffffffffffffff168273ffffffffffffffffffffffffffffffffffffffff1614156107eb576040517f08c379a00000000000000000000000000000000000000000000000000000000081526004016107e2906112bb565b60405180910390fd5b80600160008573ffffffffffffffffffffffffffffffffffffffff1673ffffffffffffffffffffffffffffffffffffffff16815260200190815260200160002060008473ffffffffffffffffffffffffffffffffffffffff1673ffffffffffffffffffffffffffffffffffffffff168152602001908152602001600020819055508173ffffffffffffffffffffffffffffffffffffffff168373ffffffffffffffffffffffffffffffffffffffff167f8c5be1e5ebec7d5bd14f71427d1e84f3dd0314c0f7b2291e5b200ac8c7c3b925836040516108c9919061137b565b60405180910390a3505050565b600033905090565b6108ff60405180606001604052806039815260200161180160399139610ce1565b61093e6040518060400160405280600981526020017f6f776e65723a202573000000000000000000000000000000000000000000000081525084610d7a565b61097d6040518060400160405280600b81526020017f7370656e6465723a20257300000000000000000000000000000000000000000081525083610d7a565b6109bc6040518060400160405280600a81526020017f616d6f756e743a2025730000000000000000000000000000000000000000000081525082610e16565b6109dd60405180606001604052806039815260200161180160399139610ce1565b60006109e98484610684565b90507fffffffffffffffffffffffffffffffffffffffffffffffffffffffffffffffff8114610a635781811015610a55576040517f08c379a0000000000000000000000000000000000000000000000000000000008152600401610a4c906112db565b60405180910390fd5b610a62848484840361070b565b5b50505050565b600073ffffffffffffffffffffffffffffffffffffffff168373ffffffffffffffffffffffffffffffffffffffff161415610ad9576040517f08c379a0000000000000000000000000000000000000000000000000000000008152600401610ad09061131b565b60405180910390fd5b600073ffffffffffffffffffffffffffffffffffffffff168273ffffffffffffffffffffffffffffffffffffffff161415610b49576040517f08c379a0000000000000000000000000000000000000000000000000000000008152600401610b409061127b565b60405180910390fd5b610b54838383610eb2565b60008060008573ffffffffffffffffffffffffffffffffffffffff1673ffffffffffffffffffffffffffffffffffffffff16815260200190815260200160002054905081811015610bda576040517f08c379a0000000000000000000000000000000000000000000000000000000008152600401610bd1906112fb565b60405180910390fd5b8181036000808673ffffffffffffffffffffffffffffffffffffffff1673ffffffffffffffffffffffffffffffffffffffff16815260200190815260200160002081905550816000808573ffffffffffffffffffffffffffffffffffffffff1673ffffffffffffffffffffffffffffffffffffffff168152602001908152602001600020600082825401925050819055508273ffffffffffffffffffffffffffffffffffffffff168473ffffffffffffffffffffffffffffffffffffffff167fddf252ad1be2c89b69c2b068fc378daa952ba7f163c4a11628f55a4df523b3ef84604051610cc8919061137b565b60405180910390a3610cdb848484610eb7565b50505050565b610d7781604051602401610cf591906111f9565b6040516020818303038152906040527f41304fac000000000000000000000000000000000000000000000000000000007bffffffffffffffffffffffffffffffffffffffffffffffffffffffff19166020820180517bffffffffffffffffffffffffffffffffffffffffffffffffffffffff8381831617835250505050610ebc565b50565b610e128282604051602401610d9092919061121b565b6040516020818303038152906040527f319af333000000000000000000000000000000000000000000000000000000007bffffffffffffffffffffffffffffffffffffffffffffffffffffffff19166020820180517bffffffffffffffffffffffffffffffffffffffffffffffffffffffff8381831617835250505050610ebc565b5050565b610eae8282604051602401610e2c92919061124b565b6040516020818303038152906040527fb60e72cc000000000000000000000000000000000000000000000000000000007bffffffffffffffffffffffffffffffffffffffffffffffffffffffff19166020820180517bffffffffffffffffffffffffffffffffffffffffffffffffffffffff8381831617835250505050610ebc565b5050565b505050565b505050565b610ed381610ecb610ed6610ef7565b63ffffffff16565b50565b60006a636f6e736f6c652e6c6f679050600080835160208501845afa505050565b610f02819050919050565b610f0a61153b565b565b600081359050610f1b816117d2565b92915050565b600081359050610f30816117e9565b92915050565b600060208284031215610f4c57610f4b61156a565b5b6000610f5a84828501610f0c565b91505092915050565b60008060408385031215610f7a57610f7961156a565b5b6000610f8885828601610f0c565b9250506020610f9985828601610f0c565b9150509250929050565b600080600060608486031215610fbc57610fbb61156a565b5b6000610fca86828701610f0c565b9350506020610fdb86828701610f0c565b9250506040610fec86828701610f21565b9150509250925092565b6000806040838503121561100d5761100c61156a565b5b600061101b85828601610f0c565b925050602061102c85828601610f21565b9150509250929050565b61103f81611423565b82525050565b61104e81611435565b82525050565b600061105f826113b1565b61106981856113bc565b9350611079818560208601611478565b6110828161156f565b840191505092915050565b600061109a6023836113bc565b91506110a582611580565b604082019050919050565b60006110bd6022836113bc565b91506110c8826115cf565b604082019050919050565b60006110e06022836113bc565b91506110eb8261161e565b604082019050919050565b6000611103601d836113bc565b915061110e8261166d565b602082019050919050565b60006111266026836113bc565b915061113182611696565b604082019050919050565b60006111496025836113bc565b9150611154826116e5565b604082019050919050565b600061116c6024836113bc565b915061117782611734565b604082019050919050565b600061118f6025836113bc565b915061119a82611783565b604082019050919050565b6111ae81611461565b82525050565b6111bd8161146b565b82525050565b60006020820190506111d86000830184611036565b92915050565b60006020820190506111f36000830184611045565b92915050565b600060208201905081810360008301526112138184611054565b905092915050565b600060408201905081810360008301526112358185611054565b90506112446020830184611036565b9392505050565b600060408201905081810360008301526112658185611054565b905061127460208301846111a5565b9392505050565b600060208201905081810360008301526112948161108d565b9050919050565b600060208201905081810360008301526112b4816110b0565b9050919050565b600060208201905081810360008301526112d4816110d3565b9050919050565b600060208201905081810360008301526112f4816110f6565b9050919050565b6000602082019050818103600083015261131481611119565b9050919050565b600060208201905081810360008301526113348161113c565b9050919050565b600060208201905081810360008301526113548161115f565b9050919050565b6000602082019050818103600083015261137481611182565b9050919050565b600060208201905061139060008301846111a5565b92915050565b60006020820190506113ab60008301846111b4565b92915050565b600081519050919050565b600082825260208201905092915050565b60006113d882611461565b91506113e383611461565b9250827fffffffffffffffffffffffffffffffffffffffffffffffffffffffffffffffff03821115611418576114176114dd565b5b828201905092915050565b600061142e82611441565b9050919050565b60008115159050919050565b600073ffffffffffffffffffffffffffffffffffffffff82169050919050565b6000819050919050565b600060ff82169050919050565b60005b8381101561149657808201518184015260208101905061147b565b838111156114a5576000848401525b50505050565b600060028204905060018216806114c357607f821691505b602082108114156114d7576114d661150c565b5b50919050565b7f4e487b7100000000000000000000000000000000000000000000000000000000600052601160045260246000fd5b7f4e487b7100000000000000000000000000000000000000000000000000000000600052602260045260246000fd5b7f4e487b7100000000000000000000000000000000000000000000000000000000600052605160045260246000fd5b600080fd5b6000601f19601f8301169050919050565b7f45524332303a207472616e7366657220746f20746865207a65726f206164647260008201527f6573730000000000000000000000000000000000000000000000000000000000602082015250565b7f4f6e6c79206f776e65722063616e2063616c6c20746869732066756e6374696f60008201527f6e2e000000000000000000000000000000000000000000000000000000000000602082015250565b7f45524332303a20617070726f766520746f20746865207a65726f20616464726560008201527f7373000000000000000000000000000000000000000000000000000000000000602082015250565b7f45524332303a20696e73756666696369656e7420616c6c6f77616e6365000000600082015250565b7f45524332303a207472616e7366657220616d6f756e742065786365656473206260008201527f616c616e63650000000000000000000000000000000000000000000000000000602082015250565b7f45524332303a207472616e736665722066726f6d20746865207a65726f20616460008201527f6472657373000000000000000000000000000000000000000000000000000000602082015250565b7f45524332303a20617070726f76652066726f6d20746865207a65726f2061646460008201527f7265737300000000000000000000000000000000000000000000000000000000602082015250565b7f45524332303a2064656372656173656420616c6c6f77616e63652062656c6f7760008201527f207a65726f000000000000000000000000000000000000000000000000000000602082015250565b6117db81611423565b81146117e657600080fd5b50565b6117f281611461565b81146117fd57600080fd5b5056fe2d2d2d2d2d2d2d2d2d2d2d2d2d2d2d2d2d2d2d2d2d2d2d2d2d2d2d2d2d2d2d2d2d2d2d2d2d2d2d2d2d2d2d2d2d2d2d2d2d2d2d2d2d2d2d2d2da2646970667358221220697ed3ebe7d00120880378856548cc349a71e0110862c5168f6e59a3013490b664736f6c63430008070033",
  "devdoc": {
    "kind": "dev",
    "methods": {
      "allowance(address,address)": {
        "details": "See {IERC20-allowance}."
      },
      "approve(address,uint256)": {
        "details": "See {IERC20-approve}. NOTE: If `amount` is the maximum `uint256`, the allowance is not updated on `transferFrom`. This is semantically equivalent to an infinite approval. Requirements: - `spender` cannot be the zero address."
      },
      "balanceOf(address)": {
        "details": "See {IERC20-balanceOf}."
      },
      "decimals()": {
        "details": "Returns the number of decimals used to get its user representation. For example, if `decimals` equals `2`, a balance of `505` tokens should be displayed to a user as `5.05` (`505 / 10 ** 2`). Tokens usually opt for a value of 18, imitating the relationship between Ether and Wei. This is the default value returned by this function, unless it's overridden. NOTE: This information is only used for _display_ purposes: it in no way affects any of the arithmetic of the contract, including {IERC20-balanceOf} and {IERC20-transfer}."
      },
      "decreaseAllowance(address,uint256)": {
        "details": "Atomically decreases the allowance granted to `spender` by the caller. This is an alternative to {approve} that can be used as a mitigation for problems described in {IERC20-approve}. Emits an {Approval} event indicating the updated allowance. Requirements: - `spender` cannot be the zero address. - `spender` must have allowance for the caller of at least `subtractedValue`."
      },
      "increaseAllowance(address,uint256)": {
        "details": "Atomically increases the allowance granted to `spender` by the caller. This is an alternative to {approve} that can be used as a mitigation for problems described in {IERC20-approve}. Emits an {Approval} event indicating the updated allowance. Requirements: - `spender` cannot be the zero address."
      },
      "name()": {
        "details": "Returns the name of the token."
      },
      "symbol()": {
        "details": "Returns the symbol of the token, usually a shorter version of the name."
      },
      "totalSupply()": {
        "details": "See {IERC20-totalSupply}."
      },
      "transfer(address,uint256)": {
        "details": "See {IERC20-transfer}. Requirements: - `to` cannot be the zero address. - the caller must have a balance of at least `amount`."
      },
      "transferFrom(address,address,uint256)": {
        "details": "See {IERC20-transferFrom}. Emits an {Approval} event indicating the updated allowance. This is not required by the EIP. See the note at the beginning of {ERC20}. NOTE: Does not update the allowance if the current allowance is the maximum `uint256`. Requirements: - `from` and `to` cannot be the zero address. - `from` must have a balance of at least `amount`. - the caller must have allowance for ``from``'s tokens of at least `amount`."
      }
    },
    "version": 1
  },
  "userdoc": {
    "kind": "user",
    "methods": {},
    "version": 1
  },
  "storageLayout": {
    "storage": [
      {
        "astId": 194,
        "contract": "contracts/FestivalCurrencyTicket.sol:FestivalCurrencyTicket",
        "label": "_balances",
        "offset": 0,
        "slot": "0",
        "type": "t_mapping(t_address,t_uint256)"
      },
      {
        "astId": 200,
        "contract": "contracts/FestivalCurrencyTicket.sol:FestivalCurrencyTicket",
        "label": "_allowances",
        "offset": 0,
        "slot": "1",
        "type": "t_mapping(t_address,t_mapping(t_address,t_uint256))"
      },
      {
        "astId": 202,
        "contract": "contracts/FestivalCurrencyTicket.sol:FestivalCurrencyTicket",
        "label": "_totalSupply",
        "offset": 0,
        "slot": "2",
        "type": "t_uint256"
      },
      {
        "astId": 204,
        "contract": "contracts/FestivalCurrencyTicket.sol:FestivalCurrencyTicket",
        "label": "_name",
        "offset": 0,
        "slot": "3",
        "type": "t_string_storage"
      },
      {
        "astId": 206,
        "contract": "contracts/FestivalCurrencyTicket.sol:FestivalCurrencyTicket",
        "label": "_symbol",
        "offset": 0,
        "slot": "4",
        "type": "t_string_storage"
      },
      {
        "astId": 3587,
        "contract": "contracts/FestivalCurrencyTicket.sol:FestivalCurrencyTicket",
        "label": "owner",
        "offset": 0,
        "slot": "5",
        "type": "t_address"
      },
      {
        "astId": 3589,
        "contract": "contracts/FestivalCurrencyTicket.sol:FestivalCurrencyTicket",
        "label": "totalTicket",
        "offset": 0,
        "slot": "6",
        "type": "t_uint256"
      }
    ],
    "types": {
      "t_address": {
        "encoding": "inplace",
        "label": "address",
        "numberOfBytes": "20"
      },
      "t_mapping(t_address,t_mapping(t_address,t_uint256))": {
        "encoding": "mapping",
        "key": "t_address",
        "label": "mapping(address => mapping(address => uint256))",
        "numberOfBytes": "32",
        "value": "t_mapping(t_address,t_uint256)"
      },
      "t_mapping(t_address,t_uint256)": {
        "encoding": "mapping",
        "key": "t_address",
        "label": "mapping(address => uint256)",
        "numberOfBytes": "32",
        "value": "t_uint256"
      },
      "t_string_storage": {
        "encoding": "bytes",
        "label": "string",
        "numberOfBytes": "32"
      },
      "t_uint256": {
        "encoding": "inplace",
        "label": "uint256",
        "numberOfBytes": "32"
      }
    }
  }
}